:400000000040002011000000890700008907000010B500F0DBFBC04610B51222224B1A60302001F065F8214A214B1A60214A116802230B431360204A204B1A600024204B27
:400040001C60204A136808218B431360FA20C00001F0F8F81C4801F0EBF89C2292011B4B1A601B4B1B4A1A60E82149011A4A11601A4A1A60CC218901194A1160194A1A601E
:4000800082221206184B1A608022D202174B1A604122174B1A60013A164B1A600232164B1A60164B1C6010BD300010400600008004010B4078002E402D3E00007C002E40B6
:4000C00064F02E406CF02E40DC050000040301400000014041FF00800003014040FF00800803014042FF008008010B4000010B401801014008010140040101400C020B4057
:4001000010B572B60022294B1A6000240FE028486200131959000B00411889881A5AC31858880004104300F0DDFA0134E4B2012CEDD9204A204B1A6099231B041F4A1360D2
:400140001F4A13601F4A13601F4A13601F4A13601F4A117806230B43DBB2137003221D4B1A601D4A1D4B1A6020231D4A1360C42189021C4A11601C4A13607F221B4B1A6088
:40018000C02252031A4B1A603F221A4B1A603132194B1A60D8221204184B1A603022184B1A60FFF739FF00F0B3FA10BD6CF02E40347A0100EE0000EE00000240000102401A
:4001C00000500F4010500F4020500F4030500F4000700F40000004402400D80008000440000104400801044018010440000204400802044018020440000304400803044061
:400200001803044010B5064C2378002B07D1054B002B02D0044800E000BF0123237010BDB810002000000000D8790100084B10B5002B03D00749084800E000BF07480368A5
:40024000002B00D110BD064B002BFBD09847F9E700000000BC100020D8790100A00B00200000000010B500F045F900F025F9002001F002FB00F014F900F02CFA00F018F983
:40028000FCE7C04600B583B00023022201A9482001F0F2F90028F7D101F0B6F9C307FBD501F0CAF901F09CF901AB187800025B78184302F08BF9044902F074F8034901F00A
:4002C00057FF03B000BDC0460024F4450024744910B50400FFF7D6FF02F0CCFC02000B000249200003F0FAF910BDC046E079010010B584B002A8FFF7EBFF74236A461370CE
:400300006A3B9371012405E0631E02AAD35C6A461355013402A803F003FA8442F4D3002404E06B46185D00F0BFFA0134684603F0F7F98442F5D304B010BDC04630B583B070
:4003400005006846FFF7C4FF002404E06B461B5D2B550134E4B2684603F0E2F98442F5D303B030BD30B587B0114B1B78022B1DD1104B1B78002B19D0FFF7BAFF01AD28003E
:40038000FFF7DCFF03AC1D2323810395183BA380094D00232A000021200012F031FF2B78687800021843210011F0B8FC07B030BD72220020D61000207822002010B50C0016
:4003C000282815D004D8012807D027280CD05BE0412819D04C281CD056E0002000F052FB002001F049FA4FE0FF2001F045FA4BE0002000F047FB0023244A1370244A1370ED
:40040000002001F039FA3FE00222224802F0DFFC3AE08B89132B09D1081D00231D4A002112F0EEFE63681A78194B1A70A389162B09D1201D0023174A002112F0E1FE6368DA
:400440001A78154B1A70A3891E2B09D1201D0023104A002112F0D4FE63681A780B4B1A70A3891A2B09D1201D00230A4A002112F0C7FE63681A78094B1A70064A1378507800
:400480000002184311F096FC10BDC046D6100020D810002058220020D7100020D410002010B5024800F096FA10BDC046BD03000010B506F055F810BD10B500F0E5F900F04C
:4004C000F5FF01F081F901F0B3F900F0C9FD10BD10B501F0C9F9C043C0B201F0B9F9FA20400000F08DFE01F0BFF9C043C0B201F0AFF910BD62B6704710B500F0C1FD022030
:4005000000F0C6FD00F0C2FD10BDC04610B50400FFF7F2FF200000F0CFFD80B210BDC04610B50120FFF7F2FF02F050F8044B196801F038FFE821890501F034FF10BDC04668
:40054000307A010010B5FFF7EBFF024901F010FE10BDC04600007A4410B50400FFF7F2FF02F088FB02000B000249200003F0B6F810BDC046E079010030B583B0050068461A
:40058000FFF7EAFF002404E06B461B5D2B550134E4B2684603F0C4F88442F5D303B030BD10B584B002A8FFF7D7FF75236A4613706B3B9371012405E0631E02AAD35C6A465B
:4005C0001355013402A803F0ABF88442F4D3002404E06B46185D00F067F90134684603F09FF88442F5D304B010BDC04630B587B0144B1B78022B22D1134B1B78002B1ED059
:4006000001AD05220021280002F0EAFB2800FFF7B3FFFFF7C5FF03AC1223238103950D3BA3800A4D00232A000021200012F0E8FD2B78687800021843210011F06FFB07B0C1
:4006400030BDC04672220020D81000207822002010B500F0E5FE0400430309D5064B1B78022B03D1FFF77EFEFFF7C0FFFFF730FF200000F0DFFE10BD7222002010B50248A3
:4006800001F02CF910BDC0465106000010B500F029FE8020400200F06BFE00F015FE10BD10B5022000F0C6FE00F01CFE8020400200F07CFE012000F0A3FD0121022000F03D
:4006C0003BFE034B186800F093FE00F0FDFD10BDE879010010B5FFF7D1FFFFF7E1FFFFF7D5FF10BD10B50A00002102F079FB10BD064B1B68002803D080221206134301E07E
:400700005B005B08014A13607047C04680033A4010B580231B060F4A136003220E490A600E480F4908600F480F4908600C200F4908600F490A600F4A13600F4B0F4A13607B
:400740000F4A136000220F4B1A600B38FFF7D0FF10BDC046000030403000304004012400800030400201240088003040C00030403000314000003A403000400000033A405C
:4007800040033A40000E3F4010B502F0E5FA03680C2B00D1FEE7FEE710B50300094A1068C318094A9A1A802189008A4202DC054A136005E002F0D0FA0C230360012040423B
:4007C00010BDC046A40B0020C022002070B50F4E0F4D13E029686B68AC68002202E001C901C30432A242FAD1E868002202E0002102C304328242FAD11035013E002EE9D12A
:4008000002F0B0FAFFF72EFDFEE7C04601000000C07F010010B50E4A136801218B43136000230AE0032B03D89A000A49505800E009489900094A885001332F2BF2D9FFF7E5
:400840005FFC034A116801230B43136010BDC0460000104000000000890700000000002010B500F083F810BD10B500F02BF810BD10B5044A1368802109060B431360FFF708
:40088000EFFF10BD0000244010B5064B1B78002B04D1FFF7E9FF0122024B1A70FFF7E8FF10BDC046DA100020044B1B681F221340082BF9D0024B18607047C046080224408C
:4008C00040022440154A164B1A600023154A13601549164A1160164A16490A6007201649086016490B6006381549086015490A60154A13600421154A1160154A1360154A4F
:400900001360154A1360154A1360154A1360154A13601268144B1A807047C04607000002000024404000244001000A00480024400700008000032440040324401003244034
:4009400044002440000224400402244050002440880E2440C80E2440480F2440080F2440C80F2440880F2440DC100020064A1168064B0B40902109040B431360044B1A88CA
:40098000044B1A607047C04600010240FFFF0FFFDC100020880F244010B500F083FA10BD10B50024064B1C70064B1C70064B1C70FFF7F2FF054B1C70054B1C7010BDC0466A
:4009C0007B220020742200207A2200205C2200206422002010B590B00400142220490BA802F0F5F920231F4AD35C002B05D1FFF7D7FF012120231B4AD154002C2DD01A4B24
:400A00001C6008A805AA426006AB0893002101811B311980598017391971002313701231694405F079FE002818D1104B0293104B0193052300930BABAE2212010D490E48C0
:400A400005F0C0FD002809D101220C4B1A7009321E210B4812F0BCFB00E0012010B010BD407A0100E0100020602200207902000000880100C0000020E10B000072220020B9
:400A8000547A010010B502282FD81C4B1B78042B2DD11B4B1B785B072CD4002809D1194B00221A862032596A0A805B6A10325A800CE001280AD1134B96221A86C822D200E5
:400AC000596A0A805B6A8022D2015A800E4B18700C4820300FF07AFF00280DD1084A117804230B43DBB2137006E0012004E00420FF3001E00420FF3010BDC0467222002039
:400B00007B220020A80B00207A2200207047C04603784078000218437047C04670B5050083890F2B1FD1043031332A00002112F067FB041E11D16868FFF7EAFF830706D5A0
:400B40000A4B1B68290082204000984705E0074B1B6829000620FF309847054A137801218B43137000E00024200070BD602200207B220020024B00225A701A707047C0461F
:400B80007822002010B582B00400FFF7C7FF0A4B1B78DB070ED4002809D001A912238B70A3890B80C870206811F07AF802E0206811F000F902B010BD7B2200208379002B8C
:400BC00007D000200BE0C25C002A07D10133DBB200E00023052BF6D9002000E001207047F0B583B004000D009B4A117801230B43DBB21370272800D1C1E012D8062800D1D5
:400C000085E004D8012821D005287CD012E1242800D1B0E0262800D1B9E0212800D009E189E0422800D1F1E006D8282800D1AAE0412800D1D3E0FDE04C2800D1F1E0FA2885
:400C400000D1F2E0432800D0F4E0E2E001AE0827377000237370300007F068FC377001237370300007F062FC05F072FC7B4B1E683000FFF7A3FF00280CD0300005F074FCA7
:400C8000764E00213068FFF741FF30680121FFF73DFF2AE0724B1F78724B18788001FC263601020032403F21394011436E4B1B781B03F8225202134019436C4B1B785B043F
:400CC000FE22120413400B43694E33701A0A72701B0CB370300005F047FC00213000FFF715FF01213000FFF711FF00200FF000FD01A83F230370002343700FF017FD0422AF
:400D00005C4B1A7096E02A785B4B1A7092E02B78002B00D08EE06B78002B06D1574B0022DA809A80564A1A606B604B4A137801218B4313707EE0484B1B789B067AD4514B18
:400D40001B78102B02D105224E4BDA704E4B18784C490FF0F9FD01AB1880002804D04B4B1B6801A9362098473B4A117801230B43DBB213705EE06A78454B1A705AE00222B5
:400D80003C4B1A7056E004223A4B1A7052E0394B1B78022B4ED0304A1278D2074AD52E4A1278520708D50322324B1A702A4A137804218B4313703DE0274A1278120708D540
:400DC00004222C4B1A70244A137808218B43137030E0032B2ED10422264B1A702AE02A4E02222900300001F0F2FF0022224B1A7033789A00D21853002649C918264B9C46DC
:400E000061440A22254801F0E2FF13E0FFF7B2FE10E06988162900D91721288810F04AFF08E02800FFF7AEFE04E01D4A117801230B431370084B1A7811231A4209D0064AC6
:400E4000137801218B431370104B1B6829002000984703B0F0BDC0467B220020DC0B00207CF1FF0F7DF1FF0F7BF1FF0F78F1FF0FE00B0020722200207422002004110020B2
:400E8000A00B0020A40C00207822002060220020642200200088010079020000682200205C2200207047C04610B500210F2000F081F942490F2000F06BF90F22404B1A60C9
:400EC000404B1B68002B01DA3F4900E03F49404A13680B4313603F4A3F4B1A603F4A404B1A6000233F4A13603F49404A11604049404A1160404A116880204002014311604D
:400F00003E490A6802430A603D4A13603D4A136001223D4B1A603D4A11683D4B0B40802189050B431360002445E03A49A2005058DC239B0103400919097C0B4336498C46F3
:400F400062441360C30707D52D490A680123A3401B041B0C13430B60A3002E4A9B589B0707D528490A680123A3401B041B0C13430B60A300274A9B589A0502D58020C00062
:400F800001E080204001DB0504D463000021234A995203E04208630020495A52204B5843204B9C466044204900F0F6FF00B2A2001E4BD0500134032CB7D910BDE51000005E
:400FC00020003A4080033A40702010137020001300003A4085000A8004003A400000FF0718003A401C003A4002000A0010003A400200020014003A4000033A4040033A406D
:4010000028023A4038023A4018023A4030003A40FEFFFFDFB47C010080003A408C22002010270000E40C0000C81900007C22002010B5094B1B68002B0CDB084B1B68002BD1
:40104000FBDB054A1368802109060B4313600A2000F0EEF810BDC04600003A4008023A4010B5064B1B78002B04D1FFF71DFF0122024B1A70FFF7DCFF10BDC0460C110020F8
:401080000122014B1A60704724003A407047C046020083070CD0074B1B680120184001D19307F8D4002804D00122024B1A6000E00020704710023A4010B50400032802D94F
:4010C000002000F063F8032C07D8A400044B9C46644420680004000C00E0002000B210BD80013A40014B1A681A60704710023A4010B586B0040000F008FC0E4B1B680093FB
:401100000D4B1B680193033C0C4B1B5D02930C4B1B68039304AA0B4B04936B4605930A4B1A600A490A4A11601B6800F0F2FB06B010BDC04608010B4000010B40C87C010094
:4011400030001040B6EA0000080010401700008004001040024B1B68012018407047C0460C002E401F2318401E3B8340014A13607047C04600E100E01F2318401E3B8340E4
:40118000014A13607047C04680E100E001BE704770B504000D001F2802D90020FFF7F6FF1034A40080239B059C4664442068256070BDC04670B504000E00032902D9002047
:4011C000FFF7E4FF1F2C02D90020FFF7DFFF03252540ED00063500F098FBA408A400074B9C46644421680323AB4099430B003100A9401943216000F08CFB70BD00E400E0B8
:4012000010B5040006E0084B586800F075FB074B9C46644480231B029C42F4D8024B9868604300F069FB10BDAC0C00200080FFFF10B5034B1B7B584300F05EFB10BDC0467F
:40124000AC0C002010B504000F4A116801230B4313600E4A0E4B1A600E4A1368802109020B431360002809D100200CE00120FFF7DFFFFFF76FFF002804D1013C002CF5D118
:40128000102000E0002010BD60F02E400220000078002E4010002E4010B500F036FB044A136804218B43136030BF00F032FB10BD10ED00E0034B1868C0231B02184000D02C
:4012C0000120704700010B4010B500F01EFB044A1368C02109020B43136000F01AFB10BD00010B4010B500F010FB08490A68084B1A408024E40122430A600A681340802279
:40130000120213430B6000F004FB10BD00010B40FF3FFFFF10B50400022802D90020FFF735FF044B1868E4000134E0400123184010BDC04610020B4070B504000D00022868
:4013400002D90020FFF722FF2000FFF7E3FF00280AD1064A1368E40003210800A04083430D40A5401D43156070BDC0460C020B4010B504000C4A136803431360C30704D556
:401380000020FFF7C7FF0028FAD0E30504D50120FFF7C0FF0028FAD0E30304D50220FFF7B9FF0028FAD010BD10020B4010B50400FFF780FF002818D10C4A1368A3431360B2
:4013C000E30704D50020FFF7A5FF0028FAD1E30504D50120FFF79EFF0028FAD1E30304D50220FFF797FF0028FAD110BD10020B4010B504000220FFF78DFF00280AD10649CC
:401400000868064B02001A402006F8235B0518401043086010BDC0460C020B40FFFFFFE0024B1868024B18407047C04610020B400404040070B5050000F067FA0400FFF7C5
:4014400039FF002803D0FFF74DFF012100E0002108482840084A1568084B2B40184310601368012901D1FFF72FFF200000F051FA70BDC0460404040010020B40FBFBFBFF42
:4014800010B50A20FFF76EFE10BDC04610B500F01DF810BD10B5044A1368802109060B431360FFF7EDFF10BD0000254010B5064B1B78002B04D1FFF7E9FF0122024B1A70DD
:4014C000FFF7E8FF10BDC0461011002010B50024184B1C60184A194B1A60194B194A1360194A1460194A1460194A1360194B1C600A20FFF741FE00210A20FFF75BFE1649FD
:401500000A20FFF745FE154B1C60154B1C60154B1C60154B1C60154B1C60154B1C601022144B1A70144B1C80144B1C60144B1C6010BDC04600002540770800806000254058
:4015400007010080000325400403254010032540000225400402254019190000C80E2540880E2540480F2540080F2540C80F2540880F2540942200209C220020AC2200204B
:40158000B022002010B50E4A13685B005B08136000230C490B600C490B600C4804680C49214001600B490B600B490B6010210B4B19701368802109060B43136010BDC046A9
:4015C00000002540680025406C00254060002540FF5CFFFF880F2540C80F25409422002010B50A20FFF7C8FD0022054B1A60054A138801218B4313800A20FFF7B3FD10BD1C
:40160000AC2200209C22002010B50A20FFF7B4FD074B1C88A2B21400064B1B789B0602D504231A4394B20A20FFF79CFD200010BD9C2200209422002010B50A20FFF79CFDEC
:40164000044B1C88A4B200221A800A20FFF78AFD200010BD9C220020054B1B682022134000D0082301221343024A13607047C0466400254068002540F0B583B001900C0090
:4016800017001D00002917D02F4B1B78102B08D10A20FFF771FD2D4B1B68DB070ED508260FE0294B1B78602B0AD1294A138808218B431380002604E0042602E0002600E039
:4016C0000426002E39D129221F4B1A700022214B1A60214A1760214B1C60EBB220490B70019B5C00FF231C400120044318490B8883430B801B491C4B19601421FF311B4BC4
:4017000019601368072B03D80422194B1A6008E0184A1368802149000B4313600822144B1A60EB0704D5FFF797FF134B1C6004E0114B1C600222114B1A600A20FFF712FD1B
:40174000300003B0F0BDC04694220020640025409C220020AC220020A0220020B4220020B822002017030000000F2540080F2540C80F254060002540400225406800254017
:401780000323064A136080210906054A11600421044A1160044A13607047C046181100200000304004003040080F3040044A1168044B1B680B43802109010B4313607047B0
:4017C000040030401811002010B5064B1B79002B04D1FFF7D5FF0122024B1A71FFF7E6FF10BDC046181100200222064B1A6080221206054B1A600422044B1A60013A044BDA
:401800001A607047201100200000304008003040140F3040044A1168044B1B680B43802109010B4313607047080030402011002010B5064B1B79002B04D1FFF7D5FF012241
:40184000024B1A71FFF7E6FF10BDC0462011002004490A68D2B240239A438001184010430860704700020440024B186880090123184070470402044004490A687F231A40EF
:40188000C301D8B2104308607047C04600030440014B18667047C0460000002010B5040000F033F8044A1368C0218B43A4011C43146000F02EF810BD08E400E080225200FD
:4018C000014B1A607047C04600E100E080225200014B1A607047C04680E100E010B50400FFF7F4FF2000FFF7D3FF0320FFF7D6FFFFF7E4FF10BDC0460230800803D00138F2
:40190000FDD1C046C046C0467047EFF3108072B6704780F31088704710B5AF4B1B68002B00D09847AD4B1B68DB0702D50022AC4B1A60AC4B1B789B0628D5AB4B1B68DB0599
:4019400007D5AA4A1188C0239B000B431380012300E00023A44A1268D20706D5A34A118890239B000B4313800123002B0FD09D4A1278D20701D5012200E002229B490888BE
:4019800002430A800021974A117000E00023954A1278920600D417E1934A1268D20611D51022934B1A608F4B1B78DB0701D5012300E002238D4A11880B4313801022894BC1
:4019C0001A7007E1874A1278120720D5864A126892070AD50222864B1A60844A118888239B000B431380012311E07E4A1278D20703D525217B4A117009E02421794A117037
:401A00007C4A1268002A02D014397B4A1160754A1278520700D4AEE0724A1278D20749D5764A1268120727D5754A1268754909681F240C40744909686418141B082C09D872
:401A4000002C16D1714A1168714B0B401360012308340EE008240CE06B4A11686D48006841186D480068C0B20870116801311160013C002CF0D119E0604A1268520715D5EE
:401A8000614A116863480068411863480068C0B208701168013111601168594A1268914203D204215D4A116000E001235C495D4A116060E04C4A1268920726D502224C4BA2
:401AC0001A6059490B681D321A40096880231B020B4000D001239B18544A1168CB1A13601268534B1A60414A118884239B000B431380504B1A68802149020A431A601968F2
:401B00004D4A0A401A60012335E04C4A1268D2061ED427E0454A1168364A126891421DD2344A1268013A414909688A4204D1402243490A6030490A603C4A11684148006872
:401B400041180978C9B240480160116801311160354A12681F210A40082ADBD11021384A116008E0354A1268520604D52F4B1A682F4B1A600123002B2CD0244A1168244BE3
:401B80000B4013600023314A13601B4A1360304B1B789B070ED5134B1B78DB0701D5092300E00A23114A11880B43138060220D4B1A700FE0274B1B689B0601D5182200E05B
:401BC0001022164B1A6005E0064B1B78DB0601D4FFF7D8FC10BDC046141100208C0E2540880E2540942200200C0F25409C220020000F2540A8220020880F2540CC0F2540AF
:401C0000A022002008032540AC22002060002540FFFEFFFFB42200204003254068002540ED0F0000C00F25400802254098220020B022002004022540FFFFFEFF8C0F254068
:401C4000800F2540A422002040022540C80F2540B8220020640025400160704701607047324B1A781202324B1B781A43314B1B781B02314909780B4330498B4201D1072A66
:401C800006D0D42109018B4206D1042A04D102E02B4B042200E02A4B2A490B602A4B1A602A4B1B781B022A4A1278134380229201934202D0002B02D002E0264B00E0254B13
:401CC000254A1360254B1B781B02254A12781343244A934205D0244A934204D0052B05D103E0224B02E0214B00E0204B204A1360204B1B681B09204A1268AA2A15D1012BBC
:401D000013D9164B1B780E2B0FD11C4B1B781B021B4A127813431B4A13601B4B1B781B021A4A127813431A4A13607047D9F0FF0FD8F0FF0FDFF0FF0FDEF0FF0F580B0000C5
:401D4000580D00006C002E4074002E40DBF0FF0FDAF0FF0F0220000078002E40DDF0FF0FDCF0FF0F0F0F000005050000050F000080002E40EC0F00F0E00F00F06DF2FF0F73
:401D80006CF2FF0F84002E406FF2FF0F6EF2FF0F94002E4010B5FFF74BFA10BD10B5FFF72FFA10BD10B500F04BF810BD10B500F04FF810BD10B500F04BF8034800F02AF885
:401DC000022000F02DF810BD7D1E000010B5024800F046F810BDC0467D1E00000220FF307047C0462B2070472B2070472B2070472B2070472B2070472B2070472B2070477D
:401E00002B2070472B2070472B2070472B2070477047C046014B18677047C0460000002010B50400FFF771FD044A1368C0218B43A4011C431460FFF76CFD10BD0CE400E01C
:401E400080225201014B1A607047C04600E100E080225201014B1A607047C04680E100E010B50400FFF7F4FF2000FFF7D3FF0220FFF7D6FFFFF7E4FF10BDC04610B515F073
:401E800097FD10BD002243088B4274D303098B425FD3030A8B4244D3030B8B4228D3030C8B420DD3FF22090212BA030C8B4202D31212090265D0030B8B4219D300E0090AEB
:401EC000C30B8B4201D3CB03C01A5241830B8B4201D38B03C01A5241430B8B4201D34B03C01A5241030B8B4201D30B03C01A5241C30A8B4201D3CB02C01A5241830A8B4238
:401F000001D38B02C01A5241430A8B4201D34B02C01A5241030A8B4201D30B02C01A5241CDD2C3098B4201D3CB01C01A524183098B4201D38B01C01A524143098B4201D3AB
:401F40004B01C01A524103098B4201D30B01C01A5241C3088B4201D3CB00C01A524183088B4201D38B00C01A524143088B4201D34B00C01A5241411A00D2014652411046B9
:401F80007047FFE701B5002000F0F0F802BDC0460029F7D076E7704703460B437FD4002243088B4274D303098B425FD3030A8B4244D3030B8B4228D3030C8B420DD3FF22F3
:401FC000090212BA030C8B4202D31212090265D0030B8B4219D300E0090AC30B8B4201D3CB03C01A5241830B8B4201D38B03C01A5241430B8B4201D34B03C01A5241030BAF
:402000008B4201D30B03C01A5241C30A8B4201D3CB02C01A5241830A8B4201D38B02C01A5241430A8B4201D34B02C01A5241030A8B4201D30B02C01A5241CDD2C3098B42AC
:4020400001D3CB01C01A524183098B4201D38B01C01A524143098B4201D34B01C01A524103098B4201D30B01C01A5241C3088B4201D3CB00C01A524183088B4201D38B0006
:40208000C01A524143088B4201D34B00C01A5241411A00D201465241104670475DE0CA0F00D04942031000D34042534000229C4603098B422DD3030A8B4212D3FC2289014B
:4020C00012BA030A8B420CD3890192118B4208D3890192118B4204D389013AD0921100E08909C3098B4201D3CB01C01A524183098B4201D38B01C01A524143098B4201D353
:402100004B01C01A524103098B4201D30B01C01A5241C3088B4201D3CB00C01A524183088B4201D38B00C01A5241D9D243088B4201D34B00C01A5241411A00D2014663468C
:4021400052415B10104601D34042002B00D54942704763465B1000D3404201B5002000F005F802BD0029F8D016E770477047C046F0B5564644465F464D46F0B444024600F3
:40218000C70F83B08846650A360EBA463DD0FF2E22D00023EC00802599469B46ED0425437F3E43465C025800DB0F640A000E984636D0FF2830D080230021E400DB041C4349
:4021C0007F38301A0190484642460843724E800030587A4013008746002D44D108239946063B9B46DDE70122FF2000241A406402C305640AD2071C431443200003B03CBCA2
:4022000090469946A246AB46F0BD002D20D104239946033B9B46C4E7002C17D1022102E0002C0AD10121321A01924A4643460A435A48920082587B409746200000F06EFDCD
:40224000431F76309C4040420021BAE70321B8E7280000F063FD431F9D4000237630464299469B469DE70C239946093B9B4698E780240022E403FF20B9E70024C2468B460C
:402280005A465346022AAED0032A7DD0012A31D1012200201A400024A9E70122101A1B2856DD1A4000200024A1E78023DB031D424BD18023DB032B435C02640A3A00FF204A
:4022C00095E76D016001854230D2019A0024013A01921B220127290064006D00002901DBA84201D82D1A3C43013A002AF3D16A1E95412C4301987F300028CEDD620704D002
:402300000F222240042A00D00434220103D5244A019814408030FE2800DD64E70122A401640AC0B21A4062E72C00A9E72D1A1A220124CFE76B02BCD500248023DB031C4319
:402340006402640A4246FF2051E71C42B3D1F4E721002022C140101A8440621E94410C43620704D00F222240042A00D00434620104D5012201201A40002438E70122A4010C
:40238000640A1A40002032E78023DB031C436402640A5246FF202AE7F87C0100387D0100FFFFFFF7F0B557464E4645464300E0B446028846760A1F0EC40F002F47D0FF2F3F
:4023C00025D0002380259A469946F600ED042E437F3F434642465D02D20F5B006D0A1B0E904640D0FF2B39D080220020ED00D20415437F3BFB1842465746591C62408C462E
:4024000007430F2F5CD86F49BF00C9598F46002E45D108239A46063B9946DAE7424602282DD0032800D1C3E0012800D0A2E0002500260240D4B27602ED05760A2E43E40720
:40244000264330001CBC90469946A246F0BD002E1AD104239A46033B9946BAE72A00511E8A41901CC6E70120002DC3D0280000F055FC431F76309D4043420020BAE701246C
:40248000FF2514400026D6E7300000F047FC431F9E400023763047429A46994699E70C239A46093B994694E780260024F603FF25C1E735004846B2E7350022004846AEE77B
:4024C0002904090C0800370C3604360C2C0C7943704367437443060C64183619B14203D980214902884647440004000C310409188D01681E8541890E2943350CED19AD01A2
:402500000D43290104D5012369081D4063460D4319007F31002925DD680704D00F202840042800D00435280103D5274980330D401900FE29A3DC0124AD016E0A1440CDB20C
:4025400079E78020C003064207D0054205D128434602760A4446FF256DE706437602760AFF2568E70124611A1B2905DD14400025002660E76346CBE72E002023CE40591A7A
:402580008D406B1E9D412E43730704D00F233340042B00D00436730104D5012401251440002648E70124B601760A1440002542E780260124F6032E437602760A1440FF2566
:4025C00039E7C046787D0100FFFFFFF770B5041E28D000F0A3FB9E231B1A962B0ADC9622D21A94406202520AD8B25202520AC005104370BD992B18DC9922D21A9440114A1C
:402600002240610704D00F210C40042C00D00432510103D50B4B1A409F231B1A9201520AD8B2E2E700200022DFE705222500121AB921D5402200C91A8A40541EA2412C0078
:402640001443DCE7FFFFFFFBF0B556464D4644465F46F0B41D000E034C00CB0F87B0070092468146360B640D98466AD06D4B9C4235D08022430F12041343F6001E43C30091
:402680009946694B00279C460023644402932B0368001B0BED0F51469B46400D009500D178E0604B98426CD05B46DA004B0F802109040B4313439B465346D9005A4B9C4621
:4026C000002360444246201A6A40924601901F430F2F00D9B0E05548BF00C0598746374300D088E0002399460233082700260293CDE74346B34649460093029B009A9246B9
:40270000022B00D0BFE1002153460122002689461A40444B002136030C0D2405360B2643434C1B0526401E437600D207760816434846310007B03CBC90469946A246AB4663
:40274000F0BD330003434FD0002E00D1BCE1300000F0E4FA03000B3B1C2B00DDADE11D220100D31A08393A008F408E40DA40B9461643304B00279C46002360444442029362
:4027800085E753465A4613432CD1002300219B46023397E70B4320D05B46002B00D19EE1584600F0BBFA03000B3B1C2B00DD8FE102005946083A91408B461D21CB1A514690
:4027C000D9400B0059460B4351469B469140194B9C4660444042002374E7002300219B4601336FE703236DE70023994601330427002602934BE703230C27029347E70122DF
:40280000D51A382D00DCB0E153461A4000210023002689467EE700238026994600223603004B77E7FF07000001FCFFFFB87D0100FFFF0F80F30300005E4500D972E100D140
:402840006DE1019B4D46013B01930023340002935B461E020B0E1E430B020393330C994633041B0C494620000093FFF70BFB009B370043430600494620009846FFF788FB23
:402880002C0C09040C43A04509D9E419731EA74200D95CE1A04500D859E1023EE4194346E41A49462000FFF7EDFA0300009A80465343494620009B46FFF76AFB2A040904CA
:4028C000120C0A4393450DD94346D219013B974200D93AE1934500D837E102235B429C46D219E0445B46D21A4346360433439B460399180C0B0C1D00059309045B46090CC1
:402900000C001B041B0C4443049159436B4368431B190D0CEB189C4203D980246402A44660441C0C09041B04090C20185D18824200D2DEE000D1D7E0161A029B9C465D1B79
:40294000AC459B415B42F61AB74200D106E149463000FFF797FA009B04004343494630009846FFF715FB2E0C09040E43B04509D9F619631EB74200D9F3E0B04500D8F0E0DD
:40298000023CF6194346F31A494618000293FFF779FA009B06004343494602989846FFF7F7FA2D0409042D0C0D43A84509D9ED19731EAF4200D9D6E0A84500D8D3E0023E15
:4029C000ED192404210043463143049E059A3000ED1A0B040C0C1B0C58436643534354439A19030C9B189E4203D980225202944664441A0C00041B04000C14191B18A5420F
:402A000050D34DD001231943964A019B94466344002B00DCF3E64A0709D00F220A40042A05D00A1D8A42894149428B4411005A46D20108D55A468C4B1A4093468022D200BB
:402A40009446019B6344894A934200DD5BE65A46C908500708435602514601225B058146360B5B0D0A4055E680231B031E4211D05A461A420ED15E461E433603360B2A0073
:402A800089467B4B46E6032B00D1E1E0012BBBD11A40BBE61E433603360B4246744B39E6002BB1D07D194A1EAF4252D91100A542A8D1039A9A42A5D1A6E703003E00283B4A
:402AC0009E400023994654E600F028F9203041E603005246283B9A400021934677E6504600F01CF920305EE6029B0026AB4200D323E7039E0299B44661448846B045B641B4
:402B00005B467642F619B218013B0291974213D290424FD800D18EE0161A9B460DE7894500D28EE674084B46F60735005B081D434B46DB0702938BE69742EDD10399029C39
:402B4000A142E5D93E1A9B46F7E69846CAE61E00A5E6AC423ED874D0110053E70121494252E71C000EE71E002BE71F2D3CDC20230A0058465B1B9840EA4099400243481E62
:402B800081415E461143EE404B0709D00F230B40042B05D00B00191D99429B415B42F61833023CD55346012200211A40002601238946AFE502235B429C46039CE344A44660
:402BC000029B63449846A045B6417642F6190293B218B1E603988A1E41008142B6417642F619AD19039161E71F225242D31A5A46DA401300202D29D040225846551BA84046
:402C00000143481E814107200B4318400026002809D00F2200261A401900042ABBD10B0070077602360BDB0803439946012253461A4000236EE502998D42BBD89B460026DD
:402C40007BE603989842C5D3110032E70020D7E780265B4636031E433603360B009A8946034B57E5FF030000FFFFFFFEFE070000FF0700004200120E511C4302C9B270B5D4
:402C80005D0AC40F012915DDE02189008C466D071B0B6244002128000D0D2D052B431C4D52052B40520813435B00E4075B082343190070BD002A15D1002D1FD0280000F0AB
:402CC0002DF80A281DDC0B232A001B1ADA4013000200153295400F4A1B03121A52051B0B520DD7E7002D06D080221B0B120313436D07094ACEE7084A0023CBE70022002351
:402D0000C8E703000B3B9D402B000025E3E7C046FFFF0F8089030000FF0700001C2101231B04984201D3000C10391B0A984201D3000A08391B09984201D30009043902A222
:402D4000105C40187047C04604030202010101010000000000000000014B18687047C046781000200E4B70B500251E000D4CE41AA410A54204D0AB00F35898470135F8E721
:402D800015F00CF9084B00251E00084CE41AA410A54204D0AB00F35898470135F8E770BDA87F0100A87F0100A87F0100B07F010030B50024A24208D0035D651C0C5DA342FF
:402DC00001D0181B02E02C00F4E7002030BD002310B59A4203D0CC5CC4540133F9E710BD03008218934202D019700133FAE77047F0B58BB014001D1E129906DA8024240600
:402E00001B191D0014002D2300E000230B702023149E03229E43462E07D03300453B59424B411099013ACB18109309AB049308AB0393139B00920293109B220001932B00E0
:402E400000F0FCFC0700472E02D1119BDB072DD5109BFB180793462E14D13B78302B0CD1002200232000290002F040F8002804D10123109A9B1A139A1360139B079A1B68C5
:402E8000D3180793002200232000290002F02EF83022002802D0079B099307E0099B0799994203D9591C09911A70F7E73800099B159ADB1B13600BB0F0BDF7B52B230700A7
:402EC0000C000270861C002901DA2D234C427B70092C1CDD6B46DD1D20000A21FFF742F9013D3031297020000A21FFF755F804000928F1DC013D30342C706B46073330006F
:402F0000AB4209D92B78013533700136F5E73023E4183370B01C7470C01BFEBDF0B595B00C000A920B931A9D099001F04DFA036818000D9300F0F4FB0023129323680E9050
:402F40000C930C99277E2B680722C90501D59B1800E0073393431A0008322A601A685B68A264E3640122E56CA66C6B005B080F935242C04B30000F9903F0EEF9002819D19C
:402F80000122BC4B524230000F9901F0BFFF002810D1002200233000290001F0ADFF002803D023002D2243331A70B34D472F0ED8B24D0CE032002B003000290003F0CCF966
:402FC000002800D19AE1AE4D472F00D8AD4D03230C9A236101339A432260002642E0672F00D193E1472F00D190E10C9A0021134312AA059211AA03922322236006910193A9
:4030000008A9636852180292009332002B0004970998FFF7EDFE20233A0005009A43472A00D18EE11199652F00D996E1200001393A0050301191FFF740FF129A0600831833
:403040002361012A00DD85E12268D20700D581E1232308AA9B181B78002B03D023002D2243331A700B9B13AA009321000A9B099800F0A4F9431C02D1012040429BE1226851
:40308000530501D4236964E0652F00D8CCE0A06CE16C0022002301F029FF00282CD00123794A0A9909980B9DA847431CE4D0119B129A934208DB2368DB0705D42368002545
:4030C0009B0700D50FE113E10B9D0E9B0D9A0A990998A8470025431CCED0129B013B9D42ECDA220001231A320A9909980B9EB047431CC1D00135F0E7119B002B2BDC012325
:40310000614A0A9909980B9EB047431CB4D0119B002B05D1129B002B02D12368DB07CDD50B9E0E9B0D9A0A990998B0470026431CA2D0119B5B429E420ADA220001231A32EC
:403140000A9909980B9FB847431C95D00136F0E7129B2A00ACE0A36D129E9E4200DD1E00002E05DC00230C93F343DB170F9315E033002A000A9909980B9FB847431CF1D197
:403180007AE7220001231A320A9909980B9FB847431C00D170E70C9B01330C930F9BA26D0C993340D31A9942EBDBAE18119B129A93420DDB2368DB070AD4129B119AED184C
:4031C000AD1B9B1A9D4200DD1D00002D09DC11E00E9B0D9A0A9909980B9FB847431CECD14AE72B0032000A9909980B9EB047431C00D141E7EF43FB1700260C930AE022003E
:4032000001231A320A9909980B9FB847431C00D132E70136119A129B0C999B1A2A000A409B1A9E42EBDB49E7129B012B02DC01231A4245D001232A000A9909980B9FB84779
:40324000431C00D118E70E9B0D9A0A9909980B9FB847431C00D10FE7A06CE16C0022002301F044FE002801D000251AE0129B6A1C013B26E0FFFFEF7FFE7D0100FA7D0100FE
:40328000067E0100027E01000A7E0100220001231A320A9909980B9FB847431C00D1EBE60135129B013B9D42F0DB2200330050320A9909980B9DA847431C00D0FEE6DBE6B0
:4032C0002A000A9909980B9DA847431CEDD1D3E62200012319320A9909980B9EB047431C00D1C9E60135E368139A9B1A9D42EFDB139BE06898425EDA18005CE0802362684A
:40330000DB00511C00D06AE6073202E0002A02D10122626069E60C9908A80B430021069112A9059111A90391232109182360019300922B000497029132000998FFF758FD5A
:403340000500119BDA1C02DB626893421CDD023FFFB267E6013323617AE6662F15D16368002909DD2161002B02D12268D2071ED50133591821611AE0002B03D101222168E3
:40338000114213D09A1C11E06727119B129A934206DB22682361D20709D50133236106E00121002B01DC4918C91A8A182261119B0026A3654CE615B0F0BDC046F7B5170057
:4033C00001938A680B6900900C00934200DA130022003B6043321278002A01D001333B6023689B0602D53B6802333B60062523681D401ED0230043331B785A1E9341226876
:4034000092061CD53020E1184331087021005A1C45310978A2184332023311700FE022000123193201990098089EB047431C0ED00135E3683A689B1A9D42F0DBDAE722006A
:40344000019943320098089DA847431C02D10120404220E006232068E1683A6803400025042B03D18D1AEB43DB171D40A3682269934201DD9B1AED180027BD420AD02200EC
:4034800001231A3201990098089EB047431CDED00137F2E70020FEBDF0B58BB006920A0043320793059004920A7E0C00109B6E2A00D1ABE011D8632A22D009D8002A00D1A1
:4034C000B5E0582A00D0C5E045310A70814A4FE0642A1DD0692A1BD0BCE0732A00D1AAE009D86F2A29D0702A00D0B3E0202209680A43226037E0752A1FD0782A33D0A9E004
:403500000E001A684236111D196013683370A4E021681A68080606D4490604D5111D19600023D55E02E0111D19601568002D3BDA2D23049A6D42137036E021681A6808068B
:4035400006D4490604D51568111D1960ADB202E0111D196015685F4B227E039308276F2A1DD00A271BE022007821453211705A4A19680392081D226818600D68100602D40A
:40358000500600D5ADB2D30702D520231A4322601027002D03D1202322689A4322602300002243331A7002E00A274A4B03936368A360002B09DB0422216891432160002DB9
:4035C00005D1049E002B11D07BE0002D79D0049E28003900FEF7DCFC039B013E5B5C280033703900FEF74EFC051EF1D1082F09D12368DB0706D563682269934202DC302335
:40360000013E3370049B9B1B23612BE009681A68080607D4490605D5111D19601368A28A1A8004E0111D1960136862691A600023049E236116E01A68111D19601668002185
:403640006268300000F0CEFE002801D0801B6060636803E0260042363270012323610023049A1370079B09AA00932100069B0598FFF7A4FE431C02D10120404227E023691F
:40368000320006990598079DA847431CF4D0236800259B070FD4099BE068984217DA180015E022000123193206990598079EB047431CE1D00135E368099A9B1A9D42F0DBF1
:4036C000E9E72600039B42361B7833708EE70BB0F0BDC0460C7E01001D7E01000EB410B59DB002A9029008610B48822488604861012040421FABC881084804CBA400006899
:4037000001938C8101F080FA0023029A13701DB010BC08BC03B01847FFFFFF7F781000200023C25C0133002AFBD1581E7047F0B503690C6989B00700059100269C4279DC5B
:403740000B00013C1433A50003935B1904930300143302935D19049B28681B68591C0193FEF790FB0190B04233D0039B02989C460696634604CB9C46019B91B25943120CB5
:403780005A4389190B0CD3180793069A1E0C038889B29B1802685B1A110C6A46928B8A1A1914521811149BB21204134308C0049B06916345DDD22B68002B0AD1029B043D3D
:4037C000AB4201D33C6104E02B68002BFAD1013CF4E70599380001F021F8002829DB0020019B02990133039A019340CA0B881818B3B2C31A0868360C000C801B1D14451927
:4038000028149BB22D042B4308C1049B9342ECD2029AA300D3181A68002A0AD1029A043B9A4201D33C6104E01A68002AFAD1013CF4E7019E300009B0F0BD0000F0B5160029
:403840001F00446A9DB00490259D06960797002C08D1102000F0BCFD049B5862446084600460C460049B5B6A196800290BD05A68012393404A608B60049800F0F6FD00227F
:40388000049B5B6A1A60079B002B05DA01232B607B005B08079301E000232B60079CC84B220019931A409A4219D1C64B249A1360069AC54B002A02D1240300D1C34B269A6F
:4038C0001800002A01D100F07DFDD978DA1C002900D00532269918000A6000F073FD069E079F002200233000390001F0FFFA051E0ED00123249A1360B54B269A1800002AF8
:4039000001D100F05FFDB34A26990A6000F05AFD1AAB01931BAB009332003B00049801F003F8630005905B0D09D03A03AA4C120B1443AA4A300021009E1817951AE01A9B1F
:403940001B9A9E18A64BF318202B08DDA54A0698B218D0404022D31A9C40204303E020220698D31A984002F08FFD01239E4C013E0919179300229D4B02F09AF99C4A9D4B3F
:4039800001F01CFF9C4A9D4B01F0DEFA040030000D0002F037FD9A4A9A4B01F00FFF02000B002000290001F0CFFA04000D0002F0F3FC0022039000232000290001F09CFA8B
:4039C00000280DD0039802F01DFD02000B002000290001F08BFA43424341039AD31A039301231693039B162B11D88749DB00C91808684968069A079B01F092FA002805D028
:403A0000039B013B03930023169300E016901A9B9E1B00230B93013E0C9604D50C9B5B420B9300230C93039B002B08DB039A0C9B944663440C9300231192089307E00B9B39
:403A4000039A9B1A0B935342089300231193229B0125092B25D8052B02DD0025043B2293229B981E032824D801F026FA060E0204012302E0012308E000231093239B002B9D
:403A800020DD1F000A9321E00023239A1093039B9F187B1C0A930123FA18002A16DD130014E0012700237F42229310950A97123305E0012701237F4210930A9711330022FE
:403AC000239203E001273B000A972397049A546A00226260043211001431994204D86168520001316160F6E76168049800F085FC049B20605B6A1B680D930A9B0E2B00D96E
:403B000081E1002D00D17EE1069B079C14931594039B002B31DD0F223B491340DB00CB185C681B680E930F94039B02241D11EB060AD514981599354B15401A6A5B6AFEF7DB
:403B400083FD069007910134304E002D0ED001231D4208D00E980F99E4183268736801F02DFE0E900F916D100836EEE70E9A0F9B06980799FEF768FD4CE0039B02245D425C
:403B8000002D49D0149815990F231F4A2B40DB00D3181A685B6801F011FE0023069007911A4E2D11002D33D00122154205D0A4183268736801F002FE01236D100836F1E705
:403BC0000000F07F0F270000377E01002E7E01000A7E01000B7E01000000F03F01FCFFFF3204000012040000000010FE0000F83F61436F63A787D23FB3C8608B288AC63F1D
:403C0000FB799F501344D33F487E0100207F0100002B01D006900791169B002B1DD0069D079E0022C74B2800310001F065F9002813D00A9B002B10D0002F00DCDFE0039B17
:403C40003100013B0E930022BF4B280001F0B6FD0134069007913E0002E0039B0A9E0E93200002F0CFFB069A079B01F0A7FD0022B64B01F069F9B64A12901391129C139D07
:403C80009446139B634418931D00002E1CD1069807990022AF4B02F00BF82200189B0690079101F03DF9002800D054E2AA481399844661440B0006980799220001F01CF9CD
:403CC000002800D03DE29AE0109A731EA349DB00002A49D0CB181A685B680020A049FEF7B3FC2B00220001F0E3FF129013910D9D0698079902F050FB040002F083FB020018
:403D00000B000698079901F0D3FF01356B1E30341C70129A139B0690079101F0EDF8002800D02EE3069A079B0020864901F0C0FF129A139B01F0E0F8002800D0C7E00D9B16
:403D4000EB1AB3425BDA1298139900227E4B01F035FD002212901391069807997A4B01F02DFD06900791C3E7C9182200086849682B0001F023FD0D9C12901391A5190698A7
:403D8000079902F009FB060002F03CFB02000B000698079901F08CFF303626700134069007910022A54222D16D4B1298139901F0CBF802000B000698079901F0B1F800284D
:403DC00000D084E0129A139B0020654901F070FF02000B000698079901F08EF800280ED06B1E1A78302A00D0CBE21D00F8E706980799554B01F0E2FC06900791BFE7149B21
:403E0000159C069307941B9B002B00DA81E0039A0E2A00DD7DE0D300504AD3185C681B6808930994239B002B15DA0A9B002B12DC00D088E1089809990022464B01F0BEFC2C
:403E4000069A079B01F076F80A9B08931E00002800D07BE182E10D9D069E079F089A099B30003900FEF7F0FB02F096FA040002F0C9FA089A099B01F0A1FC02000B003000BD
:403E8000390001F015FF220001356B1E30321A700D9B0A9AEB1A9A422ED102000B0001F053F806000F0002000B000898099901F023F800280FD10898099932003B0001F06A
:403EC00015F8002800D15EE2E30704D45BE20E9B039300E01D006B1E1A78392A08D10D9A9A42F7D1039A0D990132039230220A701A7801321A7046E20022134B01F05EFC86
:403F00000022002306000F0000F0F0FF0028A5D039E2109A002A44D0229A012A0BDC179A002A02D00F4A9B1802E036231A9A9B1A089D0B9C29E00A9B5D1E089BAB4213DB8A
:403F40005D1B18E00000F03F0000244000001C400000C0FC000014400000C07C487E01000000E03F33040000089B0895EA1A0025119B9B1811930A9B002B04DA0B9B0A9A15
:403F80009C1A002301E00B9C0A9B0B9A0121D2180B920C9A0498D3180C9300F006FB060002E0089D0B9C109E002C0ED00C9B002B0BDD0C9A2300944200DD13000B9AE41A18
:403FC000D21A0B920C9AD31A0C93089B002B20DD109B002B17D0002D11D031002A00049800F076FB059A01000600049800F0E6FA05990E90049800F038FA0E9B0593089B28
:404000005A1B06D000E0089A0599049800F060FB05900121049800F0C8FA119B0890002B00D1C0E11A000100049800F051FB229B0890012B17DC0025069BAB420ED1079BAD
:404040001B03AB420AD1199B079A134206D00B9B013501330B930C9B01330C93119B0120002B0DD000E00025089B089A1B690E9303339B00D318586800F04DFA2023181A46
:404080000C9BC0181F23184009D001331B1A042B02DD1C23181A03E0042B08D018001C300B9B24181B180B930C9B1B180C930B9B002B05DD1A000599049800F05DFB0590C8
:4040C0000C9B002B05DD1A000899049800F054FB0890169B002B1DD00899059800F09EFB002817DA039B0A22013B039305990023049800F0D3F9109B0590002B00D159E10A
:40410000310000230A22049800F0C8F90600002F37DC33E00A9B0A9F002B2ADC229B022B27DD002F12D108993B000522049800F0B5F908900100059800F070FB00280DDCF9
:4041400004E0089602E000231E000893239B0D9DDB4303930AE00E9B089603930D9B0D9A5D1C31231370039B013303930A960026F3E0109B002B04D10D9DB5E0229B022BA8
:40418000CFDC002C05DD31002200049800F0F4FA06000A96002D12D07168049800F02DF93100040033690C319A1C92000C30FEF70EFE01222100049800F0DEFA0A900D9BBC
:4041C0007D1E0B935B190E9308990598FFF7AFFA310010900400059800F020FB0A9A05000899049800F035FB01230C93C36830340700002B04D10100059800F00FFB0C9084
:404200003900049800F031F90C9B229A134308D1069A0133134204D1392C2AD0002D1CDC1DE0002D06DB229B1D431BD10123069A134217D10C9B002B11DD05990122049849
:4042400000F09AFA0899059000F0E8FA002802DC05D1E30703D5392C0BD0109C31340B9B5D1C0FE00B9B5F1C0C9B002B0CDD392C05D10B9B0B9A5D1C3923137057E03D0087
:404280000B9B01341C7068E00B9B0E9A3D001C7093423CD000230A220599049800F0FEF80A9B05909E4208D1310000230A22049800F0F4F806000A900DE0310000230A22F0
:4042C000049800F0EBF8002306000A220A99049800F0E4F80A900B9776E700230A220599049800F0DBF8059008990598FFF71FFA0D9B3030287001350400EB1ABB42ECDB85
:404300003D1E00DC01250A9600260D9B5D1905990122049800F030FA0899059000F07EFA002804DC13D1E30701D410E01D006B1E1A78392A08D10D9A9A42F7D1039B0133FB
:4043400003933123137008E001321A7005E06B1E1A78302A01D11D00F9E70899049800F084F80A9B002B0ED0002E05D09E4203D03100049800F079F80A99049800F075F82B
:4043800001E00E9B03930498059900F06EF800232B70039B249A01331360269B0D98002B10D01D600EE0229B012B00DC43E6119D012065E6002F00DDDEE6229B022B00DC12
:4043C000DAE6AEE61DB0F0BD004870477C10002010B5034B0100186800F054FB10BDC04678100020C9B28218904204D003788B4202D00130F8E70020704770B5466A040061
:404400000D00002E07D11020FFF7E2FF6062466086600660C660666AF368002B09D0636AAA00DB689B18186800280ED002681A6017E021220421200000F0CAFA636AF06032
:40444000DB68002BEBD100200EE001210E00AE40721D9200200000F0BBFA0028F3D04560866000230361C36070BD70B5456A06000C00002D07D11020FFF7AAFF7062456082
:4044800085600560C560002C07D0726A6368D2689B00D3181A6822601C6070BDF7B5070008000C000D691E00002101921430019A0388013153439B190668360C56431A0C12
:4044C0009446B4446246160C120494469BB2634408C08D42EBDC002E1BD0A3689D4212DB63683800591CFFF788FF2100236901909A1C92000C310C30FEF769FC2100380047
:40450000FFF7B3FF019C2B1D9B00E31801355E6025612000FEBD00220300010C914201D103041032190E01D108321B02190F01D104321B01990F01D102329B001000002BC3
:4045400003DB20205B0000D5501C70470722036810B501001A400CD001240020234223D10222134203D0E34020000B601CE09B0818E098B2002801D110221B0CD8B20028BC
:4045800001D108321B0A180701D104321B09980701D102329B08D80704D45B082020002B02D0013210000B6010BD10B50C000121FFF723FF01234461036110BDF0B50B6947
:4045C0001400126989B00D00934201DA25000C002F692669AA68BB1969680193934200DD0131FFF70AFF0200BB1914329B00D3189C46002113000290634501D202C3FBE744
:404600001435BF00EB191434B6000593A31903950793079B9C4251D2208800281ED015000026039F08CF069504936B461B8A434319002B88CB1804999B19090C41432E6898
:40464000360C89191E0C89190E0C9BB209040B4308C5059BBB42E5D8069B5E6023681D0C1FD0002110001368039F04913E8801686E43090C7118049E9BB289190E04334325
:40468000036008CF86881B0C6B43090C9B195B18190C0491059906900430B942E6D806994B6004340432B4E704235B429C4463461B68002B05D1019B013B0193019B002B6F
:4046C000F2DC029B019A18001A6109B0F0BD00000323F7B5134005000E001400002B08D02349013B9A00525800233100FFF7D6FE0600A310019338D06C6A002C07D1102003
:40470000FFF766FE6862446084600460C4606F6ABC68002C10D117492800FFF746FF0023B8600400036007E0019B5B1001931CD02068002810D004000122019B1342F3D0FD
:40474000310022002800FFF739FF070031002800FFF78BFE3E00E7E7220021002800FFF72DFF002320600360E5E73000FEBDC046107F010071020000F0B50C0017002369FE
:40478000551185B0EB180193013300934968A3680290009A934202DA01315B00F9E70298FFF72BFE00230200060019001432AB4203DA980011500133F9E7EB43DB171D4063
:4047C0002300AD0055192269143392009A1894461F22174014D00132D21B0392002219682800B9400A4304C504CB0399CA409C45F5D84260002A07D0019B0233009303E073
:4048000004CB04C59C45FBD8009B0298013B33612100FFF72AFE300005B0F0BD03690A6910B59B1A0400181E12D1930014341431E218C918043A043913680868834204D0E6
:4048400083429B410120184302E09442F2D3002010BDF0B50C0085B00700110020001500FFF7DCFF061E07D101003800FFF7C5FD01234661036155E000230193984204DAED
:4048800023002C001D000123019361683800FFF7B4FD019B26692F00C3601434B300E318020002932B69002514379B00FB180393143208CC69469C4608CF043200936346E6
:4048C0008B808B885D19009B9BB2EB1A65460193009B2D0C190C019B691A1D14131F9C466B4649199B880D1409040B4361460B60039BBB42DDD8029913008C420BD202CC60
:404900008BB25B191D14090C49190D149BB209040B4308C2EFE7043B1A68002A01D1013EF9E7066105B0F0BDF7B51D000121089F1400FFF762FD2B036D0006001B0B6D0DD4
:4049400002D08022520313430193002C18D068460094FFF7FBFD009C002809D0019B20211A00091A8A40C34022437261019300E07461019CB461631E9C410134346107E07A
:4049800001A8FFF7E3FD0124019B346173612030002D06D00B4BED1835232D183D60181A0BE0094BC018094B3860E3189B00F3185869FFF7B0FD6401201A099B1860300041
:4049C000FEBDC046CDFBFFFFCEFBFFFFFFFFFF3F4A4370B51100140000F054F8051E03D022000021FEF7FCF9280070BD70B50500002944D00C1F2368002B00DAE41828005C
:404A000000F027FA1E4A13681100002B02D16360146031E0A3420DD92268A018834203D118685B688218226063600C6024E0A24203D813005A68002AF9D11E689819A04252
:404A40000BD12168711858181960824214D110685268411819605A600EE0A04202D90C232B6009E021686018824203D1106852684118216062605C60280000F0EBF970BD5E
:404A800054220020032370B5CD1C9D43083506000C2D01D20C2501E0002D01DBA94202D90C23336048E0300000F0D3F9234B1C681A002100002913D00B685B1B0DD40B2B0D
:404AC00002D90B60CC181EE08C4202D1636813601AE04B6863600C0016E00C004968E9E7174C2368002B03D1300000F08BF920602900300000F086F9431C18D00323C41C8A
:404B00009C43A0420DD12560300000F0A3F9200007220B30231D9043C31A0ED05A42E2500BE0211A300000F06DF9431CEBD10C233000336000F08EF9002070BD5422002062
:404B400050220020F0B58E6885B007000C00039201939E4243D890238A89DB001A423ED003250969236801985B1A029363695D43EB0F5D19029B6D1001331B18AB4200D9A6
:404B80001D00530510D529003800FFF77BFF061E14D0029A2169FEF71AF9A289194B134080221343A38112E02A00380000F053F9061E0CD121693800FFF718FF0C234022A5
:404BC00001203B60A38940421343A38117E0029B2661F61826606561019EED1AA560019BB34200D21E0032000399206800F01CF90020A3689B1BA36023689E19266005B074
:404C0000F0BDC0467FFBFFFFF0B59FB0029005938B890F0016001B0610D50B69002B0DD14021FFF72FFF38603861002804D10C23029A01381360D8E040237B61002306AD78
:404C40006B6120336B761033AB7634002378002B03D1A31B049312D003E0252BF9D00134F4E7A31B320039000298FFF76BFF431C00D1B4E06A69049B944663446B6123787E
:404C8000002B00D1ABE00122002352426A6002A95432521801342B60EB60AB601370AB65534E217805223000FFF79CFB002807D00123801B83402A68013413432B60EFE768
:404CC0002B68DA0604D55322202102A8121811701A0704D553222B2102A81218117022782A2A03D0099B00200A210EE0059A111D12680591002A01DB099204E05242EA606F
:404D0000022213432B6001340BE02278303A092A04D84B4301349B180120F6E7002800D0099323782E2B1ED163782A2B0AD1059B02341A1D1B680592002B01DA01235B4257
:404D4000079310E000230A201A0001346B6021783039092904D84243013452180123F6E7002B00D00792234E217803223000FFF739FB002806D04023801B83402A6801346A
:404D800013432B60217806221B48661C2976FFF729FB002812D0194B002B06D10722059B073393430833059314E005AB00933A00134B29000298FEF7B1F807E005AB00933D
:404DC0003A000F4B29000298FEF766FB0390039B013304D06B69039A9B186B6135E7BB890B985B0601D5012040421FB0F0BDC046487F01004E7F0100527F01001D2F0000CA
:404E0000454B0000002370B5064C050008002360FBF7C2FC431C03D12368002B00D02B6070BDC046BC22002010B5884202D98B18984201D3002305E09B1A013A08D3995C10
:404E40008154FAE7934203D0CC5CC4540133F9E710BD70477047F8B506000C001500002904D11100FFF70EFE040018E0002A03D1FFF7BCFD2C0012E000F013F885420ED9F0
:404E800029003000FFF7FEFD071E07D021002A00FDF79DFF21003000FFF7A8FD3C002000F8BD0B1F1A68101F002A04DA891804390B68D0180438704702B4714649084900BE
:404EC000095C49008E4402BC7047C0468446101C62468C46191C634600E0C0461FB500F003FC002801D40021C8421FBD10B500F057FB4042013010BD10B500F0F5FB002868
:404F000001DB002010BD012010BDC04610B500F0EBFB002801DD002010BD012010BDC04610B500F07DFB002801DC002010BD012010BDC04610B500F073FB002801DA0020D9
:404F400010BD012010BDC046F8B556465F464D464446F0B40F00FD0FAA4609037C002E005F00450F490A7F0D2943C5001803BC46400A570F640DDB0F3843D2009A4500D118
:404F8000AAE06646A61B002E00DCFFE06346002B39D10300134300D0D9E06B0709D00F232B40042B05D02B1DAB42AD416D4249191D000B0200D482E0CA4B01349C4200D1D8
:404FC000FEE00A005646C84BED081A405007640552020543120B640D002112030B0D1B056405120B1A436308C04CF60714401C43640064083443280021003CBC904699462C
:40500000A246AB46F8BDB74B9C42C6D080231B041843382E00DDEBE01F2E00DD1EE120239B1B9C4603006746BB40984613004746F3403B436746BA40571EBA4113430200F4
:40504000F240EB1A9D42B6411D008A1A7642911B0B0231D54A02560A002E00D1B4E03000FDF75CFE0300083B1F2B00DDB5E020222900D21AD1409E400A009D4032439C42AC
:4050800000DDB1E01C1B631C1F2B00DDD5E0202114002800C91A8C40D8408D400443DA40681E854111002543002476E74146314300D134E2310045466B0700D06FE7564666
:4050C0004807ED08C9080543864B9C4235D00A036405120B640D7FE76346E31A9B46002B00DC8BE06746002F3CD07E4FBC4200D153E780273F0438435B46382B00DCF7E062
:405100000243501E82410020D2B253194218AB4289411D00494289180B02CDD5714B01349C4200D13DE101206F4A6B080A4028401843D507054351082FE72B000B4300D1EB
:40514000CBE180231B030B431A03120B44E7013E002E6DD1AE1AB5429B41091A5B42C91A350075E70700174300D116E701235B429C46E3445B46002B00D0E0E0AA18AA4292
:405180009B4109185B4259181500C5E7002E75D1661C7605760D012E00DCF3E0AE1AB0464545BF410E1A7F42F61B370200D48FE0551BAA42B641411A76428E1B9A464BE772
:4051C00056460022002507E72800FDF7A7FD20300300083B1F2B00DC49E72A002838824000259C4200DC4DE73F49E41A1140D4E60243501E8241D3B2002222E7002B00D021
:40520000F3E0631C9C465B055B0D012B00DC9FE0344B9C4500D1C3E0AA180918AA42804140424118CD075208154349086446B4E62C4B9C4200D0ECE6AFE611001F3CE14078
:405240000C00202B00D17FE04021CB1A9A4015436A1E95410021254300242DE733000700203BDF403B00202E70D04027BE1BB0400243501E824113430022E2E6002C4FD062
:40528000184CA44500D1ABE08024240476422143382E00DDDFE01F2E00DD43E12027BC1BA1460C004F46BC40A0462C004746F4403C434F46BD406F1EBD41F1402C43151B2C
:4052C000AA429241411A5242891A64469A46BFE641464546314300D0BEE6002600240025F2E6C046FF070000FFFF7FFFFFFF0F801F2B59DC2027FF1ABC46070063469F4068
:405300005B46B9461700DF40B8464F4643461F4363469A40531E9A415B463A43D840F4E60C002C435CD0F643002E55D1551BAA42A441411A6442091B9A46644688E6964FC3
:40534000BC4200D0D8E628E6002280E700208FE70B002B43002C00D0C2E0002B00D101E10300134300D118E6AB18AB42B6410918764271180A0200D409E1884A1D00114044
:4053800064460AE6002C5BD10E002E4300D08AE00100114300D1C2E0010015009A46FCE56446002100258FE620235B429C46DC4463460700DF405B46BC46202B00D1ACE042
:4053C00040235F46DB1B98400243501E8241634613431A00002098E66F4CA44500D057E70100150064469A46D7E5002C39D10C002C436ED0DB43002B1AD0674CA44568D0A6
:40540000382B00DDA4E01F2B00DDAEE020240F00E41AA740B9462F00DF40B846A3464F46444627435C46A5406C1EA541D9403D43AD1895429B4109185B42591864466BE6CC
:405440000C002C4315D1010011437BD0010015009A46514CA1E50D43691E8D410021ECB22DE74D4CA44534D0802424045B422143C6E7040014434ED0ED084C072C438025C5
:40548000C9082D03294208D0C6082E4205D1D208410711430C009A463100620FC900E50011433D4C79E50600164300D175E5AE1AB0464545BF410E1A7F42F61B370200D4CE
:4054C000F4E5551BAA42B641411A7642891B9A4663E50100150064465FE5002200257BE5002B3BD00300134315D0ED084B072B438025C9082D03294207D0C4082C4204D1D6
:4055000041070B002100D2081343C9005A0F1143DD00214C41E5204C3FE5002054E700260025D1E534000F00203CE7403C00202E2BD04027BE1BB1400D43691E8D410021A3
:405540002C43BCE6802100260903134C0025BBE50D43691E8D410021EDB269E7010015000D4C1AE50100150017E51C000F00203CE7403C00202B0CD04027FB1A99400D4338
:40558000691E8D410021254352E70021D4E71D0092E50021F3E7C046FF070000FFFF7FFFF0B55F4656464D464446F0B41F035C00DB0F9A46194B0E034D00C90F8046360B51
:4055C0006D0D8B4691463F0B640D9D4219D0134B9C421BD00123A54206D018003CBC90469946A246AB46F0BDBE42F6D1C845F4D1D34510D0002DF0D1304303005A1E934172
:40560000EBE7310001230143E7D1E0E73A430123002AE2D1DEE70023DFE7C046FF070000F0B55F46444656464D46F0B41F033C0B2C4F0E034D00A3465C008446360B6D0D95
:40564000C90F9046640DDB0FBD422BD0254FBC422ED0002D0ED130430700814678427841002C17D15F463A4314D14B460020002B0AD006E0002C02D15846024301D09942B2
:405680001AD00123484218433CBC90469946A246AB46F0BD0028F2D058425841012240421043F1E737000743D0D002204042EBE75F461743CDD0F8E7A542E2DC05DB5E459D
:4056C000DFD808D000205E45DED248424841012340421843D8E7C445D3D80020C445F4D3D2E7C046FF070000F0B55F464D4644465646F0B41C03240BA4462F4C0F034D00B3
:405700005E00C90F80463F0B6D0D8B469146760DDB0FA54220D0284CA64222D0002D12D1384344424441002E20D0002C0DD05C42634101245B421C4320003CBC9046994682
:40574000A246AB46F0BD002E17D05B4519D05B465C4201231C43EFE7390002240143EBD1D9E7614602241143E6D1D7E761460A43DBD100240028DFD0E9E761460A43E4D1A4
:40578000E5E7B54203DD01225C421443D4E7B542CDDB6745DBD809D000246745CCD259464C426141012449420C43C5E7C845CED80024C845F3D3BFE7FF070000F0B55F4614
:4057C00056464D464446F0B40D0399464E002B0B87B00700924680469B46760DCC0F002E69D06D4B9E4235D05B468022DD001204430F13432B439B46C3009846674B002713
:405800009C460023664401934A4615035000D20F53462D0B400D914600D176E05E4A90426CD080225B0F120413435C4AED0094461D4353460022DB00604449463618701C92
:405840006140029017430F2F00D9AFE05448BF00C759BF465B461F4300D088E000239B469846023308270193CEE74946022A6AD0032A00D109E2012A00D0BBE111400022C3
:40588000002300259046CCB200212D030A0D12052D0B1543434A1B0515401D436D00E4076D0825434046290007B03CBC90469946A246AB46F0BD034352D05B46002B00D108
:4058C0008AE15846FDF72AFA03000B3B1C2B00DD7BE11D22D31A3A0001005D46DA4008398D4013008F402B439B46B8462E4B00279C46002360444642019385E752462A4387
:405900002CD100250023022297E752462A4321D0002D00D154E12800FDF700FA03000B3B1C2B00DD46E11D21CB1A51460200D9405346083A954093400D431B4A9446604422
:405940004042002279E7012400220C40124B0025904699E70025002301226EE703226CE700239B4698460133042701934CE703230C27019348E700238025984600242D0362
:40598000054B81E75D464346019A6FE75D4643462100019A6AE7C046FF07000001FCFFFF5C7F0100FFFF0F80F30300004246120C91461A0C9446424617044A461B041B0C7D
:4059C0005A43604690464A4642431000039262461C003F0C7A437C4342440192220C9246019A5244904506D98246802040028046C24450460390100C049048462404240C10
:405A00001204121905922A0C2D042D0C68432C00824648467C4350438146200C8046574357444744BA4503D9802040028046C144380C3F04B84648442404240C01900498D8
:405A4000A044404404905846000C814658460404200C8246070048465F434C464343604660436446834650464443380C8446E4186444A34203D980235B029C46E3444846ED
:405A80003F04230C3F0C2404E419574668436F4384464D46504655434243380C814662444A445B44944503D9802040028446654403983F04834604983F0C8446E344C3458B
:405AC000804140428246100484460198674484466744A344BC46A345A4419946D44464428742BF41D4458041E144A04699459B417F424042C8440743120CBA18A045A441F6
:405B00005F423B0064422343D71843467D19DB0D6D021D435B465A02059B1A43531E9A415B46DB0D1A4343465B021343EA0107D501225C0813402343EA07029E13436D08ED
:405B4000574AB218002A4BDD580709D00F201840042805D0181D98429B415B42ED180300E80104D54F4A15408022D200B2184E48824200DDE7E60124DB08680718436D02E5
:405B8000530580462D0B5B0D0C407DE6802259461203114208D0154206D115432D0398462D0B4C46414B6FE65D4615432D032D0B3E4B69E603005546283B9D400023BCE6DA
:405BC0005046FDF7ABF82030A8E60300283B9F400023BB46984689E6FDF7A0F8203073E60124A61A382E07DD00220C4000230025904649E6029EA3E71F2E20DC20222C00E4
:405C00001800921BF040944093400443581E83411C43F540630709D00F232340042B05D023001C1D9C4292415242AD182B021FD5012400220C4001230025904624E61F2055
:405C40002C004042821AD440202E1CD04022961BB5402B43581E83410720234318400025002809D00F2200251A401C00042AD8D1230068076D022D0B0124DB0803439846C9
:405C80000C40002300E60025E3E780220124120315432D0398462D0B0C40044BF4E5C046FF030000FFFFFFFEFE070000FF070000F0B557464E464546E0B40E001100F20F8F
:405CC0009246C500420F180337037400400A4E0F7F0A3043CF4E17435A00640D520DDB0FC900B24200D1E5E001267340A61AB446534500D1AFE0002E00DC0DE1002A3AD1B3
:405D000003000B4300D0E4E06B0709D00F232B40042B05D02B1DAB42AD416D427F191D003B0200D488E0BB4B01349C4200D110E13A00B94B51461A4001235007ED085202C4
:405D400064050543120B640D0B400021280012030D0D120B64052D0515436208AF4CDB072C401443640064081C4321001CBC90469946A246F0BDA74B9C42C5D080231B046E
:405D800018436346382B00DDFDE01F2B00DD30E1624620239B1A02009A40664690460A009940F24046464B1E99413243114363460200DA40691A8D429B410D00BA1A5B426E
:405DC000D71A3B0235D57A02530A98464346002B00D1C4E04046FCF7A1FF0300083B1F2B00DDC5E020222900D21A4746D1409F400A009D403A439C4200DDC0E01C1B631C17
:405E00001F2B00DDE4E0202114002800C91AD8408C408D400443DA40681E854117002543002471E7424663461A4300D14CE2674645466B0700D069E7012351467807ED0838
:405E4000FA080B40054373498C4238D012036405120B640D79E7002E00DC9AE0002A47D06C4A944200D14FE78022120410436246382A00DC08E10143481E81410022C9B254
:405E80004919D219A942BF410D007F42BF183A0200D442E15F4A0134944200D14EE101205D4A69083A4028400843D507054357089A4629E706000E4300D017E714E72900FC
:405EC000114300D1F9E1802109030A431203120B3BE701235B429846C4446346002B72D1691A8D429B413F1A5B42FF1A0D0068E702000A4300D107E7012252429046C4445B
:405F00006246002A00D0E6E06918A942B6413F187642F7190D00BAE7002E00D080E0621C5205520D012A00DCF9E06A1A91464D45B6413A1A7642921B9046120200D499E083
:405F40004D1BA9428941C71B49427A1A90469A463CE752460123002513400022F5E62800FCF7DCFE20300300083B1F2B00DC39E72A002838824000259C4200DC3EE7264F63
:405F8000E41A1740C0E60143481E81410022C9B210E7002E00D0F1E0621C94465205520D012A00DCA0E01B4A944500D1C5E06918A94292413F185242D2194908D5070D433C
:405FC00057086446A0E6134B9C4200D0D9E69BE611001F3CE1400C00202B00D180E04021CB1A9A4015436A1E95410027254300241FE763460200203BDA406346202B71D0CD
:40600000402366469B1B98400143481E814111430022CFE6FF070000FFFF7FFFFFFF0F80002C48D0CA4CA24200D1A2E07442A1468024240427434C46382C00DDDBE01F2CE0
:4060400000DD44E14E462024A41B3E00A640A246B0464C462E00E640B4464646644626435446A5406C1EA54134002C434D46EF400D1B28E04A4643464D461A4300D0A5E61E
:40608000002300240025DEE61F2A5ADC66462022921B060096409146B04662460E00D640424616434A4691404A1E9141020060463143C240E4E63C002C435AD0F443A146CA
:4060C000002C52D14D1BA9428941C71B49427F1A14009A4675E69E4A944200D0C7E613E600227FE700208FE7002C00D0C8E03B002B4300D10FE103000B4300D104E66918F2
:40610000A9429B413F185B42DF193B0200D41AE1904B0D001F406446F6E59A4689E63A002A43002C5CD1002A75D102000A4300D1CAE007000D009A46E6E56446002200259B
:4061400081E662460600203AD6406246B046202A00D1B7E040226646921B904001434246481E8141114300228AE6794CA24200D061E707000D0014009A46C5E5002C41D134
:406180003C002C4378D0F443A146002C20D0704CA24271D04C46382C00DDB2E01F2C00DDBCE02026341BA2463C005646B4404E46A0462C00F440A446444666463443A44604
:4061C0005446A54064466E1EB54125434C46E7406D188D4289413F184942CF19140056E6002A2FD102000A4300D184E007000D009A46574C88E53D436F1EBD41ECB2002719
:406200000D1B60E7524CA24236D0744280263604A1463743BEE702000A4300D174E56A1A90464545B6413A1A7642921B9446120200D4F7E54D1BA9428941C71B49427F1AFD
:406240009A4661E502000A433AD0ED087C072C438025FA082D032A4208D0C7082F4205D145072C003A009A46C9080C43670FD200E5001743364C47E507000D00140043E550
:406280003A002A4343D002000A4319D0ED087C072C438025FA082D032A4207D0C6082E4204D147073C003200C9080C43D700620FE50017439A46264C26E50022002544E5A8
:4062C000234C21E5002049E700230025BBE54C463E00203CE6404C46B446202C31D040244E46A61BB7403D436C1EA54164462C4300270D1BE7E6802200231203144C002592
:40630000A1E53D436F1EBD410027EDB260E707000D000F4CF8E407000D00F5E44E463C00203EF440A0464C46202C0ED040244E46A41BA7403D436F1EBD41444600272543C1
:4063400046E70027CFE70D0073E50027F2E7C046FF070000FFFF7FFF70B50E4E0C031D0349005B00240B490D2D0B5B0DB14204D0084900208B4208D070BD04430120002C0F
:40638000FAD1044900208B42F6D115432800451EA841F1E7FF0700000B0330B5134D1A0B4B005B0DC90F0024AB4211DD104CA34210DC8024640322430E4CE41A1F2C0CDD3C
:4063C0000D48C31ADA4013005C42002900D11C00200030BD094BCC18FAE7E040084CA44663449A4013000343EEE7C046FE0300001D0400003304000013040000FFFFFF7F65
:40640000EDFBFFFF70B5002830D0C317C4185C40C50F2000FCF782FC174B184A1B1AD21A1F2A18DD164AD21A9440002224035B05240B5B0D0021100024030A0D1205240B3A
:406440001443104A1B0514401C436400ED0764082C43210070BD210091400A000B21081AC4405B052403240B5B0DE3E70025002300240022DEE7C0461E040000330400002F
:4064800013040000FFFF0F8070B5051E28D0FCF745FC154B154A1B1AD21A1F2A16DD2C00134A0025D21A94405A052403240B520D002124030B0D240B1B0523430D4C1205A1
:4064C000234013435B002800590870BD0B212C00081AC440954024035A05240B520DE7E700220024E4E7C0461E0400003304000013040000FFFF0F80134A1088810703D039
:406500008107890F401A001D11791030484381B25088820703D08207920F801A001D800040180A494030098980B2CA0701D0503080B2890706D504495422091F0978514309
:40654000081880B270470000C60C00203411002010B501F00BFF10BD10B501F00DFF10BD10B500F05BFA10BD10B50749044609780220002907D1204601F04EFF002802D126
:4065800020460AF0C7F910BD640E002070B504460120002C12D02368002B0FD0616800290CD0074D06222889208118462968FCF70EFC6968606809780170002070BD0000C9
:4065C00034110020FFB585B0002768460E9D07734F481C460078002802D0082009B0F0BD10990F9801900095029105A807C800F007F90028F2D16946264603AB84460873EC
:40660000002C19D0002115E08A00B75A082F09D990198078002805D0083FB7521878401C187005E0002914D00027B75290198770491CC9B2A942E7D360460028CED10F98BE
:40664000002809D0109901F041FA002804D00120C4E701208446EFE701F08EFE2D480021416081600599016021888180022D07D3A1798171A17AC171A1890181218A418102
:4066800000211EE0481C19E082008B00A75AE65ABE46BE4211D26F463E80B4461E190296B678BE7001967646E6521719029EBB78B3706646A652019EBE70401CA842E3D373
:4066C000491CA942DED3134822460C3000906846037B0799069800F01BF90028B8D168460B4C007B60700B480C3001F075FE0028AED1084907480C3107F06AF90028A7D12A
:4067000007F084F90028A3D10121217066E70000C00C002028110020F8B5054636480F460078002802D002242046F8BD002F60D000243249002D16D02A89D0070DD028687E
:40674000002808D003881B3BE12B04D24088FB2801D81B2801D2012409E0900707D56868002804D1F7E70020088108604860002CDAD122482E8906811F481B21801D018057
:406780004180042101711C490020891C0870F00705D019480622801D2968FCF718FB1749B00703D56A68144812788270124D0E46AD1D281F0D60486001F054FE284601F042
:4067C00043FE30890DF054FE30890DF045F828880DF048F830890DF0B5FF03461033FFF78BFE1F21C018890140183880A91F88809AE7012498E70000C00C00203411002003
:40680000FFB58446384F1C460020BB883F78054602460646002F11D100290ED0029999420BD36146002908D0002C06D00A99002906D02E4B0B99994202D2012004B0F0BDF2
:40684000002144E0AB001F19BF78002F3BD0E35A002B38D07B43591889B22B0000F04AF8050410161C253100A7782388BC46FF27233BEB37BB4222D26346032B1FD322E079
:40688000A388002B1FD0302B19D31CE02389002B19D0282B13D316E0A289002A13D01346134F233BBB420AD20DE0268A002A0AD033460F4F233BBB4201D2964203D90120BC
:4068C0000EE0002001E000280AD16D1CEDB2099B9D42B7D31C2463435B1802998B42ACD89642AAD8AAE70000C00C002079020000BAFF000030B47446641E2578641CAB42F7
:4069000000D21D46635D5B00E31830BC18470000FFB583B0002469460C801F4606468C80002806D00598002803D004983043800701D0012466E0002FFBD0344904980988B2
:406940008842F6D3FBF742FAFBF730FA00F012FC002855D100F07AFD002851D12C49084601F0E8F805042D0C4AD12A480499066081800021C18007810C98007AC00704D033
:40698000684601F012FD040007D10C98007A800703D501A801F012FD0446BF1DFEB2002C20D13146059800F05DF804001AD10DF0D7FE040016D16A461088928808368518F2
:4069C000144AF1B29088D288AEB29319984207D3401B801A80B201F09DFB050007D000E0FF25012400F05EFA002D04D008E0F8B200F01CF9F6E700F081FA0749012008709E
:406A000000F0CAFB204607B0F0BD0000C40C0020516B000040110020CC0C002010B503480078012801D101F017FA10BDCC0C002070B5084B0446DA889E8800205518B542AA
:406A400006D81D68AA182260DA885118D98070BD032070BD40110020014800897047000040110020F0B587B007460D4600208900009006916846FFF7DBFF844600285DD179
:406A8000304800990160002117E02E4B88001A680629115406D22C4C0419667882185670628805E0C419203CA67A8218567022891B68C018491C4280C9B2A942E5D3002493
:406AC0002DE0601CC2B2059025E01E4FA30039689600581840887118039604904E88B04217D938466F46FE80B6464F786E4677710297049F4F800168039F5E1876787918F7
:406B00004E700168764659184E800068029F18184770521CD2B2AA42D7D30598C4B2AC42CFD36046002809D168460699FFF780FF8446002802D1054900980860604607B03E
:406B4000F0BD0000D00C0020D07F0100D40C00207047000010B5002809D005494A68002A05D0011F08788000105801F081FA10BDD00C002010B50446FFF76EFFC0B2801D62
:406B8000A0420CD307484068002808D0A100405801F0E0F9002801D00470001D10BD002010BD0000D00C0020F8B516460D460446FFF752FFC0B2801DA04203D20020C04304
:406BC0000090F8BDB2B2E9B2684601F0E9F90099481C03D0024AA000526811500098F8BDD00C0020F8B50746FFF736FF801DC6B20A49002005460C680DE06178002907D07E
:406C00006188B94202D32078FFF7B4FF002804D1241D6D1CEDB2B542EFD3F8BDD00C002010B5002801D0FFF795FF10BD70B506460948002504680BE06178002905D0628876
:406C40002078121D0023FFF7AFFF241D6D1CEDB2B542F1D370BD0000D00C0020FFB581B00A9F16000C4620D000F0F2F8054604281BD0002F0CD03846FFF7B4FF20492A0151
:406C800051184860002810D03A460499FCF79FF81B4928010E504618778101980570200406D47D20C000444304E0FF2005B0F0BD6404640C00F0BAF80746042807D000F0C4
:406CC0004FFAA0420BD800F04BFA201A03E0204600F0AAFA0020F06035720020E6E700F03FFA009000F0B6FA00980121001B009000F0ECF802493A0151180098C860E6E728
:406D00004C110020F8B5060116483418217A042903D0E068002802D017E00020F8BD00F01FFA054600F096FA00F0A0F804280CD001010C480F18F8680021451900F0C6F861
:406D40000020F860284600F06FFA6068054D002801D0FFF765FF042020720020A8516081E060DAE74C110020FEB500266A46304601232549050169180D7A042D02D0C96866
:406D800000291BD000211154401CC0B20428F0D300246846005D002830D01B48210108184189476805680291002101604160042241810272C160002E02D015E01354E3E741
:406DC00000F054F804280ED001010F4808180190C6680021304600F079F801980021C160304600F021FA0126002D07D038460299A847002F02D03846FFF712FF641CE4B2F2
:406E0000042CC6D3FEBD00004C1100200EB5002005216A460090118150810348694600680EF003FB0EBD0000D80C0020074A0020010189180B7A042B02D0C968002903D0B1
:406E4000401CC0B20428F3D3704700004C1100200549002002015218127A042A03D0401CC0B20428F6D370474C11002030B50A4B04200A4C00210A011219157A042D06D01E
:406E8000D268002A03D09A4201D808461346491CC9B20429EFD330BDFFFF00004C1100207047000030B50020074C05460423020111190B72A5504D60401C4D81C0B2CD6072
:406EC0000428F4D330BD00004C11002030B5094C00231A011219157A042D04D0D568002906D02D18D5605B1CDBB2042BF1D330BD2D1AF7E74C110020002070471CB50024F6
:406F000069460C70142001902346054A05480EF091FA04480068401C00D1FF2420461CBD796F0000D80C00203EB5124A0146FF2000230124126800290DD0012914D00429EC
:406F400008D104206946009308814B8110460EF06CFA80B23EBD6846009304814381694610460EF05DFAF4E768460093048143816946EBE7D80C002070B5458904684168C0
:406F800000890300FFF7B6FC08280509091E22282628002005F0D8FB1EE0022908D0C8B22A4621460CF0A4FB2046FFF739FE13E002202A4621460CF09BFB2946204600F0F5
:406FC0000DF809E000200DF02FFF05E02046FFF7CBFE01E0FAF71CFF002070BD014B0022DB681847DC0C002070B5448905680089022803D0032809D0FF2070BD2246094C0A
:407000000023A46829460120A04708E0FFF7A4FA241DA2B200232946022006F08CFB002070BD0000DC0C002070470000024800214160018041807047DC0C002070B50C46D8
:40704000002186B016460391012802D0022859D116E003A9012006F0C3FB01281BD1039D324621462846FBF7B2FE0095287801900220694608814E816846FFF7B5FF41E0F7
:40708000214D002B686809D0049004A9022006F0A7FB01281DD0022006B070BD002812D0298840182146FBF792FE28880024801980B228806988091D884206D12C80134876
:4070C000FFF792FF03E00320E6E788421AD96C6018E004986860E278A378110219430B4A698000231060E3565360032313815181A1788170E178C1706178417021780170FC
:40710000042028800020C7E7DC0C00208C1100203EB515460C46022803D004280CD000203EBD0091019002206946088107484A8100680EF07AF907E00CF0DAFA044B002299
:40714000DB6829462046984701203EBDD80C0020DC0C0020014AD16090607047DC0C0020034801688068081A0A214843000970479811002010B5FAF71DFE482204490548F3
:40718000FBF725FE03490120C870002010BD0000EC7F01009C15002010B5FAF703FE10BD70B5134C2368002B08D0207B1149C20705D04008400020738868A08070BD88687A
:4071C0000B4AA18880B29268814203D90A4D691A091802E0814202D2411A5118A160A080A0689842EAD30EF03DF900F013F870BD98110020C0102E40FFFF000010B50846DA
:407200001946FFF7A7FF10BD704710B5FFF780FF10BD000003480021016041608160C1607047000098110020024610B5FF20002A0CD0FFF7EFFF064C0321207B08432073D3
