:400000000040002011000000850B0000850B000080B500AF00F0EAFD80B500AF2A4B12221A6002F013FC012002F020FC302002F0ADF9264B264A1A60264B264A126802217C
:400040000A431A60244B254A1A60254B00221A60244B244A126808218A431A60FA23DB00180002F0E1F9204B180002F0FFFA1F4BE82252011A601E4B1E4A1A601E4BE82245
:4000800052011A601A4B1D4A1A601D4BC82252011A60174B1B4A1A601B4B822212061A601A4B802212031A60194B41221A60194B42221A60184B40221A60184B00221A60DA
:4000C000C046BD4680BDC0463000104004010B400600008078002E407C002E406A2D000064F02E406CF02E40DC050000040301400000014041FF00800803014042FF008034
:400100000003014040FF008008010B4000010B401801014008010140040101400C020B4080B582B000AF72B63C4B00221A60FB1D00221A7022E0FB1D1A7813005B009B18E7
:400140005B00374A9B183B603B681A78597809020A43997809040A43DB781B06134318003B681A795B791B0213439BB2190000F0A9FCFB1D1A78FB1D01321A70FB1D1B7808
:40018000012BD8D9274B284A1A60284B992212041A60274B992212041A60264B992212041A60254B992212041A60244B992212041A60234A224B1B78DBB206210B43DBB25C
:4001C0001370204B03221A601F4B204A1A60204B20221A601F4BC42292021A601E4B20221A601E4BC3221A601D4BB022D2031A601C4B802212021A601B4B07221A601B4B23
:40020000C0221A601A4BD82212041A60FFF704FF00F068FCC046BD4602B080BD6CF02E400C9B010000000240EE0000EE0001024000500F4010500F4020500F4030500F407F
:4002400000700F4000000440080004402400D80000010440080104401801044000020440080204400C02044018020440000304400803044010B5064C2378002B07D1054B65
:40028000002B02D0044800E000BF0123237010BD0811002000000000B09A0100084B10B5002B03D00749084800E000BF07480368002B00D110BD064B002BFBD09847F9E770
:4002C000000000000C110020B09A0100E00B00200000000090B587B000AF786039607B68272B00D188E022D8212B00D19DE00DD8022B00D19BE002D8012B42D0B6E0032B93
:4003000000D196E0042B00D195E0AFE0242B00D159E006D8222B00D18FE0232B00D18EE0A4E0252B00D18CE0262B4FD09EE0422B00D188E010D82A2B00D186E005D8282BD8
:400340005ED0292B00D182E090E02C2B00D180E0412B00D17FE089E0FA2B00D17DE005D84C2B58D0572B00D179E07FE082225200934200D175E00622FF32934200D172E0AF
:4003800074E01423FC18002000F0DEFE030023800823FB1800229A710823FB18180008F013FA1723FB1806221A7006E01723FB181A781723FB18013A1A701723FB181B7890
:4003C000002BF3D152E03B683B614FE0294B1B78042B4AD1012001F0A7FE002001F07CFE012001F0C9FE01F0EBFE01F063FF01F0FFFE02F0A7F938E0012001F095FE35E083
:40040000012001F0B9FE1423FC18002000F09CFE030023802AE03B680433180000F0B6F93B68186813F0BEFD20E0C0461EE0C0461CE0C0461AE0C04618E0C04616E0C046D6
:4004400014E0C04612E0C04610E0C0460EE0C0460CE0C0460AE0C04608E0C04606E0C04604E0C04602E0C04600E0C046C046BD4607B090BD8222002080B500AF02F05EFB2C
:4004800002008023DB00134019D00E4B1B78032B0BD10D4B1B7801225340DAB20A4B1A70094B1B78180001F03FFE084B1B685A1C064B1A608023DB00180002F04DFBC04664
:4004C000BD4680BD82220020E40B00202811002080B500AF02F014FA0E4B180001F0F4FE0121012002F04EFA0121012002F078FA094B1900012002F0D9FA012002F064FB6F
:4005000080235B00180002F0A1FA02F0CFF9C046BD4680BD79040000FF7F000080B500AF62B6012001F0D8FD012001F0FDFD012001F022FE174B180000F072FD164B1800AA
:4005400000F0DEFB154B180001F07EF901F040FCFFF7BEFF02F05AFD02F06AFB02F02AFD08F036F90E4B1B78022BF9D10D4B1B68002BF5D00B4B00221A6000F085F908F00C
:4005800027F9094B1B88012BEAD100F07DF808F01FF9E5E7D5020000F9070000AD05000082220020281100202C11002090B585B000AF786039600F23FB183A6892781A70E4
:4005C0007B68B13BFF3B0B2B43D89A00274BD3181B689F460F23FB181B78002B3DD1244B01221A80234B01221A70234B00221A7033E00F23FB181B78002B30D11C4B002230
:400600001A802CE03B685B68180000F0BFF80F23FB181B78032B24D13B685B681B680C22BC18180000F02CFE03002380134B0C22BA1812881A800C23FB181B88002B10D0AF
:400640000F4B01221A600F4B1B685A1C0D4B1A6007E0C04606E0C04604E0C04602E0C04600E0C046C046BD4605B090BDB89A01002C110020EE0B002030110020EC0B002081
:40068000E80B00202811002090B583B000AF2B4B1B88002B4DD02A4B1B685A1E284B1A60274B1B68002B44D1244B1B881A00244B1A60244B00221A7001F0A8FC022001F0DC
:4006C000B5FC01F0ADFCBC1D00F0B0F9030023801D4B00221A70BB1D1B88DAB21A4B5A70BB1D1B881B0A9BB2DAB2174B9A70164B0022DA70144B00221A713C1D1249134B7D
:400700001A785B781B02134300201B041B0C020C1204134318000B000522002101F06EFA030023803B1D1B88002B02D0084B00221A80C046BD4603B090BDC046EC0B00206A
:40074000E80B0020EE0B002030110020882200202C11002080B586B000AFF860B9607A6000237B6109E0BB685A1CBA601B78180002F06CFC7B6901337B617A697B689A422A
:40078000F1DB7B681800BD4606B080BD80B584B000AF78600E23FB1800221A8017E07B681A680E23FB1800215B5ED3181B781A000F4B1100180004F00DFA0E23FB18002296
:4007C0009B5E9BB201339AB20E23FB181A800E23FB1800229B5E7A6892889342DFDB054B180004F073FAC046BD4604B080BDC046E89A0100F09A010080B584B000AF7860A4
:4008000039600F23FB183A6892781A707B68313BFF3B052B26D89A00184BD3181B689F460F23FB181B78002B02D1154B01221A800F23FB181B78002B18D1124B01221A80A4
:4008400014E00F23FB181B78002B02D10C4B00221A800F23FB181B78002B09D1094B00221A8005E0C04604E0C04602E0C04600E0C046C046BD4604B080BDC046F49A01007C
:400880003C1100203E11002090B589B002AF5E4B1B685A1E5C4B1A605B4B1B68002B00D0AEE0594B03221A60584B1B68F02293433B61564B3A69C0210A431A60192001F0B3
:4008C000AFFE524B1B68F02293433B614F4B3A6970210A431A60012001F0A2FE01F096FB022001F0A3FB494B1B68F02293433B61464B3A69C0210A431A600E23FC18002051
:4009000001F0B8FB030023800E23FB1800229B5E19008023980303F025F90300BB60BB683B4A934203DCFB1D00221A702FE0BB68384A934211DCBB68374A9A181300DB00AE
:400940009B1A9B009A18C8239900100003F00AF90300DAB2FB1D1A7019E0BB682F4A934212DCBB682E4A9A181300DB009B18DB009B1AC821180003F0F5F80300DBB21D3323
:40098000DAB2FB1D1A7002E0FB1D64221A70FB1D1B78092B03D8002001F0EEFB02E0012001F0EAFB1F4B1B88012B17D11623FC181D4BFA1D00921A785B781B0213430020FB
:4009C0001B041B0C020C12041343180001230022002100F08BFA0300238009E01623FC18FB1D01220021002000F098F9030023801623FB181B88002B02D00A4B00221A80C7
:400A0000C046BD4607B090BDF40B002000003A40CF070000EF0A000030F8FFFFB70B000010F5FFFF3E1100208822002080B58AB000AF224B7B6248233B620223FB61002309
:400A4000BB61BB69FA69391D386A02F07FF903007B617B69002BF4D1C04602F027FA020004231340F9D102F043FA02F005FA3B1D1B781B021AB23B1D5B781BB213431AB251
:400A80001223FB181A801223FB181B88180003F083FB031CFB60F968786A03F069FA031C0749181C03F04AF9031CBB601223FB181B881800BD460AB080BDC0460024F4455A
:400AC0000024744980B582B000AF786039603A687B680021180003F0FFFBC046BD4602B080BDC04680B500AF0E4B802212061A600D4B03221A600D4B0D4A1A600D4B0322D7
:400B00001A600D4B802212061A600C4B8022D2031A600B4B00221A60012000F013F8C046BD4680BD000030403000304080003040040124003000314000003A4000033A4052
:400B4000000E3F4080B584B000AF0200FB1D1A700B4B1B68FB60FB1D1B78002B05D0FB68802212061343FB6003E0FB685B005B08FB60034BFA681A60C046BD4604B080BDFC
:400B800080033A4080B500AF03F062FB03001B680C2B00D1FEE7FEE780B584B000AF7860104B1A687B68D3181A000F4BD21A80239B009A4209DC0B4B1B68FB60094B1A68A8
:400BC0007B68D218074B1A6007E003F041FB03000C221A6001235B42FB60FB681800BD4604B080BD000C0020C022002080B586B000AF224B7B61224B3B61204B7B6135E01A
:400C00003B691B68FB603B695B68BB603B699B683B6000237B600CE0FB681A68BB681A60BB680433BB60FB680433FB607B6804337B607A683B689A42EED13B69DB683B6001
:400C400000237B6008E0BB6800221A60BB680433BB607B6804337B607A683B689A42F2D13B6910333B617B69013B7B617B69002BC6D103F0F3FAFFF751FCFEE70100000013
:400C800008A3010080B582B000AF154B144A126801218A431A6000237B600FE07B68032B04D8104B7A689200D35800E00E4B0F4A796889008B507B6801337B607B682F2BF7
:400CC000ECD9FFF72DFA0A4B00221A60044B044A126801210A431A60C046BD4602B080BD0000104000000000850B000000000020C000002080B500AFC046BD4680BDC04619
:400D000080B582B000AF7860034B7A681A60C046BD4602B080BDC0464011002090B587B000AF0400080011003B60FB1D221C1A70BB1D021C1A707B1D0A1C1A701623FB18D5
:400D400000221A80FB1D1B78002B0BD1BB1D1B78002B07D17B1D1B78012B03D13B681B78642B04D91623FB1801221A8020E0FB1D1B78134ADB00D31802331A880823FB18DE
:400D80001A817B1D1B789AB20823FB189A800823FB183A681A600823F81800230022002113F04AFF031E03D01623FB1801221A801623FB181B881800BD4607B090BDC04671
:400DC000189B010090B587B000AF78601723FB1800221A701623FB1800221A703F4B1B68002B00D173E07B689B892022934262D11723FB181B783A4ADB00D31802331B889C
:400E00005A1E384913009B009B189B00CB1804331A6880235B03134040D07B68181D7A681623FC184023002113F006FF030023701623FB181B78002B34D10C23FB187A6821
:400E400012881A800C23FB181722BA1812789A700C23FB180022DA700C23FB1800225A607B685B68180000F00BFA03001A00012313409BB2002B08D0184B1B680C22B91815
:400E800098225200100098470CE0144B1B680C22B9183222FF321000984703E01623FB1806221A70104B1B78DBB201229343DAB20D4B1A700BE01723FB181A781723FB181C
:400EC00001321A701723FB181B78002B8BD01623FB181B781800BD4607B090BD40110020189B01003C9B01008B220020B0B586B000AF3C1D20800C0010001900FB1C221C3A
:400F00001A70BB1C021C1A707B1C0A1C1A701623FC18BD6A7B1C1A78BB1C1978FB1C18782B00FFF7FBFE030023801623FB181B88002B46D1264B1B78022B05D01623FB1872
:400F40000422FF321A803CE02023002B14D020235A1E204913009B009B189B00CB1810331B685B68180000F08BF903001A00012313409BB2002B05D11623FB1880225200D8
:400F80001A801EE0FB1C1B78134ADB00D31802331A880823FB181A810823FB18BA6A1A607B1C1B789AB20823FB189A801623FC180823FA183B1D1100186812F09DFF03005E
:400FC00023801623FB181B881800BD4606B0B0BD822200203C9B0100189B010080B500AF064B00221A70064B00221A70054B00221A7000F009F8C046BD4680BD8B220020F3
:40100000842200208A22002080B500AFFFF772FE00F00AFC00F00EFCC046BD4680BDC046B0B594B004AF78603E23FB1800221A802823FA183D4B1000190014231A0003F0E2
:4010400042F93B4B1B78002B04D1FFF7C7FF384B01221A707B68002B5CD0364B7A681A603E23FB181B88002B29D11023FB181C22BA185A601023FB182022BA181A601023C6
:40108000FB1800221A812023FB181B221A802023FB181B225A802023FB1804221A711C23FB1800221A703E23FC180E23FA181023FB181100180007F067FC030023803E2339
:4010C000FB181B88002B29D13E23FC182823FD18AE231A01184919480023029300230193052300932B0007F0A5FB030023803E23FB181B88002B11D1114B01221A703E2372
:40110000FC18104B15222021180013F047FD0300238003E03E23FB1801221A803E23FB181B881800BD4610B0B0BDC046209B01004411002078220020C8000020F114000072
:40114000822200203C9B010090B585B000AF0200FB1D1A70FB1D1B78022B04D90E23FB1801221A804AE0294B1B78042B41D1284B1B78DBB21A00042313403AD1FB1D1B7801
:40118000002B0BD1234B1E221A82224B5B6820221A80204B5B6830225A8010E0FB1D1B78012B0CD11B4B1E221A821A4B5B68C822D2001A80174B5B68FA2212015A80164B85
:4011C000FA1D12781A700E23FC18124B180011F0FFFC030023800E23FB181B88002B0DD10B4B1B78DBB204221343DAB2084B1A7004E00E23FB180422FF321A800E23FB18C0
:401200001B881800BD4605B090BDC046822200208B220020340C00208A22002080B584B000AF78600A00FB1C1A700023BB60BB68002B20D07B689A79BB681A700F23FB182C
:4012400000221A7012E00F23FB181B780133BA68D3180F22BA18127879688A5C1A700F23FB181A780F23FB1801321A700F23FB181B78052BE7D9C046BD4604B080BDC04638
:4012800080B582B000AF78607B681B789AB27B6801331B789BB21B029BB213439BB21800BD4602B080BDC04690B585B000AF78600F23FB1800221A707B689B890B2293426F
:4012C00032D17B68181D7A680F23FC184023002113F0B2FC030023700F23FB181B78002B1AD17B685B681800FFF7CAFF03001A00022313409BB2002B07D00F4B1B687968D3
:40130000822252001000984706E00B4B1B6879680622FF3210009847084B1B78DBB201229343DAB2054B1A700F23FB181B781800BD4605B090BDC046782200208B2200208C
:4013400090B585B000AF78600F23FC187B681800FFF7AAFF03002370294B1B78DBB21A00012313400CD00F23FB181B78002B07D10F23FC187B681800FFF724FD030023702C
:401380001F4B1B78DBB21A00012313400CD00F23FB181B78002B07D10F23FC187B68180000F0BCFA03002370154B1B78DBB21A00012313401FD10F23FB181B78002B16D0F4
:4013C0000823FB1812229A707B689A890823FB181A800823FB180F22BA181278DA700823FA187B681100186812F03EFD03E07B68186812F0D7FDC046BD4605B090BDC04663
:401400008B22002080B582B000AF78607B68002B0AD0074B1B78DBB21A000123134003D07B68180000F068FCC046BD4602B080BD8B22002080B500AF044B00225A70034BB2
:4014400000221A70C046BD4680BDC0468822002080B582B000AF7860C046BD4602B080BD80B500AFC046BD4680BDC04680B584B000AF78600E23FB1800221A707B689B79BD
:40148000002B1CD10F23FB1800221A7012E00F23FB181B787A68D35C002B04D00E23FB1801221A700BE00F23FB181A780F23FB1801321A700F23FB181B78052BE7D90E239B
:4014C000FB181B781800BD4604B080BD80B582B000AF0200BB1D1A80C046BD4602B080BD80B582B000AF7860C046BD4602B080BD80B588B000AF02003960FB1D1A70BE4B70
:401500001B78DBB201221343DAB2BB4B1A70FB1D1B78712B00D94EE19A00B84BD3181B689F461423FB1807221A701423FB1800225A701423FB18180009F02AF91423FB18BC
:4015400007221A701423FB1801225A701423FB18180009F01DF90023002B01D007F02CF9A74B1B681800FFF781FF031E11D0A44B1B68180007F030F9A14B1B68002118007E
:40158000FFF74CFE9E4B1B6801211800FFF746FE0DE09C4B180007F01FF99A4B00211800FFF73CFE974B01211800FFF737FE032011F0A2F91023FB183F221A701023FB1845
:4015C00000225A701023FB18180011F0B3F98E4B04221A70F6E03B681800FFF739FFF1E03B681A78894B1A70ECE03B68BB61BB691B78002B00D0E0E0BB695B78002B0BD14D
:40160000834B0222DA80824B18229A80804B814A1A60BB697E4A5A60774B1B78DBB201229343DAB2744B1A70C7E0734B1B78DBB21A002023134000D0C1E0774B1B78102BA1
:4016400002D1754B0522DA70744B1B78724A1100180011F07BFA03001A000E23FB181A800E23FB181B88002B06D06D4B1B680E22BA181100362098475F4B1B78DBB2012266
:401680001343DAB25C4B1A7099E03B681800FFF727FF97E03B681800FFF722FF5A4B02221A708FE0584B04221A708BE0564B1B78022B00D185E0504B1B78DBB21A0001236E
:4016C000134000D17DE04C4B1B78DBB21A00042313400BD04C4B03221A70474B1B78DBB204229343DAB2444B1A706AE0424B1B78DBB21A00082313400BD0434B04221A7002
:401700003D4B1B78DBB208229343DAB23A4B1A7057E03D4B1B78032B53D13B4B04221A70404B1B78002B4CD10120FFF70DFD031E47D1354B03221A7043E03B681B8818001C
:40174000FFF7C4FE3EE0354A3B681000190002231A0002F0B8FD2D4B00221A70FFF780FE30E0FFF767FE2DE03B685B88162B05D81E23FB183A6852881A8003E01E23FB180D
:4017800017221A801E23FB1819883B681A8800231204120C1B0C1B041343180012F06EFB10E03B681800FFF7CBFD0BE03B681800FFF728FE06E0C04604E0C04602E0C046BD
:4017C00000E0C0460C4B1B78DBB21A00112313400ED0094B1B78DBB201229343DAB2064B1A700F4B1B68FA1D1278396810009847C046BD4608B080BD8B220020C89D0100FA
:40180000500C0020480C0020822200208422002068110020A80B00202C0D002088220020782200208A22002080B500AFC046BD4680BDC04680B500AF024B00221A80C046F6
:40184000BD4680BD7411002080B582B000AF7860034B7A681A60C046BD4602B080BDC0467011002090B587B000AF0400080011003B60FB1D221C1A70BB1D021C1A707B1D71
:401880000A1C1A701623FB1800221A80FB1D1B78032B03D8BB1D1B78012B04D91623FB1801221A8030E0FB1D1A78BB1D18781A4913005B009B181B185B00CB1804331A884F
:4018C0000823FB181A810823FB181B89002B17D07B1D1B789AB20823FB189A800823FB183A681A600823FB1800220021180013F06DF9031E08D01623FB1801221A8003E00B
:401900001623FB1801221A801623FB181B881800BD4607B090BDC046909F010090B589B000AF78601E23FB1800221A701D23FB1800221A70AD4B1B68002B00D14FE11F236D
:40194000FB1800221A703FE17B6899891F23FB181A78A74813005B009B185B00C31804331B8899420FD07B6899891F23FB181A789F4813005B009B185B00C31802331B88C0
:40198000994200D019E10C23FB187A6812881A800C23FB181F22BA1812789A707B681A1D0C23FB185A607B6899891F23FB181A788F4813005B009B185B00C31802331B8839
:4019C000994200D073E01F23FB181B78032B4ED17B685B681A22BC181800FFF751FC030023801A23FB181B88002B40D00823FA181F23FB181878130004220121FFF732FF2B
:401A0000031E34D11823FC180823FB181800FFF737FC030023800823FB1802331622BC181800FFF72DFC030023807B685B681A22BC181800FFF724FC030023801A23FB18D6
:401A40001B88002B13D01A23FA181823FB1812881B889A4207D31A23FA181623FB1812881B889A4203D91E23FB1880221A701E23FB181B78002B00D093E07B68181D7A68C6
:401A80001E23FC184023002113F0D6F8030023701E23FB181B78002B00D082E0534B1B680C22B918B622FF321000984779E07B68181D7A681E23FC184023002113F0BCF8A7
:401AC000030023701E23FB181B78002B69D11F23FB181A78464913005B009B185B00CB1802331B885A1E434913009B009B189B00CB1804331A6880235B0313401CD07B6898
:401B00005B681800FFF7BCFB03001A00012313409BB2002B08D0354B1B680C22B918D82252001000984707E0304B1B680C22B918B222FF32100098471F23FB181A782C49C8
:401B400013005B009B185B00CB1802331B885A1E284913009B009B189B00CB1804331A6880239B0313401CD07B685B681800FFF787FB03001A00022313409BB2002B08D012
:401B80001A4B1B680C22B918D92252001000984707E0164B1B680C22B918B422FF3210009847154B1B78DBB201229343DAB2124B1A701D23FB1801221A701F23FB181A786F
:401BC0001F23FB1801321A701F23FB181B78032B05D81D23FB181B78002B00D1B4E61E23FB181B781800BD4609B090BD70110020909F01003C9B01008B22002090B589B068
:401C000000AF0C243C192080080011007B600B23FB18021C1A700A23FB180A1C1A70324B1B78022B05D01E23FB180422FF321A8053E00B23FB181A782C4913005B009B1810
:401C40005B00CB1804331B885A1E294913009B009B189B00CB1810331B685B681800FFF70FFB03001A00022313409BB2002B05D11E23FB180222FF321A802EE00B23FB186D
:401C80001A781A4913005B009B185B00CB1802331A881023FB181A811023FB187A681A600A23FB181B789AB21023FB189A801E23FC181023FA180C23FB181100186812F088
:401CC00011F9030023801E23FB181B88002B04D11023FB181A89074B1A801E23FB181B881800BD4609B090BD82220020909F01003C9B01007411002080B586B000AF7860ED
:401D00001623FB1800221A702D4B1B68002B52D02C4B1B88002B4ED01723FB1800221A703FE01723FB181A78274913005B009B185B00CB1802331A88224B1B889A4229D17D
:401D40000C23FA187B681000190002231A0002F0BAFA0C23FB181722BA1812789A700C23FB1800225A60194B1B78DBB201229343DAB2164B1A70134B00221A80104B1B6846
:401D80000C22B918DA225200100098471623FB1801221A701723FB181A781723FB1801321A701723FB181B78032B04D81623FB181B78002BB5D0C046BD4606B080BDC0468A
:401DC0007011002074110020909F01008B22002080B500AF064B1B78002B04D100F00AF8034B01221A7000F0F5F8C046BD4680BD7611002080B584B000AF03210F2000F0C6
:401E000083FB5A4B19000F2000F058FB584B01221A60584B1B68002B01DA574900E05749574B574A12680A431A60564B564A1A60564B574A1A60574B00221A60564B574AED
:401E40001A60574B554A1A60564B564A1268802149020A431A60544B00221A60534B00221A60534B01221A60524B1B687B607B68514A13407B607B688022920513437B601B
:401E80007B68012293437B604A4B7A681A600023FB6063E08023DA00DC239B0113407B60FB689B00454A944663447A681A608023DB00012213400AD03B4B3B4A1168012096
:401EC000FA68904002001204120C0A431A608023DB00022213400AD0344B344A11680120FA68904002001204120C0A431A608023DA0080239B00134003D080235B00BB6024
:401F000002E080235B01BB608023DA0080235B00134005D12A4BFA6852000021D15209E0BB68002B00DA01335B1019B2244BFA685200D152BB68234A5343234A94466344BF
:401F40002249180001F00EFE03001BB21900204BFA689200D150FB680133FB60FB68002B98D0C046BD4604B080BDC046B920000020003A4080033A40700210537002005386
:401F800000003A4004003A40C4000A8018003A400000FF071C003A4010003A400200020014003A4000033A4028023A4038023A4018023A4030003A40FFFFFFDF80003A40A8
:401FC0009022002010270000E40C0000C81900008C22002080B500AF0A4B1B68002B0EDBC046094B1B68002BFBDB064B054A1268802109060A431A600A2000F037FBC046A8
:40200000BD4680BD00003A4008023A4080B500AF024B01221A60C046BD4680BD24003A4080B500AFC046BD4680BDC04680B584B000AF78600023FB607B680322134011D0D6
:402040000B4B1B6801221340FB60FB68002B03D17B6802221340F3D1FB68002B02D0044B01221A60FB681800BD4604B080BDC04610023A4080B584B000AF78607B68002BEB
:4020800002D0002000F0C0FA7B68002B09D17B689B00084A944663441B681B041B0CFB6001E00023FB60FB681BB21800BD4604B080BDC04680013A4080B582B000AF054B25
:4020C0001B687B60034B7A681A60C046BD4602B080BDC04610023A4080B584B000AF0200FB1D1A700F4B1B68DAB20F23FB1840218A431A70FB1D1B789B01DBB240221340A3
:40210000D9B20F23FB180F22BA1812780A431A70044B0F22BA1812781A60C046BD4604B080BDC0460002044080B584B000AF0200FB1D1A700F4B1B68DAB20F23FB18402104
:402140008A431A70FB1D1B789B01DBB240221340D9B20F23FB180F22BA1812780A431A70044B0F22BA1812781A60C046BD4604B080BDC0460003044080B584B000AF020094
:40218000FB1D1A700D4B1B68DAB20F23FB187F210A401A70FB1D1B78DB01D9B20F23FB180F22BA1812780A431A70044B0F22BA1812781A60C046BD4604B080BD000304400B
:4021C00080B582B000AF094B1B68DAB2FB1D7F218A431A70054BFA1D12781A60FB1D1B78DB09DBB21800BD4602B080BD1002044080B500AF00F054F8054B180000F010F8F0
:40220000032000F01BF800F041F8C046BD4680BD1522000080B500AFC046BD4680BDC04680B582B000AF7860034B7A689A64C046BD4602B080BDC0460000002090B585B0EE
:4022400000AF0200FB1D1A701623FB600B23FC1800F097FF030023700A4B0A4A12680A491140FA1D1078FA68904002000A431A600B23FB181B78180000F087FFC046BD464D
:4022800005B090BD00E400E0FFFF3FFF80B500AF024B04221A60C046BD4680BD00E100E080B500AF024B04221A60C046BD4680BD80E100E080B500AF024B04221A60C04615
:4022C000BD4680BD80E200E080B582B000AF786000F050F87B68180000F00AF8032000F015F800F03BF8C046BD4602B080BDC04680B582B000AF7860034B7A681A66C04664
:40230000BD4602B080BDC0460000002090B585B000AF0200FB1D1A700623FB600B23FC1800F02FFF030023700B4B0B4A1268C0218A431100FA1D1078FA68904002000A433A
:402340001A600B23FB181B78180000F01EFFC046BD4605B090BDC04608E400E080B500AF034B802252001A60C046BD4680BDC04600E100E080B500AF034B802252001A60C0
:40238000C046BD4680BDC04680E100E090B58BB000AF78602723FC1800F0F3FE03002370194B1A680C23FB181A60184B1A680C23FB185A607B68033B154AD35C1A000C2339
:4023C000FB189A60134B1A680C23FB18DA601C23FB18114A1A600C23FA181C23FB185A600E4B1C22BA181A600D4B0E4A1A600B4B1B682723FB181B78180000F0C6FEC04658
:40240000BD460BB090BDC04608010B4000010B40AC9F010030001040B6EA000008001040040010401700008080B584B000AF78600023FB60154B154A126801210A431A60AC
:40244000134B144A1A60144B134A1268802109020A431A607B68002B12D01023FB600CE0012000F003F900F019F8031E02D00023FB6005E07B68013B7B607B68002BEFD1E7
:40248000FB681800BD4604B080BDC04660F02E4078002E400220000010002E4080B582B000AF054B1B68012213407B607B681800BD4602B080BDC0460C002E4080B584B053
:4024C00000AF02003960FB1D1A7080239B05FB60FB1D1B781F2B02D9002000F095F8FB1D1B7810339B00FA68D3181B68BB60FB1D1B7810339B00FA68D3183A681A60BB685C
:402500001800BD4604B080BD90B587B000AF0200FB1D1A70BB1D0A1C1A70BB1D1B78032B02D9002000F070F8FB1D1B781F2B02D9002000F069F8FB1D1B7803221340DB000D
:4025400006337B611323FC1800F01BFE03002370FB1D1B789B08DBB29B00144A944663441B68FB6003227B699A401300DA43FB681340FB60BB1D1A787B699A401300FA6869
:402580001343FB60FB1D1B789B08DBB29B00074A94466344FA681A601323FB181B78180000F0F3FDC046BD4607B090BD00E400E080B582B000AF0200FB1D1A70064BFA1D7F
:4025C00012781F210A40012191400A001A60C046BD4602B080BDC04600E100E080B582B000AF0200FB1D1A70064BFA1D12781F210A40012191400A001A60C046BD4602B029
:4026000080BDC04680E100E080B582B000AF0200FB1D1A7001BEC046BD4602B080BDC04680B582B000AF786009E00D4B1B68180000F09EFD7B680B4A944663447B607A68D4
:4026400080231B029A42F0D8074B1B687A685343180000F08DFDC046BD4602B080BDC046400D00200080FFFF380D002080B582B000AF0200BB1D1A80BB1D1B88044A1278EC
:402680005343180000F074FDC046BD4602B080BD3C0D002080B500AF164B164A1268920092081A60144B144A1268920092081A60124B124A1268920092081A60104B104A7A
:4026C0001268920092081A600E4B0E4A1268920092081A600C4B0C4A1268920092081A600A4B0A4A1268920092081A60C046BD4680BDC04608000440080104400802044020
:402700000803044008040440080504400806044090B583B000AFFC1D00F033FD03002370074B074A126804218A431A6030BFFB1D1B78180000F029FDC046BD4603B090BD07
:4027400010ED00E090B583B000AFFC1D00F019FD03002370FFF79EFF114B114A1268802109060A431A600F4B0F4A128892B21A600E4B0E4A126804210A431A600C4B0C4A96
:402780001268FF218A43F1210A431A6030BFFB1D1B78180000F0F9FCC046BD4603B090BD00000B400C000B4050F1FF0F10ED00E02C000B4080B500AF0F4B0F4A12680121C1
:4027C0008A431A600C4B0C4A126802218A431A600A4B0A4A126830218A4310210A431A60064B064A126807218A4301210A431A60C046BD4680BDC04600F02E4000FF2E40B8
:4028000080B500AF0F4B0F4A126802218A431A600D4B0D4A126807218A4302210A431A60094B094A126830218A4320210A431A60044B044A126801210A431A60C046BD46C5
:4028400080BDC04600F02E4000FF2E4080B500AFFFF7B0FF044B044A1268802109060A431A60C046BD4680BD00F02E4080B584B000AF78600C4B1B6801221340FB607B6811
:40288000002B02D0012B03D005E0FFF793FF06E0FFF7B6FF03E00020FFF7B6FEC046FB681800BD4604B080BD00F02E4090B583B000AFFC1D00F065FC03002370074B074AD4
:4028C0001268C02109020A431A60FB1D1B78180000F05BFCC046BD4603B090BD00010B4080B500AF054B1A68C0231B02134001D0012300E000231800BD4680BD00010B40A7
:4029000090B583B000AFFC1D00F03BFC030023700D4B0D4A12680D490A408021C9010A431A60094B084A126808490A40802109020A431A60FB1D1B78180000F026FCC04696
:40294000BD4603B090BDC04600010B40FF3FFFFF80B582B000AF78607B68022B02D90020FFF752FE064B1A687B68DB000133DA401300012213401800BD4602B080BDC0460F
:4029800010020B4080B584B000AF786039607B68022B02D90020FFF737FE7B681800FFF7D7FF031E16D10D4B1B687A68D200032191400A00D2431340FB603B6803221A40B9
:4029C0007B68DB009A401300FA681343FB60034BFA681A60C046BD4604B080BD0C020B4080B584B000AF786039607B68002B02D07B68012B01D1012300E00023002B02D12D
:402A00000020FFF701FE7B681800FFF7A1FF031E16D10D4B1B687A68D2000232012191400A00D2431340FB607B68DB0002333A689A401300FA681343FB60034BFA681A60A6
:402A4000C046BD4604B080BD0C020B4080B582B000AF7860144B144A11687A680A431A607B680122134005D0C0460020FFF770FF031EFAD07A6880235B00134005D0C04684
:402A80000120FFF765FF031EFAD07A6880235B02134005D0C0460220FFF75AFF031EFAD0C046BD4602B080BD10020B4080B584B000AF786039607B68002B02D07B68012B77
:402AC00001D1012300E00023002B02D10020FFF79BFD174B1B689B0F9B0701D1C92300E05D231800FFF7C2FD124B1B68FB607B681B01114A9A401300DA43FB681340FB6065
:402B00000C4B7A68120139689140FA680A431A60074B1B689B0F9B0701D1432300E01F231800FFF7A3FDC046BD4604B080BDC0460C020B4008020B40FFFF000080B500AFF5
:402B4000034B1B68034A13401800BD4680BDC04610020B400404040090B585B000AF78600B23FC1800F00DFB03002370FFF7B8FE031E04D00123FB60FFF7C2FE01E0002372
:402B8000FB607B680D4A13407B600D4B0C4A12680C4911407A680A431A60094B1B68FB68012B01D1FFF782FE0B23FB181B78180000F0EBFAC046BD4605B090BD0404040055
:402BC00010020B40FBFBFBFF80B582B000AF7860084B084A11687A68074802400A431A60C046044B1B68044A1340FAD1C046BD4602B080BD10020B400808080080B500AFAD
:402C000000F036F8C046BD4680BDC04680B500AF064B064A1268802109060A431A6000F019F800F01FF8C046BD4680BD0000254080B500AF064B1B78002B04D1FFF7DEFF66
:402C4000034B01221A70FFF7E1FFC046BD4680BD7811002080B500AF0A20FFF7A9FCC046BD4680BD80B500AFC046BD4680BDC04680B500AF214B00221A60214B214A1A6038
:402C8000214B224A1A60224B00221A60214B00221A60214B1D4A1A60204B00221A600A20FFF79CFC03210A20FFF72EFC1C4B19000A20FFF703FC1B4B00221A601A4B00220F
:402CC0001A601A4B00221A60194B1422FF321A60184B00221A60184B00221A60174B10221A70174B00221A80164B00221A60164B00221A60C046BD4680BDC046000025402F
:402D0000600025407708008000032540070100800403254010032540000225400402254091310000C80E2540880E2540480F2540080F2540C80F2540880F254092220020ED
:402D400098220020A8220020AC22002080B586B000AFF860B9607A603B6004237B61BB68002B20D0374B1B78DBB2102B0CD10A20FFF734FC344B1B680122134001D00823E2
:402D800000E000237B610EE02E4B1B78DBB2602B09D12E4B1B889BB2082293439AB22B4B1A8000237B617B69002B43D1254B29221A70274B00221A60264B7A681A60264BD0
:402DC000BA681A603B68DAB2244B1A70FB685B00FF22134001221343FB601C4B1B889BB2012293439AB2194B1A801D4B1D4A1A60184B1B68072B03D81B4B04221A6009E044
:402E00001A4B1A4A1268802149000A431A60164B08221A603B680122134005D000F080F8134BFA681A6005E0114BFA681A60114B02221A600A20FFF7BBFB7B691800BD461D
:402E400006B080BD922200206400254098220020A82200209C220020B0220020B4220020000F254017030000C80F254060002540400225406800254080B500AF0A20FFF731
:402E8000ADFB084B00221A60074B1B889BB2012293439AB2044B1A800A20FFF789FBC046BD4680BDA82200209822002080B582B000AF0A20FFF792FB0B4B1B889BB27B6079
:402EC0000A4B1B78DBB220221340DBB2002B03D07B68042213437B600A20FFF769FB7B681800BD4602B080BD982200209222002080B582B000AF0A20FFF770FB074B1B884E
:402F00009BB27B60054B00221A800A20FFF750FB7B681800BD4602B080BDC0469822002080B582B000AF01237B60094B1B682022134001D0082300E000237A6813437B6092
:402F4000044B7A681A60C046BD4602B080BDC046640025406800254080B500AF074B03221A60074B802212061A60064B04221A60054B03221A60C046BD4680BD84110020DC
:402F80000000304004003040080F304080B500AF064A064B1968064B1B680B43802109010B431360C046BD4680BDC046040030408411002080B500AF064B1B78002B04D1D5
:402FC000FFF7CAFF034B01221A70FFF7DFFFC046BD4680BD8011002080B500AF00F04CF8C046BD4680BDC04680B500AF064B064A1268802109060A431A6000F019F800F081
:403000001DF8C046BD4680BD0000244080B500AF064B1B78002B04D1FFF7DEFF034B01221A70FFF7E1FFC046BD4680BD8811002080B500AFC046BD4680BDC04680B500AF52
:4030400000F07AF8C046BD4680BDC04680B582B000AF7860C046064B1B681F221340082BF9D0044B7A681A60C046BD4602B080BD080224404002244080B500AF1B4B1C4AE3
:403080001A601C4B00221A601B4B01221A601B4B1B4A1A601B4B07221A601B4B00221A601A4B01221A601A4B154A1A60194B00221A60194B04221A60184B00221A60184B9A
:4030C00000221A60174B00221A60174B00221A60164B00221A60164B00221A60144B1B689AB2144B1A80C046BD4680BD000024400F000002400024404800244000032440A5
:4031000007000080040324401003244044002440000224400402244050002440880E2440C80E2440480F2440080F2440C80F2440880F24408A11002080B500AF074B074A18
:40314000126807490A40902109040A431A60054B054A12881A60C046BD4680BD00010240FFFF0FFF880F24408A110020000000000230800803D00138FDD1C046C046C04612
:403180007047EFF3108072B6704780F31088704780B582B000AF00233B60C04B1B68002B02D0BE4B1B689847BD4B1B680122134002D0BC4B00221A60BB4B1B78DBB220229D
:4031C0001340DBB2002B38D0B84B1A6880235B0013400AD0B64B1B889BB2C022920013439AB2B34B1A8001233B60B04B1B68012213400AD0AE4B1B889BB29022920013435D
:403200009AB2AB4B1A8001233B603B68002B14D0A54B1B78DBB201221340DBB2002B01D0012300E00223A24A128892B213439AB29F4B1A809C4B00221A709B4B1B78DBB280
:4032400020221340DBB2002B00D1A4E1974B1B681022134018D0974B10221A60924B1B78DBB201221340DBB2002B01D0012300E002238F4A128892B213439AB28C4B1A805C
:40328000894B10221A70AAE1874B1B78DBB208221340DBB2002B29D0844B1B68022213400ED0844B02221A60814B1B889BB28822920013439AB27E4B1A8001233B6015E00E
:4032C000794B1B78DBB201221340DBB2002B03D0754B25221A7009E0734B24221A70764B1B68002B02D0754B10221A606E4B1B78DBB204221340DBB2002B00D113E16A4BB0
:403300001B78DBB201221340DBB2002B5BD06C4B1B680822134033D06A4B1A686A4B1B681F211940694B1B68CB18D31A7B607B68082B02D908237B601EE07B68002B1BD181
:40334000634B634A126863490A401A6008237B6001233B6010E0604B1A685C4B1B68D2185E4B1B68DBB21370584B1B685A1C574B1A607B68013B7B607B68002BEBD11EE05C
:403380004F4B1B680422134019D0534B1A684F4B1B68D218514B1B68DBB213704B4B1B685A1C4A4B1A60494B1A68464B1B689A4203D24B4B04221A6001E001233B60494B55
:4033C000494A1A60AFE0394B1B680222134032D0384B02221A60454B1B681F221A40434B196880231B020B4001D0012300E00023D2183F4B1B689A1A3D4B1A603C4B1A681A
:403400003C4B1A602A4B1B889BB28422920013439AB2274B1A80384B374A1268802149020A431A60344B344A126834490A401A6001233B6077E0324B1B681022134067D085
:4034400020E02B4B1A681C4B1B689A4221D21A4B1B685A1E264B1B689A4205D1294B40221A60164B40221A60274A284B1968204B1B68CB181B78DBB213601D4B1B685A1CDE
:403480001B4B1A60194B1B681F221340082BD8D100E0C0461B4B10221A6044E07C1100208C0E2540880E2540922200200C0F254098220020000F2540A4220020880F25408E
:4034C000CC0F25409C22002008032540A822002060002540FFFEFFFFB02200204003254068002540C00F2540ED0F00000802254094220020AC22002004022540FFFFFEFF64
:403500008C0F2540800F254040022540A0220020354B1B684022134005D0344B1A68344B1A6001233B603B68002B58D0314B314A126831490A401A60304B00221A60304B91
:4035400000221A602F4B1B78DBB202221340DBB2002B15D02C4B1B78DBB201221340DBB2002B01D0092300E00A23284A128892B213439AB2254B1A80234B60221A702EE0AE
:40358000234B244A126820210A4001D0182200E010221A6023E01C4B1B78DBB210221340DBB2002B1BD11C4B1B4A1268520052081A60154B10221A700E4B0E4A12681749CD
:4035C0000A401A600B4B0B4A126815490A401A60114B114A1268802109060A431A60C046BD4602B080BDC0468C0F254094220020AC22002060002540FFFEFFFFC80F25405A
:40360000880F2540B42200209222002098220020680025406400254000002540FF5FFFFFFFFCFFFF80B582B000AF78600A00BB1C1A80BB1C1A887B681A60C046BD4602B0A0
:4036400080BDC04680B582B000AF78600A00BB1C1A80BB1C1A887B681A60C046BD4602B080BDC04680B584B000AF494B1B78DBB21B02484A1278D2B21343FB60464B1B786C
:40368000DBB21B02454A1278D2B21343BB60BB68434A934207D1FB68072B04D1414BBB600423FB6009E0BA68D4231B019A4204D1FB68042B01D13B4BBB603B4BBA681A606C
:4036C0003A4BFA681A603A4B1B78DBB21B02394A1278D2B21343FB60FA6880239B019A4202D0FB68002B01D1334BFB60334BFA681A60334B1B78DBB21B02324A1278D2B23E
:403700001343FB60FB68304A934206D0FB682F4A934202D0FB68052B01D12D4BFB602D4BFA681A602C4B1B681B097B602B4B1B68AA2B29D17B68012B26D9214B1B78DBB2E6
:403740000E2B21D1264B1B78DBB29BB21B0299B2244B1B78DBB29AB2BB1C0A431A80224BBA1C12881A60214B1B78DBB29BB21B0299B21F4B1B78DBB29AB23B000A431A80AF
:403780001C4B3A0012881A60C046BD4604B080BDD9F0FF0FD8F0FF0FDFF0FF0FDEF0FF0F580B0000580D00006C002E4074002E40DBF0FF0FDAF0FF0F0220000078002E40B7
:4037C000DDF0FF0FDCF0FF0F0F0F000005050000050F000080002E40EC0F00F0E00F00F06DF2FF0F6CF2FF0F84002E406FF2FF0F6EF2FF0F94002E4080B582B000AF02005E
:40380000BB1D1A80BB1D1B881800FEF72FFFC046BD4602B080BDC04680B582B000AF78607B681800FEF7FCFEC046BD4602B080BD80B500AF00F0ECF8C046BD4680BDC0468E
:4038400080B500AF00F0F0F8C046BD4680BDC04680B500AF00F0E8F8044B180000F0A2F8032000F0ADF8C046BD4680BD413A000080B500AF034B180000F080F8C046BD4667
:4038800080BDC046413A000080B500AF0223FF331800BD4680BDC04680B582B000AF78602B231800BD4602B080BDC04680B582B000AF78602B231800BD4602B080BDC04619
:4038C00080B582B000AF78602B231800BD4602B080BDC04680B582B000AF78602B231800BD4602B080BDC04680B582B000AF78602B231800BD4602B080BDC04680B582B07D
:4039000000AF78602B231800BD4602B080BDC04680B582B000AF78602B231800BD4602B080BDC04680B582B000AF78602B231800BD4602B080BDC04680B500AF2B231800C0
:40394000BD4680BD80B582B000AF0200FB1D1A702B231800BD4602B080BDC04680B582B000AF786039602B231800BD4602B080BD80B500AFC046BD4680BDC04680B582B079
:4039800000AF786000F050F87B68180000F00AF8032000F015F800F03BF8C046BD4602B080BDC04680B582B000AF7860034B7A681A67C046BD4602B080BDC046000000205D
:4039C00090B585B000AF0200FB1D1A700623FB600B23FC18FFF7D5FB030023700B4B0B4A1268C0218A431100FA1D1078FA68904002000A431A600B23FB181B781800FFF778
:403A0000C4FBC046BD4605B090BDC0460CE400E080B500AF034B802252011A60C046BD4680BDC04600E100E080B500AF034B802252011A60C046BD4680BDC04680E100E00A
:403A400080B500AF16F020F8C046BD4680BDC046002243088B4274D303098B425FD3030A8B4244D3030B8B4228D3030C8B420DD3FF22090212BA030C8B4202D31212090211
:403A800065D0030B8B4219D300E0090AC30B8B4201D3CB03C01A5241830B8B4201D38B03C01A5241430B8B4201D34B03C01A5241030B8B4201D30B03C01A5241C30A8B42D5
:403AC00001D3CB02C01A5241830A8B4201D38B02C01A5241430A8B4201D34B02C01A5241030A8B4201D30B02C01A5241CDD2C3098B4201D3CB01C01A524183098B4201D34E
:403B00008B01C01A524143098B4201D34B01C01A524103098B4201D30B01C01A5241C3088B4201D3CB00C01A524183088B4201D38B00C01A524143088B4201D34B00C01AE7
:403B40005241411A00D20146524110467047FFE701B5002000F0F0F802BDC0460029F7D076E7704703460B437FD4002243088B4274D303098B425FD3030A8B4244D3030BCC
:403B80008B4228D3030C8B420DD3FF22090212BA030C8B4202D31212090265D0030B8B4219D300E0090AC30B8B4201D3CB03C01A5241830B8B4201D38B03C01A5241430B98
:403BC0008B4201D34B03C01A5241030B8B4201D30B03C01A5241C30A8B4201D3CB02C01A5241830A8B4201D38B02C01A5241430A8B4201D34B02C01A5241030A8B4201D319
:403C00000B02C01A5241CDD2C3098B4201D3CB01C01A524183098B4201D38B01C01A524143098B4201D34B01C01A524103098B4201D30B01C01A5241C3088B4201D3CB009C
:403C4000C01A524183088B4201D38B00C01A524143088B4201D34B00C01A5241411A00D201465241104670475DE0CA0F00D04942031000D34042534000229C4603098B42B2
:403C80002DD3030A8B4212D3FC22890112BA030A8B420CD3890192118B4208D3890192118B4204D389013AD0921100E08909C3098B4201D3CB01C01A524183098B4201D3F6
:403CC0008B01C01A524143098B4201D34B01C01A524103098B4201D30B01C01A5241C3088B4201D3CB00C01A524183088B4201D38B00C01A5241D9D243088B4201D34B0055
:403D0000C01A5241411A00D20146634652415B10104601D34042002B00D54942704763465B1000D3404201B5002000F005F802BD0029F8D016E770477047C046F0B556467F
:403D400044465F464D46F0B444024600C70F83B08846650A360EBA463DD0FF2E22D00023EC00802599469B46ED0425437F3E43465C025800DB0F640A000E984636D0FF2861
:403D800030D080230021E400DB041C437F38301A0190484642460843724E800030587A4013008746002D44D108239946063B9B46DDE70122FF2000241A406402C305640A3A
:403DC000D2071C431443200003B03CBC90469946A246AB46F0BD002D20D104239946033B9B46C4E7002C17D1022102E0002C0AD10121321A01924A4643460A435A48920085
:403E000082587B409746200000F004FA431F76309C4040420021BAE70321B8E7280000F0F9F9431F9D4000237630464299469B469DE70C239946093B9B4698E780240022C1
:403E4000E403FF20B9E70024C2468B465A465346022AAED0032A7DD0012A31D1012200201A400024A9E70122101A1B2856DD1A4000200024A1E78023DB031D424BD180233C
:403E8000DB032B435C02640A3A00FF2095E76D016001854230D2019A0024013A01921B220127290064006D00002901DBA84201D82D1A3C43013A002AF3D16A1E95412C430D
:403EC00001987F300028CEDD620704D00F222240042A00D00434220103D5244A019814408030FE2800DD64E70122A401640AC0B21A4062E72C00A9E72D1A1A220124CFE7E8
:403F00006B02BCD500248023DB031C436402640A4246FF2051E71C42B3D1F4E721002022C140101A8440621E94410C43620704D00F222240042A00D00434620104D50122B4
:403F400001201A40002438E70122A401640A1A40002032E78023DB031C436402640A5246FF202AE7DC9F01001CA00100FFFFFFF7F0B557464E4645464300E0B446028846C3
:403F8000760A1F0EC40F002F47D0FF2F25D0002380259A469946F600ED042E437F3F434642465D02D20F5B006D0A1B0E904640D0FF2B39D080220020ED00D20415437F3B7F
:403FC000FB1842465746591C62408C4607430F2F5CD86F49BF00C9598F46002E45D108239A46063B9946DAE7424602282DD0032800D1C3E0012800D0A2E0002500260240F0
:40400000D4B27602ED05760A2E43E407264330001CBC90469946A246F0BD002E1AD104239A46033B9946BAE72A00511E8A41901CC6E70120002DC3D0280000F0EBF8431F20
:4040400076309D4043420020BAE70124FF2514400026D6E7300000F0DDF8431F9E400023763047429A46994699E70C239A46093B994694E780260024F603FF25C1E73500C0
:404080004846B2E7350022004846AEE72904090C0800370C3604360C2C0C7943704367437443060C64183619B14203D980214902884647440004000C310409188D01681EE3
:4040C0008541890E2943350CED19AD010D43290104D5012369081D4063460D4319007F31002925DD680704D00F202840042800D00435280103D5274980330D401900FE2910
:40410000A3DC0124AD016E0A1440CDB279E78020C003064207D0054205D128434602760A4446FF256DE706437602760AFF2568E70124611A1B2905DD14400025002660E74E
:404140006346CBE72E002023CE40591A8D406B1E9D412E43730704D00F233340042B00D00436730104D5012401251440002648E70124B601760A1440002542E78026012417
:40418000F6032E437602760A1440FF2539E7C0465CA00100FFFFFFF770B5041E28D000F039F89E231B1A962B0ADC9622D21A94406202520AD8B25202520AC005104370BD5A
:4041C000992B18DC9922D21A9440114A2240610704D00F210C40042C00D00432510103D50B4B1A409F231B1A9201520AD8B2E2E700200022DFE705222500121AB921D5405F
:404200002200C91A8A40541EA2412C001443DCE7FFFFFFFB1C2101231B04984201D3000C10391B0A984201D3000A08391B09984201D30009043902A2105C40187047C0463E
:4042400004030202010101010000000000000000014B18687047C046CC1000200E4B70B500251E000D4CE41AA410A54204D0AB00F35898470135F8E716F034F8084B00258F
:404280001E00084CE41AA410A54204D0AB00F35898470135F8E770BDF0A20100F0A20100F0A20100F8A2010030B50024A24208D0035D651C0C5DA34201D0181B02E02C00AE
:4042C000F4E7002030BD002310B59A4203D0CC5CC4540133F9E710BD03008218934202D019700133FAE77047F0B58BB014001D1E129906DA802424061B191D0014002D2348
:4043000000E000230B702023149E03229E43462E07D03300453B59424B411099013ACB18109309AB049308AB0393139B00920293109B220001932B0000F02EFE0700472EE8
:4043400002D1119BDB072DD5109BFB180793462E14D13B78302B0CD1002200232000290002F0BAFB002804D10123109A9B1A139A1360139B079A1B68D318079300220023CD
:404380002000290002F0A8FB3022002802D0079B099307E0099B0799994203D9591C09911A70F7E73800099B159ADB1B13600BB0F0BDF7B52B2307000C000270861C002996
:4043C00001DA2D234C427B70092C1CDD6B46DD1D20000A21FFF7ACFC013D3031297020000A21FFF7BFFB04000928F1DC013D30342C706B4607333000AB4209D92B78013521
:4044000033700136F5E73023E4183370B01C7470C01BFEBDF0B595B00C000A920B931A9D099001F007FD036818000D9300F058FC0023129323680E900C930C99277E2B6845
:404440000722C90501D59B1800E0073393431A0008322A601A685B68A264E3640122E56CA66C6B005B080F935242C04B30000F9904F07EF8002819D10122BC4B5242300085
:404480000F9902F039FB002810D1002200233000290002F027FB002803D023002D2243331A70B34D472F0ED8B24D0CE032002B003000290004F05CF8002800D19AE1AE4D52
:4044C000472F00D8AD4D03230C9A236101339A432260002642E0672F00D193E1472F00D190E10C9A0021134312AA059211AA0392232223600691019308A963685218029289
:40450000009332002B0004970998FFF7EDFE20233A0005009A43472A00D18EE11199652F00D996E1200001393A0050301191FFF740FF129A060083182361012A00DD85E1A6
:404540002268D20700D581E1232308AA9B181B78002B03D023002D2243331A700B9B13AA009321000A9B099800F0A4F9431C02D1012040429BE12268530501D4236964E031
:40458000652F00D8CCE0A06CE16C0022002302F0A3FA00282CD00123794A0A9909980B9DA847431CE4D0119B129A934208DB2368DB0705D4236800259B0700D50FE113E15C
:4045C0000B9D0E9B0D9A0A990998A8470025431CCED0129B013B9D42ECDA220001231A320A9909980B9EB047431CC1D00135F0E7119B002B2BDC0123614A0A9909980B9ED3
:40460000B047431CB4D0119B002B05D1129B002B02D12368DB07CDD50B9E0E9B0D9A0A990998B0470026431CA2D0119B5B429E420ADA220001231A320A9909980B9FB84782
:40464000431C95D00136F0E7129B2A00ACE0A36D129E9E4200DD1E00002E05DC00230C93F343DB170F9315E033002A000A9909980B9FB847431CF1D17AE7220001231A327C
:404680000A9909980B9FB847431C00D170E70C9B01330C930F9BA26D0C993340D31A9942EBDBAE18119B129A93420DDB2368DB070AD4129B119AED18AD1B9B1A9D4200DDF1
:4046C0001D00002D09DC11E00E9B0D9A0A9909980B9FB847431CECD14AE72B0032000A9909980B9EB047431C00D141E7EF43FB1700260C930AE0220001231A320A990998AE
:404700000B9FB847431C00D132E70136119A129B0C999B1A2A000A409B1A9E42EBDB49E7129B012B02DC01231A4245D001232A000A9909980B9FB847431C00D118E70E9B40
:404740000D9A0A9909980B9FB847431C00D10FE7A06CE16C0022002302F0BEF9002801D000251AE0129B6A1C013B26E0FFFFEF7FA8A00100A4A00100B0A00100ACA0010013
:40478000B4A00100220001231A320A9909980B9FB847431C00D1EBE60135129B013B9D42F0DB2200330050320A9909980B9DA847431C00D0FEE6DBE62A000A9909980B9DBF
:4047C000A847431CEDD1D3E62200012319320A9909980B9EB047431C00D1C9E60135E368139A9B1A9D42EFDB139BE06898425EDA18005CE080236268DB00511C00D06AE6E3
:40480000073202E0002A02D10122626069E60C9908A80B430021069112A9059111A90391232109182360019300922B000497029132000998FFF758FD0500119BDA1C02DB29
:40484000626893421CDD023FFFB267E6013323617AE6662F15D16368002909DD2161002B02D12268D2071ED50133591821611AE0002B03D101222168114213D09A1C11E075
:404880006727119B129A934206DB22682361D20709D50133236106E00121002B01DC4918C91A8A182261119B0026A3654CE615B0F0BDC046F7B5170001938A680B69009095
:4048C0000C00934200DA130022003B6043321278002A01D001333B6023689B0602D53B6802333B60062523681D401ED0230043331B785A1E9341226892061CD53020E11819
:404900004331087021005A1C45310978A2184332023311700FE022000123193201990098089EB047431C0ED00135E3683A689B1A9D42F0DBDAE72200019943320098089DDB
:40494000A847431C02D10120404220E006232068E1683A6803400025042B03D18D1AEB43DB171D40A3682269934201DD9B1AED180027BD420AD0220001231A320199009881
:40498000089EB047431CDED00137F2E70020FEBDF0B58BB006920A0043320793059004920A7E0C00109B6E2A00D1ABE011D8632A22D009D8002A00D1B5E0582A00D0C5E0A2
:4049C00045310A70814A4FE0642A1DD0692A1BD0BCE0732A00D1AAE009D86F2A29D0702A00D0B3E0202209680A43226037E0752A1FD0782A33D0A9E00E001A684236111D45
:404A0000196013683370A4E021681A68080606D4490604D5111D19600023D55E02E0111D19601568002D3BDA2D23049A6D42137036E021681A68080606D4490604D515682D
:404A4000111D1960ADB202E0111D196015685F4B227E039308276F2A1DD00A271BE022007821453211705A4A19680392081D226818600D68100602D4500600D5ADB2D30710
:404A800002D520231A4322601027002D03D1202322689A4322602300002243331A7002E00A274A4B03936368A360002B09DB0422216891432160002D05D1049E002B11D084
:404AC0007BE0002D79D0049E28003900FFF746F8039B013E5B5C280033703900FEF7B8FF051EF1D1082F09D12368DB0706D563682269934202DC3023013E3370049B9B1B99
:404B000023612BE009681A68080607D4490605D5111D19601368A28A1A8004E0111D1960136862691A600023049E236116E01A68111D1960166800216268300001F0ECF9D7
:404B4000002801D0801B6060636803E0260042363270012323610023049A1370079B09AA00932100069B0598FFF7A4FE431C02D10120404227E02369320006990598079DAE
:404B8000A847431CF4D0236800259B070FD4099BE068984217DA180015E022000123193206990598079EB047431CE1D00135E368099A9B1A9D42F0DBE9E72600039B4236E2
:404BC0001B7833708EE70BB0F0BDC046B6A00100C7A001000FB40B4B13B51C68002C05D0A369002B02D1200001F090F805AB049AA1682000019301F067FD16BC08BC04B02A
:404C00001847C046CC10002070B505000E00002804D08369002B01D101F078F8AB69AC68002B02D1280001F071F8254B9C4201D16C6808E0234B9C4201D1AC6803E0224B8F
:404C40009C4200D1EC68A3891B0702D52369002B11D12100280000F0A3F800280BD0012040422BE0013B0136A360002B08DB23685A1C226019703178A3680029F2D10BE0D3
:404C8000A269934201DB0A29F1D12200280000F02FF8431CEFD1E2E7013BA360002B08DA22000A31280000F023F8431CD7D00A2004E00A2023685A1C2260187070BDC046A2
:404CC000E8A0010008A1010028A1010010B5034B01001868FFF798FF10BDC046CC1000200023C25C0133002AFBD1581E70470000F8B505000F001400002804D08369002B47
:404D000001D101F003F8234B9C4201D16C6808E0214B9C4201D1AC6803E0204B9C4200D1EC68A369A360A3891B070AD52369002B07D023682269FEB2981A636998420FDB88
:404D400008E02100280000F02BF80028F1D0012040421DE02100280000F06AFF0028F6D1A3680130013BA36023685A1C22601F706369984205D0A3893000DB0708D50A2E7A
:404D800006D12100280000F053FF0028DFD13000F8BDC046E8A0010008A1010028A10100364B70B51D6806000C00002D05D0AB69002B02D1280000F0A9FF314B9C4201D194
:404DC0006C6808E02F4B9C4201D1AC6803E02E4B9C4200D1EC680C22A35E9AB2110723D4D10607D409220120326037321343A381404242E0530713D5616B002908D0230087
:404E00004433994202D0300001F08AFB002363632422A3899343A38100236360236923600822A3891343A3812369002B0BD1A0238022A1899B0092000B40934203D021002B
:404E4000300001F021F80123A289134005D00023A36063695B42A36103E0920700D46369A36000202369834207D10C22A35E1A0603D540221343A381013870BDCC10002021
:404E8000E8A0010008A1010028A10100F0B503690C6989B00700059100269C4279DC0B00013C1433A50003935B1904930300143302935D19049B28681B68591C0193FEF766
:404EC000C7FD0190B04233D0039B02989C460696634604CB9C46019B91B25943120C5A4389190B0CD3180793069A1E0C038889B29B1802685B1A110C6A46928B8A1A191407
:404F0000521811149BB21204134308C0049B06916345DDD22B68002B0AD1029B043DAB4201D33C6104E02B68002BFAD1013CF4E70599380001F00CFA002829DB0020019BC5
:404F400002990133039A019340CA0B881818B3B2C31A0868360C000C801B1D14451928149BB22D042B4308C1049B9342ECD2029AA300D3181A68002A0AD1029A043B9A42AF
:404F800001D33C6104E01A68002AFAD1013CF4E7019E300009B0F0BDF0B516001F00446A9DB00490259D06960797002C08D1102000F0A8FF049B5862446084600460C4603E
:404FC000049B5B6A196800290BD05A68012393404A608B60049800F0E2FF0022049B5B6A1A60079B002B05DA01232B607B005B08079301E000232B60079CC84B2200199327
:405000001A409A4219D1C64B249A1360069AC54B002A02D1240300D1C34B269A1800002A01D100F07DFDD978DA1C002900D00532269918000A6000F073FD069E079F002299
:4050400000233000390001F047FD051E0ED00123249A1360B54B269A1800002A01D100F05FFDB34A26990A6000F05AFD1AAB01931BAB009332003B00049801F0EFF9630095
:4050800005905B0D09D03A03AA4C120B1443AA4A300021009E1817951AE01A9B1B9A9E18A64BF318202B08DDA54A0698B218D0404022D31A9C40204303E020220698D31AE1
:4050C000984003F0EDFA01239E4C013E0919179300229D4B02F0F8FE9C4A9D4B02F07AFC9C4A9D4B01F026FD040030000D0003F095FA9A4A9A4B02F06DFC02000B002000C7
:40510000290001F017FD04000D0003F051FA0022039000232000290001F0E4FC00280DD0039803F07BFA02000B002000290001F0D3FC43424341039AD31A039301231693EC
:40514000039B162B11D88749DB00C91808684968069A079B01F0DAFC002805D0039B013B03930023169300E016901A9B9E1B00230B93013E0C9604D50C9B5B420B93002304
:405180000C93039B002B08DB039A0C9B944663440C9300231192089307E00B9B039A9B1A0B935342089300231193229B0125092B25D8052B02DD0025043B2293229B981EBC
:4051C000032824D801F06EFC060E0204012302E0012308E000231093239B002B20DD1F000A9321E00023239A1093039B9F187B1C0A930123FA18002A16DD130014E001270A
:4052000000237F42229310950A97123305E0012701237F4210930A9711330022239203E001273B000A972397049A546A00226260043211001431994204D861685200013188
:405240006160F6E76168049800F071FE049B20605B6A1B680D930A9B0E2B00D981E1002D00D17EE1069B079C14931594039B002B31DD0F223B491340DB00CB185C681B68D7
:405280000E930F94039B02241D11EB060AD514981599354B15401A6A5B6A01F077FF069007910134304E002D0ED001231D4208D00E980F99E4183268736802F08BFB0E90ED
:4052C0000F916D100836EEE70E9A0F9B0698079901F05CFF4CE0039B02245D42002D49D0149815990F231F4A2B40DB00D3181A685B6802F06FFB0023069007911A4E2D110F
:40530000002D33D00122154205D0A4183268736802F060FB01236D100836F1E70000F07F0F270000E1A00100D8A00100B4A00100B5A001000000F03F01FCFFFF320400000E
:4053400012040000000010FE0000F83F61436F63A787D23FB3C8608B288AC63FFB799F501344D33F50A1010028A20100002B01D006900791169B002B1DD0069D079E00221A
:40538000C74B2800310001F0ADFB002813D00A9B002B10D0002F00DCDFE0039B3100013B0E930022BF4B280002F014FB0134069007913E0002E0039B0A9E0E93200003F0E6
:4053C0002DF9069A079B02F005FB0022B64B01F0B1FBB64A12901391129C139D9446139B634418931D00002E1CD1069807990022AF4B02F069FD2200189B0690079101F037
:4054000085FB002800D054E2AA481399844661440B0006980799220001F064FB002800D03DE29AE0109A731EA349DB00002A49D0CB181A685B680020A04901F0A7FE2B002E
:40544000220002F041FD129013910D9D0698079903F0AEF8040003F0E1F802000B000698079902F031FD01356B1E30341C70129A139B0690079101F035FB002800D02EE377
:40548000069A079B0020864902F01EFD129A139B01F028FB002800D0C7E00D9BEB1AB3425BDA1298139900227E4B02F093FA002212901391069807997A4B02F08BFA069092
:4054C0000791C3E7C9182200086849682B0002F081FA0D9C12901391A5190698079903F067F8060003F09AF802000B000698079902F0EAFC30362670013406900791002242
:40550000A54222D16D4B1298139901F013FB02000B000698079901F0F9FA002800D084E0129A139B0020654902F0CEFC02000B000698079901F0D6FA00280ED06B1E1A78E8
:40554000302A00D0CBE21D00F8E706980799554B02F040FA06900791BFE7149B159C069307941B9B002B00DA81E0039A0E2A00DD7DE0D300504AD3185C681B6808930994E4
:40558000239B002B15DA0A9B002B12DC00D088E1089809990022464B02F01CFA069A079B01F0BEFA0A9B08931E00002800D07BE182E10D9D069E079F089A099B300039007C
:4055C00001F0E4FD02F0F4FF040003F027F8089A099B02F0FFF902000B003000390002F073FC220001356B1E30321A700D9B0A9AEB1A9A422ED102000B0001F09BFA060045
:405600000F0002000B000898099901F06BFA00280FD10898099932003B0001F05DFA002800D15EE2E30704D45BE20E9B039300E01D006B1E1A78392A08D10D9A9A42F7D1A1
:40564000039A0D990132039230220A701A7801321A7046E20022134B02F0BCF90022002306000F0001F038FA0028A5D039E2109A002A44D0229A012A0BDC179A002A02D01D
:405680000F4A9B1802E036231A9A9B1A089D0B9C29E00A9B5D1E089BAB4213DB5D1B18E00000F03F0000244000001C400000C0FC000014400000C07C50A101000000E03F8B
:4056C00033040000089B0895EA1A0025119B9B1811930A9B002B04DA0B9B0A9A9C1A002301E00B9C0A9B0B9A0121D2180B920C9A0498D3180C9300F0F2FC060002E0089D84
:405700000B9C109E002C0ED00C9B002B0BDD0C9A2300944200DD13000B9AE41AD21A0B920C9AD31A0C93089B002B20DD109B002B17D0002D11D031002A00049800F062FD87
:40574000059A01000600049800F0D2FC05990E90049800F024FC0E9B0593089B5A1B06D000E0089A0599049800F04CFD05900121049800F0B4FC119B0890002B00D1C0E149
:405780001A000100049800F03DFD229B0890012B17DC0025069BAB420ED1079B1B03AB420AD1199B079A134206D00B9B013501330B930C9B01330C93119B0120002B0DD0FD
:4057C00000E00025089B089A1B690E9303339B00D318586800F039FC2023181A0C9BC0181F23184009D001331B1A042B02DD1C23181A03E0042B08D018001C300B9B24181A
:405800001B180B930C9B1B180C930B9B002B05DD1A000599049800F049FD05900C9B002B05DD1A000899049800F040FD0890169B002B1DD00899059800F08AFD002817DAE5
:40584000039B0A22013B039305990023049800F0BFFB109B0590002B00D159E1310000230A22049800F0B4FB0600002F37DC33E00A9B0A9F002B2ADC229B022B27DD002F5D
:4058800012D108993B000522049800F0A1FB08900100059800F05CFD00280DDC04E0089602E000231E000893239B0D9DDB4303930AE00E9B089603930D9B0D9A5D1C31230B
:4058C0001370039B013303930A960026F3E0109B002B04D10D9DB5E0229B022BCFDC002C05DD31002200049800F0E0FC06000A96002D12D07168049800F019FB3100040079
:4059000033690C319A1C92000C30FEF7DCFC01222100049800F0CAFC0A900D9B7D1E0B935B190E9308990598FFF7B0FA310010900400059800F00CFD0A9A050008990498E8
:4059400000F021FD01230C93C36830340700002B04D10100059800F0FBFC0C903900049800F01DFB0C9B229A134308D1069A0133134204D1392C2AD0002D1CDC1DE0002D84
:4059800006DB229B1D431BD10123069A134217D10C9B002B11DD05990122049800F086FC0899059000F0D4FC002802DC05D1E30703D5392C0BD0109C31340B9B5D1C0FE07A
:4059C0000B9B5F1C0C9B002B0CDD392C05D10B9B0B9A5D1C3923137057E03D000B9B01341C7068E00B9B0E9A3D001C7093423CD000230A220599049800F0EAFA0A9B05903B
:405A00009E4208D1310000230A22049800F0E0FA06000A900DE0310000230A22049800F0D7FA002306000A220A99049800F0D0FA0A900B9776E700230A220599049800F0FD
:405A4000C7FA059008990598FFF720FA0D9B3030287001350400EB1ABB42ECDB3D1E00DC01250A9600260D9B5D1905990122049800F01CFC0899059000F06AFC002804DCA5
:405A800013D1E30701D410E01D006B1E1A78392A08D10D9A9A42F7D1039B013303933123137008E001321A7005E06B1E1A78302A01D11D00F9E70899049800F070FA0A9B4B
:405AC000002B0ED0002E05D09E4203D03100049800F065FA0A99049800F061FA01E00E9B03930498059900F05AFA00232B70039B249A01331360269B0D98002B10D01D60F4
:405B00000EE0229B012B00DC43E6119D012065E6002F00DDDEE6229B022B00DCDAE6AEE61DB0F0BDF7B58A8905000C0013075AD44B68002B02DC0B6C002B19DDE76A002F1F
:405B400016D000232E682B6080235B011A4001D0606D14E00123216A2800B847431C0ED12B68002B0BD01D2B01D0162B02D12E6000205AE04022A3891343A38155E0A389E5
:405B80005B0706D56368C01A636B002B01D0236CC01A00230200216A2800E76AB847A389421C06D129681D293AD8204ACA40D20736D50022626022692260DB0405D5431CFD
:405BC00002D12B68002B00D16065616B2E600029CED023004433994202D0280000F0A0FC0020606321E00F69002FC1D00B680F60DB1B01930023920700D14B69A36003E0B3
:405C0000019B3F181B1A0193019B002BB0DD019B3A00216A2800A66AB0470028F0DCA389402201201343A3814042FEBD010040200B6970B505000C00002B01D100201CE046
:405C4000002804D08369002B01D100F05FF80B4B9C4201D16C6808E0094B9C4201D1AC6803E0084B9C4200D1EC680C22A35E002BE4D021002800FFF755FF70BDE8A001008E
:405C800008A1010028A1010010B5024900F0B0F810BDC046315C0000002310B5040003604360836081814366C281036143618361190008225C30FEF70FFB054B2462636250
:405CC000044BA362044BE362044B236310BDC046256900004D69000085690000B169000070B568254B1E5D430E002900743100F063FC041E08D000212A00016046600C305A
:405D0000A0606832FEF7E8FA200070BD836913B50400002B28D18364C3640365134B144A1B6882620193984201D101238361200000F020F86060200000F01CF8A0602000BC
:405D400000F018F80022E06004216068FFF7A4FF01220921A068FFF79FFF02221221E068FFF79AFF0123A36113BDC046A0A00100895C0000F8B51D4B06001D68AB69002B21
:405D800002D12800FFF7C2FF4835AC686B68013B05D40C22A75E002F10D06834F7E72B68002B01D02D68F0E704213000FFF798FF28600028F6D10C23336016E001232000AC
:405DC0005B42E3810233A38167662760A760676027616761A7615C3008223900FEF77CFA20006763A763A764E764F8BDA0A00100F7B504000700002601914834002C16D038
:405E00006368A5680093009B013B00930DD4AB89012B08D90E22AB5E013304D029003800019B984706436835EDE72468E6E73000FEBD000000487047D010002070B50E001E
:405E40001D000E23C95E90B01400002906DA00232B60B3891B060FD540230FE001AA00F0D3FD0028F3DBF023029A1B021340054A9B185A4253412B608023DB0000202360B1
:405E800010B070BD00E0FFFFF7B502268B8905000C00334210D101AB6A46FFF7CFFF00990700280000F088FB00280CD10C22A35E9A0523D43343A381230047332360236165
:405EC000012363611AE080220D4BAB62A38920601343A381009B20616361019B002B0AD00E23E15E280000F0A1FD002803D00122A3891343A381A3891F43A781F7BDC046B8
:405F0000895C000010B5034B0100186800F054FB10BDC046CC100020C9B28218904204D003788B4202D00130F8E70020704770B5466A04000D00002E07D11020FFF7E2FF2B
:405F40006062466086600660C660666AF368002B09D0636AAA00DB689B18186800280ED002681A6017E021220421200000F0CAFA636AF060DB68002BEBD100200EE0012197
:405F80000E00AE40721D9200200000F0BBFA0028F3D04560866000230361C36070BD70B5456A06000C00002D07D11020FFF7AAFF7062456085600560C560002C07D0726A33
:405FC0006368D2689B00D3181A6822601C6070BDF7B5070008000C000D691E00002101921430019A0388013153439B190668360C56431A0C9446B4446246160C1204944679
:406000009BB2634408C08D42EBDC002E1BD0A3689D4212DB63683800591CFFF788FF2100236901909A1C92000C310C30FEF74BF921003800FFF7B3FF019C2B1D9B00E31875
:4060400001355E6025612000FEBD00220300010C914201D103041032190E01D108321B02190F01D104321B01990F01D102329B001000002B03DB20205B0000D5501C70471A
:406080000722036810B501001A400CD001240020234223D10222134203D0E34020000B601CE09B0818E098B2002801D110221B0CD8B2002801D108321B0A180701D104327A
:4060C0001B09980701D102329B08D80704D45B082020002B02D0013210000B6010BD10B50C000121FFF723FF01234461036110BDF0B50B691400126989B00D00934201DABF
:4061000025000C002F692669AA68BB1969680193934200DD0131FFF70AFF0200BB1914329B00D3189C46002113000290634501D202C3FBE71435BF00EB191434B6000593CB
:40614000A31903950793079B9C4251D2208800281ED015000026039F08CF069504936B461B8A434319002B88CB1804999B19090C41432E68360C89191E0C89190E0C9BB2C8
:4061800009040B4308C5059BBB42E5D8069B5E6023681D0C1FD0002110001368039F04913E8801686E43090C7118049E9BB289190E043343036008CF86881B0C6B43090CAF
:4061C0009B195B18190C0491059906900430B942E6D806994B6004340432B4E704235B429C4463461B68002B05D1019B013B0193019B002BF2DC029B019A18001A6109B0F4
:40620000F0BD00000323F7B5134005000E001400002B08D02349013B9A00525800233100FFF7D6FE0600A310019338D06C6A002C07D11020FFF766FE6862446084600460E9
:40624000C4606F6ABC68002C10D117492800FFF746FF0023B8600400036007E0019B5B1001931CD02068002810D004000122019B1342F3D0310022002800FFF739FF070002
:4062800031002800FFF78BFE3E00E7E7220021002800FFF72DFF002320600360E5E73000FEBDC04618A2010071020000F0B50C0017002369551185B0EB180193013300932F
:4062C0004968A3680290009A934202DA01315B00F9E70298FFF72BFE00230200060019001432AB4203DA980011500133F9E7EB43DB171D402300AD0055192269143392005F
:406300009A1894461F22174014D00132D21B0392002219682800B9400A4304C504CB0399CA409C45F5D84260002A07D0019B0233009303E004CB04C59C45FBD8009B029838
:40634000013B33612100FFF72AFE300005B0F0BD03690A6910B59B1A0400181E12D1930014341431E218C918043A043913680868834204D083429B410120184302E0944237
:40638000F2D3002010BDF0B50C0085B00700110020001500FFF7DCFF061E07D101003800FFF7C5FD01234661036155E000230193984204DA23002C001D000123019361687A
:4063C0003800FFF7B4FD019B26692F00C3601434B300E318020002932B69002514379B00FB180393143208CC69469C4608CF0432009363468B808B885D19009B9BB2EB1AF7
:4064000065460193009B2D0C190C019B691A1D14131F9C466B4649199B880D1409040B4361460B60039BBB42DDD8029913008C420BD202CC8BB25B191D14090C49190D140B
:406440009BB209040B4308C2EFE7043B1A68002A01D1013EF9E7066105B0F0BDF7B51D000121089F1400FFF762FD2B036D0006001B0B6D0D02D08022520313430193002C14
:4064800018D068460094FFF7FBFD009C002809D0019B20211A00091A8A40C34022437261019300E07461019CB461631E9C410134346107E001A8FFF7E3FD0124019B346129
:4064C00073612030002D06D00B4BED1835232D183D60181A0BE0094BC018094B3860E3189B00F3185869FFF7B0FD6401201A099B18603000FEBDC046CDFBFFFFCEFBFFFF6D
:40650000FFFFFF3F4A4370B51100140000F054F8051E03D022000021FDF7DEFE280070BD70B50500002944D00C1F2368002B00DAE418280000F0A0FA1E4A13681100002BBF
:4065400002D16360146031E0A3420DD92268A018834203D118685B688218226063600C6024E0A24203D813005A68002AF9D11E689819A0420BD1216871185818196082428C
:4065800014D110685268411819605A600EE0A04202D90C232B6009E021686018824203D1106852684118216062605C60280000F064FA70BD74220020032370B5CD1C9D435A
:4065C000083506000C2D01D20C2501E0002D01DBA94202D90C23336048E0300000F04CFA234B1C681A002100002913D00B685B1B0DD40B2B02D90B60CC181EE08C4202D119
:40660000636813601AE04B6863600C0016E00C004968E9E7174C2368002B03D1300000F06FF920602900300000F06AF9431C18D00323C41C9C43A0420DD12560300000F0EB
:406640001CFA200007220B30231D9043C31A0ED05A42E2500BE0211A300000F051F9431CEBD10C233000336000F007FA002070BD7422002070220020936810B5013B9360B2
:40668000002B05DA9469A34208DBCBB20A2B05D01368581C10601970C8B201E0FEF728FB10BDF8B506000F001400D518AC4208D021783A003000FFF7DFFF0134431CF5D1A2
:4066C00000E00020F8BD0000F0B59FB006000F0002920593002804D08369002B01D1FFF715FB7F4B9F4201D1776808E07D4B9F4201D1B76803E07C4B9F4200D1F768BB89E8
:406700001B070AD53B69002B07D0002306AD6B6120336B761033AB763DE039003000FEF73FFB0028F1D001204042D6E0059A111D12680591002A00DA7FE0099201342378D6
:406740002E2B00D18DE0217803226848FFF7E4FB002807D0654B2A68C01A4023834013432B6001342178631C0622614802932976FFF7D2FB002800D19DE05E4B002B00D0EE
:4067800090E00722059B07339343083305936B69039A9B186B61029C2378002B04D1029BE31A049312D003E0252BF8D00134F3E7049B029A39003000FFF773FF431C00D13B
:4067C00086E06A69049B944663446B612378002B7ED00122002352426A6002A95432521801342B60EB60AB601370AB65217805224148FFF791FB002808D03F4B2A68C01AB7
:406800000123834013432B600134EFE72B68DA0604D55322202102A8121811701A0704D553222B2102A81218117022782A2A00D17CE7099B00200A2105E05242EA60022226
:4068400013432B607AE72278303A092A04D84B4301349B180120F6E7002800D16FE709936DE763782A2B0AD1059B02341A1D1B680592002B01DA01235B42079363E7002310
:406880000A201A0001346B6021783039092904D84243013452180123F6E7002B00D152E7079250E705AB00933A00144B29003000FDF7B0FD07E005AB00933A000F4B29009D
:4068C0003000FEF765F80390039B013300D05EE7BB895B0600D526E70B981FB0F0BDC046E8A0010008A1010028A1010056A201005AA201001544000050A20100A3660000A8
:40690000002370B5064C050008002360FAF744F9431C03D12368002B00D02B6070BDC046B822002070B50C000E25495F00F0A6F8002803DB636D1B18636503E0A289024BC8
:406940001340A38170BDC046FFEFFFFFF8B51F008B8905000C001600DB0505D50E23C95E0022022300F074F8A289054B28001340A38132000E23E15E3B0000F01FF8F8BD12
:40698000FFEFFFFF70B50C000E25495F00F060F8A389421C03D1054A1340A38104E0802252011343A381606570BDC046FFEFFFFF10B50E23C95E00F015F810BD70B505002B
:4069C000080011000022064C22601A00F9F7C2FE431C03D12368002B00D02B6070BDC046B8220020002370B5064C05000800236001F08EFE431C03D12368002B00D02B6062
:406A000070BDC046B8220020002370B5064C050008001100236001F083FE431C03D12368002B00D02B6070BDB8220020002370B5064C05000800236001F07AFE431C03D14B
:406A40002368002B00D02B6070BDC046B822002070B50500080011000022064C22601A0001F06EFE431C03D12368002B00D02B6070BDC046B82200207047704770B505001F
:406A8000080011000022064C22601A0001F060FE431C03D12368002B00D02B6070BDC046B822002002B4714649084900095C49008E4402BC7047C0468446101C62468C467B
:406AC000191C634600E0C0461FB500F019FF002801D40021C8421FBD10B500F06DFE4042013010BD10B500F00BFF002801DB002010BD012010BDC04610B500F001FF0028D1
:406B000001DD002010BD012010BDC04610B500F093FE002801DC002010BD012010BDC04610B500F089FE002801DA002010BD012010BDC046F8B556465F464D464446F0B49B
:406B40000F00FD0FAA4609037C002E005F00450F490A7F0D2943C5001803BC46400A570F640DDB0F3843D2009A4500D1AAE06646A61B002E00DCFFE06346002B39D10300AB
:406B8000134300D0D9E06B0709D00F232B40042B05D02B1DAB42AD416D4249191D000B0200D482E0CA4B01349C4200D1FEE00A005646C84BED081A4050076405520205433B
:406BC000120B640D002112030B0D1B056405120B1A436308C04CF60714401C43640064083443280021003CBC90469946A246AB46F8BDB74B9C42C6D080231B041843382ECB
:406C000000DDEBE01F2E00DD1EE120239B1B9C4603006746BB40984613004746F3403B436746BA40571EBA4113430200F240EB1A9D42B6411D008A1A7642911B0B0231D51A
:406C40004A02560A002E00D1B4E03000FDF7E2FA0300083B1F2B00DDB5E020222900D21AD1409E400A009D4032439C4200DDB1E01C1B631C1F2B00DDD5E0202114002800D6
:406C8000C91A8C40D8408D400443DA40681E854111002543002476E74146314300D134E2310045466B0700D06FE756464807ED08C9080543864B9C4235D00A036405120B23
:406CC000640D7FE76346E31A9B46002B00DC8BE06746002F3CD07E4FBC4200D153E780273F0438435B46382B00DCF7E00243501E82410020D2B253194218AB4289411D0036
:406D0000494289180B02CDD5714B01349C4200D13DE101206F4A6B080A4028401843D507054351082FE72B000B4300D1CBE180231B030B431A03120B44E7013E002E6DD1B8
:406D4000AE1AB5429B41091A5B42C91A350075E70700174300D116E701235B429C46E3445B46002B00D0E0E0AA18AA429B4109185B4259181500C5E7002E75D1661C760504
:406D8000760D012E00DCF3E0AE1AB0464545BF410E1A7F42F61B370200D48FE0551BAA42B641411A76428E1B9A464BE756460022002507E72800FDF72DFA20300300083BE9
:406DC0001F2B00DC49E72A002838824000259C4200DC4DE73F49E41A1140D4E60243501E8241D3B2002222E7002B00D0F3E0631C9C465B055B0D012B00DC9FE0344B9C4549
:406E000000D1C3E0AA180918AA42804140424118CD075208154349086446B4E62C4B9C4200D0ECE6AFE611001F3CE1400C00202B00D17FE04021CB1A9A4015436A1E9541E2
:406E40000021254300242DE733000700203BDF403B00202E70D04027BE1BB0400243501E824113430022E2E6002C4FD0184CA44500D1ABE08024240476422143382E00DDCF
:406E8000DFE01F2E00DD43E12027BC1BA1460C004F46BC40A0462C004746F4403C434F46BD406F1EBD41F1402C43151BAA429241411A5242891A64469A46BFE64146454652
:406EC000314300D0BEE6002600240025F2E6C046FF070000FFFF7FFFFFFF0F801F2B59DC2027FF1ABC46070063469F405B46B9461700DF40B8464F4643461F4363469A4007
:406F0000531E9A415B463A43D840F4E60C002C435CD0F643002E55D1551BAA42A441411A6442091B9A46644688E6964FBC4200D0D8E628E6002280E700208FE70B002B434C
:406F4000002C00D0C2E0002B00D101E10300134300D118E6AB18AB42B6410918764271180A0200D409E1884A1D00114064460AE6002C5BD10E002E4300D08AE0010011435A
:406F800000D1C2E0010015009A46FCE56446002100258FE620235B429C46DC4463460700DF405B46BC46202B00D1ACE040235F46DB1B98400243501E8241634613431A00C1
:406FC000002098E66F4CA44500D057E70100150064469A46D7E5002C39D10C002C436ED0DB43002B1AD0674CA44568D0382B00DDA4E01F2B00DDAEE020240F00E41AA7403E
:40700000B9462F00DF40B846A3464F46444627435C46A5406C1EA541D9403D43AD1895429B4109185B42591864466BE60C002C4315D1010011437BD0010015009A46514CCD
:40704000A1E50D43691E8D410021ECB22DE74D4CA44534D0802424045B422143C6E7040014434ED0ED084C072C438025C9082D03294208D0C6082E4205D1D208410711436F
:407080000C009A463100620FC900E50011433D4C79E50600164300D175E5AE1AB0464545BF410E1A7F42F61B370200D4F4E5551BAA42B641411A7642891B9A4663E5010074
:4070C000150064465FE5002200257BE5002B3BD00300134315D0ED084B072B438025C9082D03294207D0C4082C4204D141070B002100D2081343C9005A0F1143DD00214C52
:4071000041E5204C3FE5002054E700260025D1E534000F00203CE7403C00202E2BD04027BE1BB1400D43691E8D4100212C43BCE6802100260903134C0025BBE50D43691E1C
:407140008D410021EDB269E7010015000D4C1AE50100150017E51C000F00203CE7403C00202B0CD04027FB1A99400D43691E8D410021254352E70021D4E71D0092E5002153
:40718000F3E7C046FF070000FFFF7FFFF0B556464D4644465F46F0B41D000E034C00CB0F87B0070092468146360B640D98466AD06D4B9C4235D08022430F12041343F600DA
:4071C0001E43C3009946694B00279C460023644402932B0368001B0BED0F51469B46400D009500D178E0604B98426CD05B46DA004B0F802109040B4313439B465346D900F9
:407200005A4B9C46002360444246201A6A40924601901F430F2F00D9B0E05548BF00C0598746374300D088E0002399460233082700260293CDE74346B34649460093029B18
