:400000000080002011000000CD030000CD03000080B500AF00F0E4F980B500AF2D4B12221A6000F045FC2C4B180000F071FD012000F04EFC302000F057FA284B284A1A604B
:40004000284B8022D2051A60274B274A126802210A431A60254B264A1A60264B00221A60254B254A126808218A431A60FA23DB00180000F02BFB214B180000F0B9FB204BEA
:40008000E82252011A601F4B1F4A1A601F4B802292001A601B4B1E4A1A601E4B802212061A601D4B8022D2021A601C4B41221A601B4B40221A601B4B1900082000F050FB5F
:4000C000082000F073FB074B8022D2051A60C046BD4680BD30001040001BB70004010B40060000800C020B4078002E407C002E407171000064F02E406CF02E40DC0500004F
:40010000040301400000014041FF00800003014040FF008008010B4000010B400801014004010140250A000080B582B000AF72B63F4B00221A603F4B01221A70FB1D00223F
:400140001A7022E0FB1D1A7813005B009B185B00394A9B183B603B681A78597809020A43997809040A43DB781B06134318003B681A795B791B0213439BB2190000F0C0F8C6
:40018000FB1D1A78FB1D01321A70FB1D1B78012BD8D92A4A2A4B1100180000F0C1F8294BEE2212061A60284B284A1A60284BEE2212041A60274B992212041A60264B99220C
:4001C00012041A60254B992212041A60244B06221A60244B06221A60234A234B1B78DBB206210B43DBB21370204B10221A60204B204A1A60204BD0221A60204B204A1A6086
:40020000204BD0221A60204B70221A601F4BC92292031A601E4B01221A601E4B04221A60FFF7FAFE00F0BEF8C046BD4602B080BD6CF02E401C700F409C0B0000B80B000062
:40024000A80B000000000240000102400000FFFF0003024000500F4010500F4030500F402000104000800F4000700F40000004400800044000C0D80000010440080104402E
:4002800000E0D800180104400003044008030440000404400804044010B5064C2378002B07D1054B002B02D0044800E000BF0123237010BD5001002000000000980B000076
:4002C000084B10B5002B03D00749084800E000BF07480368002B00D110BD064B002BFBD09847F9E70000000054010020980B0000C80000200000000080B500AFFEE7C04651
:4003000080B582B000AF786039603A687B680021180000F039FCC046BD4602B080BDC04680B586B000AF7860396000233B6100237B612FE07B699B007A68D3181B68BB6013
:400340000F23FB18BA681A70BB68FF229343BB6018E03B695B003A68D3181B781A00BB68D31819003B695B003A68D3185B780B703B6901333B610F23FB181A780F23FB1895
:40038000013A1A700F23FB181B78002BE1D17B6901337B617B69032BCCD9C046BD4606B080BDC04680B500AF054B03221A60054B03221A60044B00221A60C046BD4680BD23
:4003C0003000304030003140000E3F4080B500AF00F0AEFB03001B680C2B00D1FEE7FEE780B586B000AF224B7B61224B3B61204B7B6135E03B691B68FB603B695B68BB608E
:400400003B699B683B6000237B600CE0FB681A68BB681A60BB680433BB60FB680433FB607B6804337B607A683B689A42EED13B69DB683B6000237B6008E0BB6800221A6068
:40044000BB680433BB607B6804337B607A683B689A42F2D13B6910333B617B69013B7B617B69002BC6D100F069FBFFF745FFFEE701000000280C000080B582B000AF154BAB
:40048000144A126801218A431A6000237B600FE07B68032B04D8104B7A689200D35800E00E4B0F4A796889008B507B6801337B607B682F2BECD9FFF737FE0A4B00221A6040
:4004C000044B044A126801210A431A60C046BD4602B080BD0000104000000000CD03000000000020C000002090B585B000AF78600C23FC1800F015FB030023707B68022BFA
:4005000000D8AFE07B68302B00D9ABE05C4B1B78DBB21A007B689A420AD35A4A0F23FB1812781A70584A0E23FB1812781A703FE0564B1B78DBB21A007B689A420AD3544A0A
:400540000F23FB1812781A70524A0E23FB1812781A702DE0504B1B78DBB21A007B689A420AD34E4A0F23FB1812781A704C4A0E23FB1812781A701BE04A4B1B78DBB21A0007
:400580007B689A420AD3484A0F23FB1812781A70464A0E23FB1812781A7009E0444A0F23FB1812781A70434A0E23FB1812781A707B68DA1E0B23FB183F498A5C1A700B23D5
:4005C000FB181B782F2B0DD97B682A2B0AD93B4B19221A60052000F09BFA0D23FB1819221A7007E0354B1B68DAB20D23FB183F210A401A700B23FA180D23FB1812781B7880
:400600009A4208D22D4B7A68033A2B498A5C1A60052000F07DFA2A4B7A6826498C4662441278D2B21A60274B0F22BA1812781A60254B0E22BA1812781A60052000F0D8F873
:400640000B23FA180D23FB1812781B789A420CD91A4B7A68033A18498A5C1A60052000F057FA02E0002000F0B7F80C23FB181B78180000F05AFAC046BD4605B090BDC0468B
:4006800040F3FF0F41F3FF0F42F3FF0F43F3FF0F44F3FF0F45F3FF0F46F3FF0F47F3FF0F48F3FF0F49F3FF0F4AF3FF0F4BF3FF0F4CF3FF0F4DF3FF0FD40B00002CFF0B40FC
:4006C00028FF0B401CFF0B4020FF0B4080B584B000AF78600023FB60154B154A126801210A431A60134B144A1A60144B134A1268802109020A431A607B68002B12D0102326
:40070000FB600CE0012000F073F800F019F8031E02D00023FB6005E07B68013B7B607B68002BEFD1FB681800BD4604B080BDC04660F02E4078002E400220000010002E401E
:4007400080B582B000AF054B1B68012213407B607B681800BD4602B080BDC0460C002E4080B584B000AF02003960FB1D1A7080239B05FB60FB1D1B781F2B02D9002000F0FF
:400780002BF8FB1D1B7810339B00FA68D3181B68BB60FB1D1B7810339B00FA68D3183A681A60BB681800BD4604B080BD80B582B000AF0200FB1D1A70064BFA1D12781F2195
:4007C0000A40012191400A001A60C046BD4602B080BDC04600E100E080B582B000AF0200FB1D1A7001BEC046BD4602B080BDC04680B582B000AF0200BB1D1A80BB1D1B88FD
:40080000044A12785343180000F082F9C046BD4602B080BDD400002080B500AF0F4B0F4A126801218A431A600C4B0C4A126802218A431A600A4B0A4A126830218A4310215E
:400840000A431A60064B064A126807218A4301210A431A60C046BD4680BDC04600F02E4000FF2E4080B500AF0F4B0F4A126802218A431A600D4B0D4A126807218A430221E5
:400880000A431A60094B094A126830218A4320210A431A60044B044A126801210A431A60C046BD4680BDC04600F02E4000FF2E4080B500AFFFF7B0FF044B044A12688021D2
:4008C00009060A431A60C046BD4680BD00F02E4080B584B000AF78600C4B1B6801221340FB607B68002B02D0012B03D005E0FFF793FF06E0FFF7B6FF03E00020FFF76CFFA2
:40090000C046FB681800BD4604B080BD00F02E4090B583B000AFFC1D00F003F903002370074B074A1268C02109020A431A60FB1D1B78180000F0F9F8C046BD4603B090BDA5
:4009400000010B4080B500AF054B1A68C0231B02134001D0012300E000231800BD4680BD00010B4090B583B000AFFC1D00F0D9F8030023700D4B0D4A12680D490A40802185
:40098000C9010A431A60094B084A126808490A40802109020A431A60FB1D1B78180000F0C4F8C046BD4603B090BDC04600010B40FF3FFFFF90B585B000AF78600B23FC182F
:4009C00000F0AFF803002370FFF7BCFF031E04D00123FB60FFF7C6FF01E00023FB607B680D4A13407B600D4B0C4A12680C4911407A680A431A60094B1B68FB68012B01D174
:400A0000FFF786FF0B23FB181B78180000F08DF8C046BD4605B090BD0404040010020B40FBFBFBFF80B500AF344B1B68042213401FD0334B1B680422134017D0314B1B68C8
:400A400004221340DA432E4B1B681A402C4B1A602C4B1B68042293431A002A4B1A602A4B1B68002B02D0284B1B6898470420FFF7A1FF224B1A688023DB00134022D0204BF9
:400A80001A688023DB00134017D01E4B1A688023DB001340DA431A4B1B681A40184B1A60184B1B68194A1A40164B1A60164B5B68002B02D0144B5B6898478023DB001800CE
:400AC000FFF778FF0D4B1A688023DB02134011D00B4B1A688023DB02134006D00A4B9B68002B02D0084B9B6898478023DB021800FFF760FFC046BD4680BDC04610020B405A
:400B0000E40000207401002078010020FFFBFFFF0230800803D00138FDD1C046C046C0467047EFF3108072B6704780F310887047014B18687047C046480100200E4B70B5AB
:400B400000251E000D4CE41AA410A54204D0AB00F35898470135F8E700F054F8084B00251E00084CE41AA410A54204D0AB00F35898470135F8E770BD100C0000100C0000A0
:400B8000100C0000180C000003008218934202D019700133FAE770470000000000300F40000400400F40000401330F4002400F4006410F4004430F40E6800D01C220690245
:400BC0006C0288029102DA80DC200E018A01C201E6010000030405060708090A0B0C0E0F101112131415161718191B1C1D1E1F2021222325262728292A2B2E2F3031323349
:400C000034354300F8B5C046F8BC08BC9E467047C102000079040000F8B5C046F8BC08BC9E46704799020000380C0000C8000020880000004800000000000000006CDC025B
:400C400080BB0000300000000000C05D01000000F0000000040404000000000000000000000000000000000000000000000000000000000000000000020C000000000000E1
:400C80000000000000000000000000000000000000000000000000000000000000000000000000000000000000000000000000000000000000000000E8000020000000002C
:400CC00000000000000000000000000000000000000000000000000000000000000000000000000000000000000000000000000000000000000000000000000000000000F4
:400D000000000000000000000000000000000000000000000000000000000000000000000000000000000000000000000000000000000000000000000000000000000000B3
:400D40000000000000000000000000000000000000000000000000000000000000000000000000000000000000000000000000000000000000000000000000000000000073
:400D80000000000000000000000000000000000000000000000000000000000000000000000000000000000000000000000000000000000000000000000000000000000033
:020000040003F7
:0200000490303A
:02000000FCFA08
:0200000490402A
:4000000000000000000000000000000000000000000000000000000000000000000000000000000000000000000000000000000000000000000000000000000000000000C0
:400040000000000000000000000000000000000000000000000000000000000000000000000000000000000000000000000000000000000000000000000000000000000080
:0200000490501A
:0C00000000021A6B11AA00011A6F0EA476
:0200000490600A
:0100000001FE
:00000001FF