:400000000040002011000000450F0000450F000080B500AF00F0CAFF80B500AF294B12221A6002F0BBFF284B180003F091F9012002F0C4FF302002F047FD244B244A1A609D
:40004000244B8022D2051A60234B234A126802210A431A60214B224A1A60224B00221A60214B214A126808218A431A60FA23DB00180002F077FD1D4B180002F069FE1C4B0D
:40008000E82252011A601B4B1B4A1A601B4BC82252011A60174B1A4A1A601A4B822212061A60194B802212031A60184B41221A60174B40221A60074B8022D2051A60C046CE
:4000C000BD4680BD30001040001BB70004010B40060000800C020B4078002E407C002E406A2D000064F02E406CF02E40DC050000040301400000014041FF008000030140DE
:4001000040FF008008010B4000010B40180101400401014080B582B000AF72B63C4B00221A60FB1D00221A7022E0FB1D1A7813005B009B185B00374A9B183B603B681A786F
:40014000597809020A43997809040A43DB781B06134318003B681A795B791B0213439BB2190000F095FEFB1D1A78FB1D01321A70FB1D1B78012BD8D9274BEE2212061A6088
:40018000264B992212041A60254B992212041A60244B992212041A60234B992212041A60224B992212041A60214A214B1B78DBB206210B43DBB213701E4BD82212041A602E
:4001C0001D4B20221A601D4BC42292021A601C4B20221A601B4BC0221A601B4BB022D2031A601A4B802212021A60194BC1221A60184BD82212041A60174B01221A60FFF7DB
:400200000BFF00F055FEC046BD4602B080BDC0466CF02E408C6A0100000002400001024000500F4010500F4020500F4030500F4000700F40080004400001044008010440B4
:400240001801044000020440080204400C02044000030440080304401803044010B5064C2378002B07D1054B002B02D0044800E000BF0123237010BDD010002000000000D5
:4002800024640100084B10B5002B03D00749084800E000BF07480368002B00D110BD064B002BFBD09847F9E700000000D410002024640100E00B00200000000090B589B0C1
:4002C00002AF786039607B68272B00D118E123D8212B00D1A7E00DD8022B00D18CE002D8012B45D085E1032B00D18EE0042B00D190E07EE1242B00D1B3E006D8222B00D183
:40030000A2E0232B00D1A4E073E1252B00D1BBE0262B00D1C1E06CE1422B00D13AE111D82A2B00D11DE106D8282B00D1F4E0292B00D10DE15DE12C2B00D11BE1412B00D18A
:400340001DE156E1FA2B00D14EE106D84C2B00D125E1572B00D13EE14BE182225200934200D12EE10622FF32934200D12EE140E11423FC18002001F0C7F803002380142387
:40038000FB181B88002B07D01423FB181A88A04B1100180003F0C4FB9E4B180003F0C0FB0823FB1800229A710823FB18180004F0B5FB1723FB1806221A7013E01723FB1880
:4003C0001B78013B0822BA18D35C1A00924B1100180003F0A5FB1723FB181A781723FB18013A1A701723FB181B78002BE6D18B4B180003F011FC06E13B681B781A00884BA5
:400400001100180003F08CFBFDE0864B180003F003FCF8E03B681B781A00834B1100180003F07EFBEFE03B681B7819003B685B781A003B689B781C003B68DB787B4800930A
:40044000230003F06DFBDEE0794B180003F0E4FBD9E03B681A68774B1100180003F060FBD1E03B683B613B691B7819003B695B781A003B699B781C003B69DB786E48009397
:40048000230003F04DFBBEE03B681B781A006B4B1100180003F044FBB5E0694B1B781A00684B1100180003F03BFB654B1B78042B00D0A5E0644B180003F0AEFB012002F0A7
:4004C0007FF8002002F054F8012002F0A1F8C04602F02AF901005D4B1A6880231B02134001D0012300E00023CB18002BF0D102F0B3F802F059FA02F0F5F902F0CBFC7FE081
:400500003B681B781A00524B1100180003F008FB012002F055F876E04E4B180003F07CFB012002F075F81423FC18002000F0ECFF030023801423FB181B88002B62D01423F1
:40054000FB181A88444B1100180003F0E9FA59E03B681B781A00414B1100180003F0E0FA51E03B681B781A003D4B1100180003F0D7FA48E03B4B180003F04EFB43E03A4B8D
:400580005B781900384B1B781A00384B180003F0C7FA38E0364B180003F03EFB33E03B689B891A00334B1100180003F0B9FA3B680433180000F0C6FA3B68186810F0ACF948
:4005C00021E02D4B180003F027FB1CE02B4B180003F022FB17E03B685B881A00284B1100180003F09DFA0EE0264B180003F014FB09E07A68244B1100180003F091FA02E0C2
:40060000C04600E0C046C046BD4607B090BDC046286401004C6401007C6401008464010088640100A4640100B8640100D4640100186501003C65010068650100AC65010067
:400640003A220020CC650100046601000802244010660100386601005C6601008066010098660100C466010040220020EC6601001467010034670100546701007C6701007C
:40068000A4670100DC670100FC67010080B500AF02F0FCFD02008023DB00134019D00E4B1B78032B0BD10D4B1B7801225340DAB20A4B1A70094B1B78180001F081FF084B36
:4006C0001B685A1C064B1A608023DB00180002F0EBFDC046BD4680BD3A220020E40B0020F010002080B500AF02F0B2FC0E4B180002F064F90121012002F0ECFC0121012031
:4007000002F016FD094B1900012002F077FD012002F002FE80235B00180002F03FFD02F06DFCC046BD4680BD8D060000FF7F000090B583B000AF234B1B78032B03D0214B22
:400740001B78022B39D1FC1D032004F0DFF903002370BC1D02F005FE03002370FB1D1B78032B1ED106F0DAF90300042B04D006F0D5F90300062B1BD101F0D6FF0100124B0E
:400780001A6880231B02134001D0012300E00023CB18002B02D102F047FB09E002F02AFB06E006F0BBF90300022B01D002F022FBBB1D1B78180002F0D8FDC046BD4603B0F1
:4007C00090BDC0463A2200200802244080B500AF62B601F073FF1C4B180003F01DFA012001F0C6FE012001F0EBFE012001F010FF164B180000F0F4FD154B180000F060FCC4
:40080000144B180001F000FA01F0C2FCFFF76AFF04F088F9FFF78CFF0F4B1B78022BF7D10E4B1B68002BF3D00C4B00221A6000F047FA04F077F90A4B1B88012BE8D100F051
:40084000B1F804F06FF9E3E710680100BD020000F10B0000650800003A220020F0100020F410002090B585B000AF786039600F23FB183A6892781A707A683D4B11001800A0
:4008800003F04EF97B68B13BFF3B0B2B60D89A00384BD3181B689F460F23FB181A78364B1100180003F03CF90F23FB181B78002B55D1324B01221A80314B01221A70314B66
:4008C00000221A704BE00F23FB181A782E4B1100180003F025F90F23FB181B78002B40D1264B00221A803CE0284B180003F094F93AE00F23FB181A78254B1100180003F0B2
:400900000FF93B685B68180000F01CF90F23FB181B78032B27D13B685B681B680C22BC18180000F08DFE030023801A4B0C22BA1812881A800C23FB181B88002B13D0164B1D
:4009400001221A60154B1B685A1C144B1A600AE0134B180003F060F906E0C04604E0C04602E0C04600E0C046C046BD4605B090BD406801001469010054680100F410002045
:40098000EE0B0020F810002084680100B4680100DC680100EC0B0020E80B0020F0100020FC68010090B585B000AF4E4B1B88002B00D192E04C4B1B685A1E4B4B1A604A4BEE
:4009C0001B68002B00D088E0464B1B881A00464B1A60464B1B78002B18D0444B00221A7001F0A8FD01F038FD082001F03FFD012001F07AFD03009B029B0ABB60BB68180011
:400A000001F01CFF02003A4B1A600BE0384B1B685A1C374B1A60364B1B68282B02DD344B0F221A60334B1B781A00012313400CD02F4B1A681300DB009B180521180002F09B
:400A400037FF03002033FB6002E0294B1B68FB60FB681B021B0AFB60274BFA681100180000F0A6F8BC1D2349244B1A785B781B02134300201B041B0C020C1204134318004C
:400A80000B000522002101F099FA03002380BB1D1B88002B0AD0BB1D1A88194B1100180003F03EF8174B00221A800FE0FB681BB21900104B1B781A000123134001D04623FA
:400AC00000E0432310481A0003F02AF8094B1B7801225340DAB2074B1A70C046BD4605B090BDC046EC0B0020E80B0020EE0B002000110020F8100020F910002040220020CC
:400B000044690100F41000207069010080B586B000AFF860B9607A6000237B6109E0BB685A1CBA601B78180001F0E8FD7B6901337B617A697B689A42F1DB7B681800BD4628
:400B400006B080BD80B584B000AF78600E23FB1800221A8017E07B681A680E23FB1800215B5ED3181B781A000F4B1100180002F0D7FF0E23FB1800229B5E9BB201339AB209
:400B80000E23FB181A800E23FB1800229B5E7A6892889342DFDB054B180003F03DF8C046BD4604B080BDC0468C6901009469010080B582B000AF786039603B68DAB27B6850
:400BC0001A707B6801333A68120AD2B21A707B6802333A68120CD2B21A707B6803333A68120ED2B21A70C046BD4602B080BDC04680B584B000AF786039600F23FB183A684B
:400C000092781A707A68274B1100180002F088FF7B68313BFF3B052B36D89A00224BD3181B689F460F23FB181A78204B1100180002F076FF0F23FB181B78002B02D11C4BFA
:400C400001221A800F23FB181B78002B23D1194B01221A801FE00F23FB181A78164B1100180002F05DFF0F23FB181B78002B02D10F4B00221A800F23FB181B78002B0CD125
:400C80000C4B00221A8008E00C4B180002F0C4FF04E0C04602E0C04600E0C046C046BD4604B080BD986901001C6A0100AC6901000411002006110020D8690100046A0100A7
:400CC00090B589B002AF674B1B685A1E654B1A60644B1B68002B00D0BFE0624B03221A60614B1B68F02293433B615F4B3A69C0210A431A60192002F005F85B4B1B68F022CB
:400D000093433B61584B3A6970210A431A60012001F0F8FF01F0A0FB022001F0A7FB524B1B68F02293433B614F4B3A69C0210A431A600E23FC18002001F0D6FB0300238003
:400D40000E23FB1800229B5E19008023980302F0AFFD0300BB60BB68444A934203DCFB1D00221A702FE0BB68414A934211DCBB68404A9A181300DB009B1A9B009A18C8231F
:400D80009900100002F094FD0300DAB2FB1D1A7019E0BB68384A934212DCBB68374A9A181300DB009B18DB009B1AC821180002F07FFD0300DBB21D33DAB2FB1D1A7002E08F
:400DC000FB1D64221A70FB1D1B78092B03D8002001F01EFC02E0012001F01AFC284B1B88012B17D11623FC18264BFA1D00921A785B781B02134300201B041B0C020C1204E9
:400E00001343180001230022002100F04FFA0300238009E01623FC18FB1D01220021002000F05CF9030023801623FB181B88002B0BD01623FB181A88134B1100180002F005
:400E40006FFE0F4B00221A8007E0FB1D1B781A000E4B1100180002F063FEC046BD4607B090BDC046F00B002000003A40CF070000EF0A000030F8FFFFB70B000010F5FFFF0C
:400E80000611002040220020346A0100486A010080B582B000AF786039603A687B680021180002F035FEC046BD4602B080BDC04680B500AF0C4B03221A600C4B03221A60EF
:400EC0000B4B802212061A600A4B0B4A1A600B4B094A1A600A4B00221A60012000F012F8C046BD4680BDC046300030403000314000003A4000033A400100030040033A40D0
:400F0000000E3F4080B584B000AF0200FB1D1A700B4B1B68FB60FB1D1B78002B05D0FB68802212061343FB6003E0FB685B005B08FB60034BFA681A60C046BD4604B080BD38
:400F400080033A4080B500AF02F09EFD03001B680C2B00D1FEE7FEE780B584B000AF7860104B1A687B68D3181A000F4BD21A8023DB009A4209DC0B4B1B68FB60094B1A6867
:400F80007B68D218074B1A6007E002F07DFD03000C221A6001235B42FB60FB681800BD4604B080BDFC0B00205822002080B586B000AF224B7B61224B3B61204B7B6135E086
:400FC0003B691B68FB603B695B68BB603B699B683B6000237B600CE0FB681A68BB681A60BB680433BB60FB680433FB607B6804337B607A683B689A42EED13B69DB683B603E
:4010000000237B6008E0BB6800221A60BB680433BB607B6804337B607A683B689A42F2D13B6910333B617B69013B7B617B69002BC6D102F02FFDFFF7C9FBFEE7010000009A
:401040002470010080B582B000AF154B144A126801218A431A6000237B600FE07B68032B04D8104B7A689200D35800E00E4B0F4A796889008B507B6801337B607B682F2B4A
:40108000ECD9FFF747F80A4B00221A60044B044A126801210A431A60C046BD4602B080BD0000104000000000450F000000000020C000002080B500AFC046BD4680BDC04679
:4010C00080B582B000AF7860034B7A681A60C046BD4602B080BDC0460811002090B587B000AF0400080011003B60FB1D221C1A70BB1D021C1A707B1D0A1C1A701623FB184A
:4011000000221A80FB1D1B78002B0BD1BB1D1B78002B07D17B1D1B78012B03D13B681B78642B04D91623FB1801221A8020E0FB1D1B78134ADB00D31802331A880823FB181A
:401140001A817B1D1B789AB20823FB189A800823FB183A681A600823F81800230022002110F024FA031E03D01623FB1801221A801623FB181B881800BD4607B090BDC046DB
:40118000986A010090B587B000AF78601723FB1800221A701623FB1800221A703F4B1B68002B00D173E07B689B892022934262D11723FB181B783A4ADB00D31802331B8889
:4011C0005A1E384913009B009B189B00CB1804331A6880235B03134040D07B68181D7A681623FC184023002110F0E0F9030023701623FB181B78002B34D10C23FB187A688D
:4012000012881A800C23FB181722BA1812789A700C23FB180022DA700C23FB1800225A607B685B68180000F00BFA03001A00012313409BB2002B08D0184B1B680C22B91851
:4012400098225200100098470CE0144B1B680C22B9183222FF321000984703E01623FB1806221A70104B1B78DBB201229343DAB20D4B1A700BE01723FB181A781723FB1858
:4012800001321A701723FB181B78002B8BD01623FB181B781800BD4607B090BD08110020986A0100BC6A010043220020B0B586B000AF3C1D20800C0010001900FB1C221C58
:4012C0001A70BB1C021C1A707B1C0A1C1A701623FC18BD6A7B1C1A78BB1C1978FB1C18782B00FFF7FBFE030023801623FB181B88002B46D1264B1B78022B05D01623FB18AF
:401300000422FF321A803CE02023002B14D020235A1E204913009B009B189B00CB1810331B685B68180000F08BF903001A00012313409BB2002B05D11623FB188022520014
:401340001A801EE0FB1C1B78134ADB00D31802331A880823FB181A810823FB18BA6A1A607B1C1B789AB20823FB189A801623FC180823FA183B1D110018680FF077FA0300C8
:4013800023801623FB181B881800BD4606B0B0BD3A220020BC6A0100986A010080B500AF064B00221A70064B00221A70054B00221A7000F009F8C046BD4680BD4322002021
:4013C0003C2200204222002080B500AFFFF772FE00F00AFC00F00EFCC046BD4680BDC046B0B594B004AF78603E23FB1800221A802823FA183D4B1000190014231A0002F0B0
:401400007EFB3B4B1B78002B04D1FFF7C7FF384B01221A707B68002B5CD0364B7A681A603E23FB181B88002B29D11023FB181C22BA185A601023FB182022BA181A601023C4
:40144000FB1800221A812023FB181B221A802023FB181B225A802023FB1804221A711C23FB1800221A703E23FC180E23FA181023FB181100180003F031FC030023803E23AF
:40148000FB181B88002B29D13E23FC182823FD18AE231A01184919480023029300230193052300932B0003F06FFB030023803E23FB181B88002B11D1114B01221A703E23E8
:4014C000FC18104B15222021180010F021F80300238003E03E23FB1801221A803E23FB181B881800BD4610B0B0BDC046A06A01000C11002030220020C8000020B11800004A
:401500003A220020BC6A010090B585B000AF0200FB1D1A70FB1D1B78022B04D90E23FB1801221A804AE0294B1B78042B41D1284B1B78DBB21A00042313403AD1FB1D1B7836
:40154000002B0BD1234B1E221A82224B5B6820221A80204B5B6830225A8010E0FB1D1B78012B0CD11B4B1E221A821A4B5B68C822D2001A80174B5B68FA2212015A80164BC1
:40158000FA1D12781A700E23FC18124B18000DF0D9FF030023800E23FB181B88002B0DD10B4B1B78DBB204221343DAB2084B1A7004E00E23FB180422FF321A800E23FB1823
:4015C0001B881800BD4605B090BDC0463A22002043220020300C00204222002080B584B000AF78600A00FB1C1A700023BB60BB68002B20D07B689A79BB681A700F23FB1845
:4016000000221A7012E00F23FB181B780133BA68D3180F22BA18127879688A5C1A700F23FB181A780F23FB1801321A700F23FB181B78052BE7D9C046BD4604B080BDC04674
:4016400080B582B000AF78607B681B789AB27B6801331B789BB21B029BB213439BB21800BD4602B080BDC04690B585B000AF78600F23FB1800221A707B689B890B229342AB
:4016800032D17B68181D7A680F23FC18402300210FF08CFF030023700F23FB181B78002B1AD17B685B681800FFF7CAFF03001A00022313409BB2002B07D00F4B1B68796836
:4016C000822252001000984706E00B4B1B6879680622FF3210009847084B1B78DBB201229343DAB2054B1A700F23FB181B781800BD4605B090BDC046302200204322002059
:4017000090B585B000AF78600F23FC187B681800FFF7AAFF03002370294B1B78DBB21A00012313400CD00F23FB181B78002B07D10F23FC187B681800FFF724FD0300237068
:401740001F4B1B78DBB21A00012313400CD00F23FB181B78002B07D10F23FC187B68180000F0BCFA03002370154B1B78DBB21A00012313401FD10F23FB181B78002B16D030
:401780000823FB1812229A707B689A890823FB181A800823FB180F22BA181278DA700823FA187B68110018680FF018F803E07B6818680FF0B1F8C046BD4605B090BDC046FB
:4017C0004322002080B582B000AF78607B68002B0AD0074B1B78DBB21A000123134003D07B68180000F068FCC046BD4602B080BD4322002080B500AF044B00225A70034B7F
:4018000000221A70C046BD4680BDC0464022002080B582B000AF7860C046BD4602B080BD80B500AFC046BD4680BDC04680B584B000AF78600E23FB1800221A707B689B7941
:40184000002B1CD10F23FB1800221A7012E00F23FB181B787A68D35C002B04D00E23FB1801221A700BE00F23FB181A780F23FB1801321A700F23FB181B78052BE7D90E23D7
:40188000FB181B781800BD4604B080BD80B582B000AF0200BB1D1A80C046BD4602B080BD80B582B000AF7860C046BD4602B080BD80B588B000AF02003960FB1D1A70BE4BAC
:4018C0001B78DBB201221343DAB2BB4B1A70FB1D1B78712B00D94EE19A00B84BD3181B689F461423FB1807221A701423FB1800225A701423FB18180005F070F91423FB18B7
:4019000007221A701423FB1801225A701423FB18180005F063F90023002B01D003F0F2F8A74B1B681800FFF781FF031E11D0A44B1B68180003F0FAF8A14B1B6800211800F2
:40194000FFF74CFE9E4B1B6801211800FFF746FE0DE09C4B180003F0E9F89A4B00211800FFF73CFE974B01211800FFF737FE03200DF07CFC1023FB183F221A701023FB18E3
:4019800000225A701023FB1818000DF08DFC8E4B04221A70F6E03B681800FFF739FFF1E03B681A78894B1A70ECE03B68BB61BB691B78002B00D0E0E0BB695B78002B0BD1B0
:4019C000834B0222DA80824B18229A80804B814A1A60BB697E4A5A60774B1B78DBB201229343DAB2744B1A70C7E0734B1B78DBB21A002023134000D0C1E0774B1B78102BDE
:401A000002D1754B0522DA70744B1B78724A110018000DF055FD03001A000E23FB181A800E23FB181B88002B06D06D4B1B680E22BA181100362098475F4B1B78DBB20122C9
:401A40001343DAB25C4B1A7099E03B681800FFF727FF97E03B681800FFF722FF5A4B02221A708FE0584B04221A708BE0564B1B78022B00D185E0504B1B78DBB21A000123AA
:401A8000134000D17DE04C4B1B78DBB21A00042313400BD04C4B03221A70474B1B78DBB204229343DAB2444B1A706AE0424B1B78DBB21A00082313400BD0434B04221A703E
:401AC0003D4B1B78DBB208229343DAB23A4B1A7057E03D4B1B78032B53D13B4B04221A70404B1B78002B4CD10120FFF70DFD031E47D1354B03221A7043E03B681B88180059
:401B0000FFF7C4FE3EE0354A3B681000190002231A0001F0F4FF2D4B00221A70FFF780FE30E0FFF767FE2DE03B685B88162B05D81E23FB183A6852881A8003E01E23FB180C
:401B400017221A801E23FB1819883B681A8800231204120C1B0C1B04134318000EF048FE10E03B681800FFF7CBFD0BE03B681800FFF728FE06E0C04604E0C04602E0C04620
:401B800000E0C0460C4B1B78DBB21A00112313400ED0094B1B78DBB201229343DAB2064B1A700F4B1B68FA1D1278396810009847C046BD4608B080BD43220020486D01002E
:401BC0004C0C0020440C00203A2200203C22002030110020A80B0020280D002040220020302200204222002080B500AFC046BD4680BDC04680B500AF024B00221A80C046DF
:401C0000BD4680BD3C11002080B582B000AF7860034B7A681A60C046BD4602B080BDC0463811002090B587B000AF0400080011003B60FB1D221C1A70BB1D021C1A707B1D1D
:401C40000A1C1A701623FB1800221A80FB1D1B78032B03D8BB1D1B78012B04D91623FB1801221A8030E0FB1D1A78BB1D18781A4913005B009B181B185B00CB1804331A888B
:401C80000823FB181A810823FB181B89002B17D07B1D1B789AB20823FB189A800823FB183A681A600823FB180022002118000FF047FC031E08D01623FB1801221A8003E06E
:401CC0001623FB1801221A801623FB181B881800BD4607B090BDC046106F010090B589B000AF78601E23FB1800221A701D23FB1800221A70AD4B1B68002B00D14FE11F235A
:401D0000FB1800221A703FE17B6899891F23FB181A78A74813005B009B185B00C31804331B8899420FD07B6899891F23FB181A789F4813005B009B185B00C31802331B88FC
:401D4000994200D019E10C23FB187A6812881A800C23FB181F22BA1812789A707B681A1D0C23FB185A607B6899891F23FB181A788F4813005B009B185B00C31802331B8875
:401D8000994200D073E01F23FB181B78032B4ED17B685B681A22BC181800FFF751FC030023801A23FB181B88002B40D00823FA181F23FB181878130004220121FFF732FF67
:401DC000031E34D11823FC180823FB181800FFF737FC030023800823FB1802331622BC181800FFF72DFC030023807B685B681A22BC181800FFF724FC030023801A23FB1813
:401E00001B88002B13D01A23FA181823FB1812881B889A4207D31A23FA181623FB1812881B889A4203D91E23FB1880221A701E23FB181B78002B00D093E07B68181D7A6802
:401E40001E23FC18402300210FF0B0FB030023701E23FB181B78002B00D082E0534B1B680C22B918B622FF321000984779E07B68181D7A681E23FC18402300210FF096FB31
:401E8000030023701E23FB181B78002B69D11F23FB181A78464913005B009B185B00CB1802331B885A1E434913009B009B189B00CB1804331A6880235B0313401CD07B68D4
:401EC0005B681800FFF7BCFB03001A00012313409BB2002B08D0354B1B680C22B918D82252001000984707E0304B1B680C22B918B222FF32100098471F23FB181A782C4905
:401F000013005B009B185B00CB1802331B885A1E284913009B009B189B00CB1804331A6880239B0313401CD07B685B681800FFF787FB03001A00022313409BB2002B08D04E
:401F40001A4B1B680C22B918D92252001000984707E0164B1B680C22B918B422FF3210009847154B1B78DBB201229343DAB2124B1A701D23FB1801221A701F23FB181A78AB
:401F80001F23FB1801321A701F23FB181B78032B05D81D23FB181B78002B00D1B4E61E23FB181B781800BD4609B090BD38110020106F0100BC6A01004322002090B589B085
:401FC00000AF0C243C192080080011007B600B23FB18021C1A700A23FB180A1C1A70324B1B78022B05D01E23FB180422FF321A8053E00B23FB181A782C4913005B009B184D
:402000005B00CB1804331B885A1E294913009B009B189B00CB1810331B685B681800FFF70FFB03001A00022313409BB2002B05D11E23FB180222FF321A802EE00B23FB18A9
:402040001A781A4913005B009B185B00CB1802331A881023FB181A811023FB187A681A600A23FB181B789AB21023FB189A801E23FC181023FA180C23FB18110018680EF0C8
:40208000EBFB030023801E23FB181B88002B04D11023FB181A89074B1A801E23FB181B881800BD4609B090BD3A220020106F0100BC6A01003C11002080B586B000AF78602E
:4020C0001623FB1800221A702D4B1B68002B52D02C4B1B88002B4ED01723FB1800221A703FE01723FB181A78274913005B009B185B00CB1802331A88224B1B889A4229D1BA
:402100000C23FA187B681000190002231A0001F0F6FC0C23FB181722BA1812789A700C23FB1800225A60194B1B78DBB201229343DAB2164B1A70134B00221A80104B1B6845
:402140000C22B918DA225200100098471623FB1801221A701723FB181A781723FB1801321A701723FB181B78032B04D81623FB181B78002BB5D0C046BD4606B080BDC046C6
:40218000381100203C110020106F01004322002080B500AF064B1B78002B04D100F00AF8034B01221A7000F03BF9C046BD4680BD3E11002080B584B000AF03210F2000F05B
:4021C00041FD7A4B19000F2000F016FD784B01221A60784B1B68002B01DA774900E07749774B774A12680A431A60764B764A1A60764B774A1A60774B00221A60764B774AEA
:402200001A60774B754A1A60764B764A1268802149020A431A60744B734A1268802149020A431A60714B00221A60714B00221A60704B11221A60704B1B687B607B686F4A05
:4022400013407B607B688022920513437B607B68012293437B60684B7A681A600023FB609BE0674BFA689200D258DC239B0113407B60644AFB68D3181B781A007B681343A9
:402280007B60FB68002B2BD1FB689B005E4A944663447A681A605A4BFA689200D358012213400AD0514B514A11680120FA68904002001204120C0A431A60514BFA68920092
:4022C000D358022213402BD0494B494A11680120FA68904002001204120C0A431A601FE04A4B7A688021C9050A431A60444BFA689200D3580122134005D03E4B3D4A126822
:4023000020210A431A603E4BFA689200D3580222134005D0374B374A126840210A431A60374BFA689200D25880239B00134003D080235B00BB6002E080235B01BB60304B68
:40234000FA689200D25880235B00134005D1304BFA6852000021D15209E0BB68002B00DA01335B1019B22A4BFA685200D152BB68284A53438022D20094466344002B02DAB7
:40238000254A94466344DB121BB21900234BFA689200D150FB680133FB60FB68012B00D85FE7C046BD4604B080BDC0465125000020003A4080033A40C0201013C020001335
:4023C00000003A4004003A40C4000A8018003A400000FF071C003A4010003A400200020014003A4000033A4040033A4028023A4038023A4018023A4030003A40FFFFFFDFA1
:402400002C6F0100346F010080003A4080023A404C22002010270000FF0700004422002080B500AF0A4B1B68002B0EDBC046094B1B68002BFBDB064B054A1268802109069D
:402440000A431A600A2000F083FCC046BD4680BD00003A4008023A4080B500AF024B01221A60C046BD4680BD24003A4080B584B000AF78600023FB607B680322134011D05C
:40248000184B1B6801221340FB60FB68002B03D17B6802221340F3D1FB68002B02D0114B01221A607B680C22134015D00D4B1B6810221340FA681343FB60FB6810221340E8
:4024C00003D17B6808221340F0D1FB681022134002D0044B10221A60FB681800BD4604B080BDC04610023A4080B584B000AF78607B68012B02D9002000F0F8FB7B68002B46
:4025000009D17B689B00094A944663441B681B041B0CFB6004E0064B1B681B041B0CFB60FB681BB21800BD4604B080BD80013A4090023A4080B500AF044B044A1268802113
:4025400009060A431A60C046BD4680BD80023A4080B582B000AF054B1B687B60034B7A681A60C046BD4602B080BDC04610023A4080B584B000AF0200FB1D1A700F4B1B68B2
:40258000DAB20F23FB1840218A431A70FB1D1B789B01DBB240221340D9B20F23FB180F22BA1812780A431A70044B0F22BA1812781A60C046BD4604B080BDC0460002044039
:4025C00080B584B000AF0200FB1D1A700F4B1B68DAB20F23FB1840218A431A70FB1D1B789B01DBB240221340D9B20F23FB180F22BA1812780A431A70044B0F22BA18127820
:402600001A60C046BD4604B080BDC0460003044080B584B000AF0200FB1D1A700D4B1B68DAB20F23FB187F210A401A70FB1D1B78DB01D9B20F23FB180F22BA1812780A43CC
:402640001A70044B0F22BA1812781A60C046BD4604B080BD0003044080B582B000AF094B1B68DAB2FB1D7F218A431A70054BFA1D12781A60FB1D1B78DB09DBB21800BD460F
:4026800002B080BD1002044080B500AF00F05CF8C046BD4680BDC04680B500AF064B064A1268802109060A431A6000F019F800F01DF8C046BD4680BD0000244080B500AF57
:4026C000064B1B78002B04D1FFF7DEFF034B01221A70FFF7E1FFC046BD4680BD4011002080B500AFC046BD4680BDC04680B500AF00F08AF8C046BD4680BDC04680B582B062
:4027000000AF7860C046064B1B681F221340082BF9D0044B7A681A60C046BD4602B080BD080224404002244080B582B000AF054B1B681F2213407B607B681800BD4602B0E9
:4027400080BDC0460802244080B500AF1B4B1C4A1A601C4B00221A601B4B01221A601B4B1B4A1A601B4B07221A601B4B00221A601A4B01221A601A4B154A1A60194B002262
:402780001A60194B04221A60184B00221A60184B00221A60174B00221A60174B00221A60164B00221A60164B00221A60144B1B689AB2144B1A80C046BD4680BD00002440D6
:4027C0000F00000240002440480024400003244007000080040324401003244044002440000224400402244050002440880E2440C80E2440480F2440080F2440C80F2440D7
:40280000880F24404211002080B500AF074B074A126807490A40902109040A431A60054B054A12881A60C046BD4680BD00010240FFFF0FFF880F24404211002080B588B0E7
:4028400000AF7860234B1B889BB21BB2BB61224B1B889BB21BB27B617B687A695A43BB699B02D3183B613B691C4A93420EDD3B69C822D203D31A00D50F331B11DB0055212B
:40288000180001F015F80300FB610FE03B69A022920394466344002B00DA0F331B11DB003721180001F004F80300FB613A69FB69D3188022120294466344FB60FB68002B1C
:4028C00002DA074A944663441B141800BD4608B080BDC04666F1FF0F64F1FF0FFFFF0E00FFFF000080B500AF00F054F8054B180000F010F8032000F01BF800F041F8C0463E
:40290000BD4680BD0929000080B500AFC046BD4680BDC04680B582B000AF7860034B7A689A64C046BD4602B080BDC0460000002090B585B000AF0200FB1D1A701623FB605A
:402940000B23FC1800F00DFD030023700A4B0A4A12680A491140FA1D1078FA68904002000A431A600B23FB181B78180000F0FDFCC046BD4605B090BD00E400E0FFFF3FFF44
:4029800080B500AF024B04221A60C046BD4680BD00E100E080B500AF024B04221A60C046BD4680BD80E100E080B500AF024B04221A60C046BD4680BD80E200E080B582B027
:4029C00000AF786000F050F87B68180000F00AF8032000F015F800F03BF8C046BD4602B080BDC04680B582B000AF7860034B7A681A66C046BD4602B080BDC046000000202E
:402A000090B585B000AF0200FB1D1A700623FB600B23FC1800F0A5FC030023700B4B0B4A1268C0218A431100FA1D1078FA68904002000A431A600B23FB181B78180000F082
:402A400094FCC046BD4605B090BDC04608E400E080B500AF034B802252001A60C046BD4680BDC04600E100E080B500AF034B802252001A60C046BD4680BDC04680E100E00F
:402A800090B585B000AF78600F23FC1800F069FC030023700A4B7A68D104E02292031140074A1268074802400A431A600F23FB181B78180000F059FCC046BD4605B090BD8D
:402AC00000010B40FFFFC7FF90B58BB000AF78602723FC1800F045FC03002370194B1A680C23FB181A60184B1A680C23FB185A607B68033B154AD35C1A000C23FB189A6012
:402B0000134B1A680C23FB18DA601C23FB18114A1A600C23FA181C23FB185A600E4B1C22BA181A600D4B0E4A1A600B4B1B682723FB181B78180000F018FCC046BD460BB00F
:402B400090BDC04608010B4000010B40386F010030001040B6EA000008001040040010401700008080B584B000AF78600023FB60154B154A126801210A431A60134B144A0B
:402B80001A60144B134A1268802109020A431A607B68002B12D01023FB600CE0012000F0D7F800F019F8031E02D00023FB6005E07B68013B7B607B68002BEFD1FB6818000E
:402BC000BD4604B080BDC04660F02E4078002E400220000010002E4080B582B000AF054B1B68012213407B607B681800BD4602B080BDC0460C002E4080B584B000AF0200D6
:402C00003960FB1D1A7080239B05FB60FB1D1B781F2B02D9002000F069F8FB1D1B7810339B00FA68D3181B68BB60FB1D1B7810339B00FA68D3183A681A60BB681800BD46D6
:402C400004B080BD90B587B000AF0200FB1D1A70BB1D0A1C1A70BB1D1B78032B02D9002000F044F8FB1D1B781F2B02D9002000F03DF8FB1D1B7803221340DB0006337B6124
:402C80001323FC1800F06DFB03002370FB1D1B789B08DBB29B00144A944663441B68FB6003227B699A401300DA43FB681340FB60BB1D1A787B699A401300FA681343FB6037
:402CC000FB1D1B789B08DBB29B00074A94466344FA681A601323FB181B78180000F045FBC046BD4607B090BD00E400E080B582B000AF0200FB1D1A7001BEC046BD4602B087
:402D000080BDC04680B582B000AF786009E00D4B1B68180000F01CFB7B680B4A944663447B607A6880231B029A42F0D8074B1B687A685343180000F00BFBC046BD4602B08F
:402D400080BDC0463C0D00200080FFFF340D002080B582B000AF0200BB1D1A80BB1D1B88044A12785343180000F0F2FAC046BD4602B080BD380D002080B500AF164B164A5F
:402D80001268920092081A60144B144A1268920092081A60124B124A1268920092081A60104B104A1268920092081A600E4B0E4A1268920092081A600C4B0C4A12689200DE
:402DC00092081A600A4B0A4A1268920092081A60C046BD4680BDC0460800044008010440080204400803044008040440080504400806044090B583B000AFFC1D00F0B1FAA6
:402E000003002370074B074A126804218A431A6030BFFB1D1B78180000F0A7FAC046BD4603B090BD10ED00E090B583B000AFFC1D00F097FA03002370114B114A1268520070
:402E400052081A600F4B104A128892B21A600F4B0E4A126804210A431A600D4B1B683B600220FFF70DFE30BF094B3A681A60FB1D1B78180000F079FAC046BD4603B090BD33
:402E800000000B400C000B4052F1FF0F10ED00E000010B4090B583B000AFFC1D00F061FA03002370FFF768FF114B114A1268802109060A431A600F4B0F4A128892B21A60C5
:402EC0000E4B0E4A126804210A431A600C4B0C4A1268FF218A43F1210A431A6030BFFB1D1B78180000F041FAC046BD4603B090BD00000B400C000B4050F1FF0F10ED00E01A
:402F00002C000B4080B500AF0F4B0F4A126801218A431A600C4B0C4A126802218A431A600A4B0A4A126830218A4310210A431A60064B064A126807218A4301210A431A60DD
:402F4000C046BD4680BDC04600F02E4000FF2E4080B500AF0F4B0F4A126802218A431A600D4B0D4A126807218A4302210A431A60094B094A126830218A4320210A431A6070
:402F8000044B044A126801210A431A60C046BD4680BDC04600F02E4000FF2E4080B500AFFFF7B0FF044B044A1268802109060A431A60C046BD4680BD00F02E4080B584B0D6
:402FC00000AF78600C4B1B6801221340FB607B68002B02D0012B03D005E0FFF793FF06E0FFF7B6FF03E00020FFF780FEC046FB681800BD4604B080BD00F02E4090B583B000
:4030000000AFFC1D00F0ADF903002370074B074A1268C02109020A431A60FB1D1B78180000F0A3F9C046BD4603B090BD00010B4080B500AF054B1A68C0231B02134001D04E
:40304000012300E000231800BD4680BD00010B4090B583B000AFFC1D00F083F9030023700D4B0D4A12680D490A408021C9010A431A60094B084A126808490A4080210902E1
:403080000A431A60FB1D1B78180000F06EF9C046BD4603B090BDC04600010B40FF3FFFFF80B582B000AF78607B68022B02D90020FFF71CFE064B1A687B68DB000133DA40B0
:4030C0001300012213401800BD4602B080BDC04610020B4080B584B000AF786039607B68022B02D90020FFF701FE7B681800FFF7D7FF031E16D10D4B1B687A68D2000321CF
:4031000091400A00D2431340FB603B6803221A407B68DB009A401300FA681343FB60034BFA681A60C046BD4604B080BD0C020B4080B584B000AF786039607B68002B02D02B
:403140007B68012B01D1012300E00023002B02D10020FFF7CBFD7B681800FFF7A1FF031E16D10D4B1B687A68D2000232012191400A00D2431340FB607B68DB0002333A68BA
:403180009A401300FA681343FB60034BFA681A60C046BD4604B080BD0C020B4080B582B000AF7860144B144A11687A680A431A607B680122134005D0C0460020FFF770FF0C
:4031C000031EFAD07A6880235B00134005D0C0460120FFF765FF031EFAD07A6880235B02134005D0C0460220FFF75AFF031EFAD0C046BD4602B080BD10020B4080B584B046
:4032000000AF786039607B68002B02D07B68012B01D1012300E00023002B02D10020FFF765FD174B1B689B0F9B0701D1C92300E05D231800FFF78CFD124B1B68FB607B680C
:403240001B01114A9A401300DA43FB681340FB600C4B7A68120139689140FA680A431A60074B1B689B0F9B0701D1432300E01F231800FFF76DFDC046BD4604B080BDC046E2
:403280000C020B4008020B40FFFF000080B500AF034B1B68034A13401800BD4680BDC04610020B400404040090B585B000AF78600B23FC1800F055F803002370FFF7B8FE84
:4032C000031E04D00123FB60FFF7C2FE01E00023FB607B680D4A13407B600D4B0C4A12680C4911407A680A431A60094B1B68FB68012B01D1FFF782FE0B23FB181B781800CC
:4033000000F033F8C046BD4605B090BD0404040010020B40FBFBFBFF80B582B000AF7860084B084A11687A68074802400A431A60C046044B1B68044A1340FAD1C046BD467B
:4033400002B080BD10020B4008080800000000000230800803D00138FDD1C046C046C0467047EFF3108072B6704780F31088704780B582B000AF78600A00BB1C1A80BB1C39
:403380001A887B681A60C046BD4602B080BDC04680B582B000AF78600A00BB1C1A80BB1C1A887B681A60C046BD4602B080BDC04680B584B000AF494B1B78DBB21B02484A58
:4033C0001278D2B21343FB60464B1B78DBB21B02454A1278D2B21343BB60BB68434A934207D1FB68072B04D1414BBB600423FB6009E0BA68D4231B019A4204D1FB68042BE1
:4034000001D13B4BBB603B4BBA681A603A4BFA681A603A4B1B78DBB21B02394A1278D2B21343FB60FA6880239B019A4202D0FB68002B01D1334BFB60334BFA681A60334B32
:403440001B78DBB21B02324A1278D2B21343FB60FB68304A934206D0FB682F4A934202D0FB68052B01D12D4BFB602D4BFA681A602C4B1B681B097B602B4B1B68AA2B29D17C
:403480007B68012B26D9214B1B78DBB20E2B21D1264B1B78DBB29BB21B0299B2244B1B78DBB29AB2BB1C0A431A80224BBA1C12881A60214B1B78DBB29BB21B0299B21F4B66
:4034C0001B78DBB29AB23B000A431A801C4B3A0012881A60C046BD4604B080BDD9F0FF0FD8F0FF0FDFF0FF0FDEF0FF0F580B0000580D00006C002E4074002E40DBF0FF0FCC
:40350000DAF0FF0F0220000078002E40DDF0FF0FDCF0FF0F0F0F000005050000050F000080002E40EC0F00F0E00F00F06DF2FF0F6CF2FF0F84002E406FF2FF0F6EF2FF0F5A
:4035400094002E4080B582B000AF0200BB1D1A80BB1D1B881800FFF7FBFBC046BD4602B080BDC04680B582B000AF78607B681800FFF7C8FBC046BD4602B080BD80B500AFC4
:4035800000F0ECF8C046BD4680BDC04680B500AF00F0F0F8C046BD4680BDC04680B500AF00F0E8F8044B180000F0A2F8032000F0ADF8C046BD4680BD8D37000080B500AF98
:4035C000034B180000F080F8C046BD4680BDC0468D37000080B500AF0223FF331800BD4680BDC04680B582B000AF78602B231800BD4602B080BDC04680B582B000AF78601A
:403600002B231800BD4602B080BDC04680B582B000AF78602B231800BD4602B080BDC04680B582B000AF78602B231800BD4602B080BDC04680B582B000AF78602B23180040
:40364000BD4602B080BDC04680B582B000AF78602B231800BD4602B080BDC04680B582B000AF78602B231800BD4602B080BDC04680B582B000AF78602B231800BD4602B0B1
:4036800080BDC04680B500AF2B231800BD4680BD80B582B000AF0200FB1D1A702B231800BD4602B080BDC04680B582B000AF786039602B231800BD4602B080BD80B500AF62
:4036C000C046BD4680BDC04680B582B000AF786000F050F87B68180000F00AF8032000F015F800F03BF8C046BD4602B080BDC04680B582B000AF7860034B7A681A67C04685
:40370000BD4602B080BDC0460000002090B585B000AF0200FB1D1A700623FB600B23FC18FFF71FFE030023700B4B0B4A1268C0218A431100FA1D1078FA68904002000A4331
:403740001A600B23FB181B781800FFF70EFEC046BD4605B090BDC0460CE400E080B500AF034B802252011A60C046BD4680BDC04600E100E080B500AF034B802252011A60B1
:40378000C046BD4680BDC04680E100E080B500AF12F034FEC046BD4680BDC046002243088B4274D303098B425FD3030A8B4244D3030B8B4228D3030C8B420DD3FF220902DD
:4037C00012BA030C8B4202D31212090265D0030B8B4219D300E0090AC30B8B4201D3CB03C01A5241830B8B4201D38B03C01A5241430B8B4201D34B03C01A5241030B8B42D5
:4038000001D30B03C01A5241C30A8B4201D3CB02C01A5241830A8B4201D38B02C01A5241430A8B4201D34B02C01A5241030A8B4201D30B02C01A5241CDD2C3098B4201D38D
:40384000CB01C01A524183098B4201D38B01C01A524143098B4201D34B01C01A524103098B4201D30B01C01A5241C3088B4201D3CB00C01A524183088B4201D38B00C01AE8
:40388000524143088B4201D34B00C01A5241411A00D20146524110467047FFE701B5002000F0F0F802BDC0460029F7D076E7704703460B437FD4002243088B4274D30309E9
:4038C0008B425FD3030A8B4244D3030B8B4228D3030C8B420DD3FF22090212BA030C8B4202D31212090265D0030B8B4219D300E0090AC30B8B4201D3CB03C01A5241830B47
:403900008B4201D38B03C01A5241430B8B4201D34B03C01A5241030B8B4201D30B03C01A5241C30A8B4201D3CB02C01A5241830A8B4201D38B02C01A5241430A8B4201D359
:403940004B02C01A5241030A8B4201D30B02C01A5241CDD2C3098B4201D3CB01C01A524183098B4201D38B01C01A524143098B4201D34B01C01A524103098B4201D30B019B
:40398000C01A5241C3088B4201D3CB00C01A524183088B4201D38B00C01A524143088B4201D34B00C01A5241411A00D201465241104670475DE0CA0F00D04942031000D3C3
:4039C0004042534000229C4603098B422DD3030A8B4212D3FC22890112BA030A8B420CD3890192118B4208D3890192118B4204D389013AD0921100E08909C3098B4201D32D
:403A0000CB01C01A524183098B4201D38B01C01A524143098B4201D34B01C01A524103098B4201D30B01C01A5241C3088B4201D3CB00C01A524183088B4201D38B00C01A26
:403A40005241D9D243088B4201D34B00C01A5241411A00D20146634652415B10104601D34042002B00D54942704763465B1000D3404201B5002000F005F802BD0029F8D07F
:403A800016E770477047C046014B18687047C046C81000200E4B70B500251E000D4CE41AA410A54204D0AB00F35898470135F8E713F0A6FA084B00251E00084CE41AA41064
:403AC000A54204D0AB00F35898470135F8E770BD0C7001000C7001000C7001001470010030B50024A24208D0035D651C0C5DA34201D0181B02E02C00F4E7002030BD0023E7
:403B000010B59A4203D0CC5CC4540133F9E710BD03008218934202D019700133FAE770470FB40B4B13B51C68002C05D0A369002B02D1200000F03CFA05AB049AA16820002A
:403B4000019300F001FC16BC08BC04B01847C046C810002070B505000E00002804D08369002B01D100F024FAAB69AC68002B02D1280000F01DFA254B9C4201D16C6808E0C1
:403B8000234B9C4201D1AC6803E0224B9C4200D1EC68A3891B0702D52369002B11D12100280000F09BF800280BD0012040422BE0013B0136A360002B08DB23685A1C22603E
:403BC00019703178A3680029F2D10BE0A269934201DB0A29F1D12200280000F027F8431CEFD1E2E7013BA360002B08DA22000A31280000F01BF8431CD7D00A2004E00A20AD
:403C000023685A1C2260187070BDC0466C6F01008C6F0100AC6F010010B5034B01001868FFF798FF10BDC046C8100020F8B505000F001400002804D08369002B01D100F0BC
:403C4000B7F9234B9C4201D16C6808E0214B9C4201D1AC6803E0204B9C4200D1EC68A369A360A3891B070AD52369002B07D023682269FEB2981A636998420FDB08E021005E
:403C8000280000F02BF80028F1D0012040421DE02100280000F01EF90028F6D1A3680130013BA36023685A1C22601F706369984205D0A3893000DB0708D50A2E06D12100AE
:403CC000280000F007F90028DFD13000F8BDC0466C6F01008C6F0100AC6F0100364B70B51D6806000C00002D05D0AB69002B02D1280000F05DF9314B9C4201D16C6808E04E
:403D00002F4B9C4201D1AC6803E02E4B9C4200D1EC680C22A35E9AB2110723D4D10607D409220120326037321343A381404242E0530713D5616B002908D0230044339942C1
:403D400002D0300000F02CFA002363632422A3899343A38100236360236923600822A3891343A3812369002B0BD1A0238022A1899B0092000B40934203D02100300000F08E
:403D8000D1F90123A289134005D00023A36063695B42A36103E0920700D46369A36000202369834207D10C22A35E1A0603D540221343A381013870BDC81000206C6F01008A
:403DC0008C6F0100AC6F0100F7B58A8905000C0013075AD44B68002B02DC0B6C002B19DDE76A002F16D000232E682B6080235B011A4001D0606D14E00123216A2800B847D4
:403E0000431C0ED12B68002B0BD01D2B01D0162B02D12E6000205AE04022A3891343A38155E0A3895B0706D56368C01A636B002B01D0236CC01A00230200216A2800E76AEF
:403E4000B847A389421C06D129681D293AD8204ACA40D20736D50022626022692260DB0405D5431C02D12B68002B00D16065616B2E600029CED023004433994202D02800E1
:403E800000F08EF90020606321E00F69002FC1D00B680F60DB1B01930023920700D14B69A36003E0019B3F181B1A0193019B002BB0DD019B3A00216A2800A66AB047002814
:403EC000F0DCA389402201201343A3814042FEBD010040200B6970B505000C00002B01D100201CE0002804D08369002B01D100F05FF80B4B9C4201D16C6808E0094B9C424C
:403F000001D1AC6803E0084B9C4200D1EC680C22A35E002BE4D021002800FFF755FF70BD6C6F01008C6F0100AC6F010010B5024900F0B0F810BDC046D53E0000002310B52A
:403F4000040003604360836081814366C281036143618361190008225C30FFF7D9FD054B24626362044BA362044BE362044B236310BDC046C5480000ED4800002549000004
:403F80005149000070B568254B1E5D430E002900743100F051F9041E08D000212A00016046600C30A0606832FFF7B2FD200070BD836913B50400002B28D18364C364036530
:403FC000134B144A1B6882620193984201D101238361200000F020F86060200000F01CF8A060200000F018F80022E06004216068FFF7A4FF01220921A068FFF79FFF022235
:404000001221E068FFF79AFF0123A36113BDC046686F01002D3F0000F8B51D4B06001D68AB69002B02D12800FFF7C2FF4835AC686B68013B05D40C22A75E002F10D068344C
:40404000F7E72B68002B01D02D68F0E704213000FFF798FF28600028F6D10C23336016E0012320005B42E3810233A38167662760A760676027616761A7615C30082239004F
:40408000FFF746FD20006763A763A764E764F8BD686F0100F7B504000700002601914834002C16D06368A5680093009B013B00930DD4AB89012B08D90E22AB5E013304D0BB
:4040C00029003800019B984706436835EDE72468E6E73000FEBD000070B50E001D000E23C95E90B01400002906DA00232B60B3891B060FD540230FE001AA00F055FC00288C
:40410000F3DBF023029A1B021340054A9B185A4253412B608023DB000020236010B070BD00E0FFFFF7B502268B8905000C00334210D101AB6A46FFF7CFFF009907002800B2
:4041400000F07AF800280CD10C22A35E9A0523D43343A3812300473323602361012363611AE080220D4BAB62A38920601343A381009B20616361019B002B0AD00E23E15ED5
:40418000280000F023FC002803D00122A3891343A381A3891F43A781F7BDC0462D3F000070B50500002944D00C1F2368002B00DAE418280000F03BFC1E4A13681100002B9C
:4041C00002D16360146031E0A3420DD92268A018834203D118685B688218226063600C6024E0A24203D813005A68002AF9D11E689819A0420BD12168711858181960824230
:4042000014D110685268411819605A600EE0A04202D90C232B6009E021686018824203D1106852684118216062605C60280000F0FFFB70BD2C220020032370B5CD1C9D43A9
:40424000083506000C2D01D20C2501E0002D01DBA94202D90C23336048E0300000F0E7FB234B1C681A002100002913D00B685B1B0DD40B2B02D90B60CC181EE08C4202D120
:40428000636813601AE04B6863600C0016E00C004968E9E7174C2368002B03D1300000F0FFFA20602900300000F0FAFA431C18D00323C41C9C43A0420DD12560300000F06D
:4042C000B7FB200007220B30231D9043C31A0ED05A42E2500BE0211A300000F0E1FA431CEBD10C233000336000F0A2FB002070BD2C22002028220020936810B5013B93601D
:40430000002B05DA9469A34208DBCBB20A2B05D01368581C10601970C8B201E0FFF786FC10BDF8B506000F001400D518AC4208D021783A003000FFF7DFFF0134431CF5D1E5
:4043400000E00020F8BD0000F0B59FB006000F0002920593002804D08369002B01D1FFF727FE7F4B9F4201D1776808E07D4B9F4201D1B76803E07C4B9F4200D1F768BB8976
:404380001B070AD53B69002B07D0002306AD6B6120336B761033AB763DE039003000FFF79DFC0028F1D001204042D6E0059A111D12680591002A00DA7FE00992013423781A
:4043C0002E2B00D18DE021780322684800F024FB002807D0654B2A68C01A4023834013432B6001342178631C062261480293297600F012FB002800D19DE05E4B002B00D01E
:4044000090E00722059B07339343083305936B69039A9B186B61029C2378002B04D1029BE31A049312D003E0252BF8D00134F3E7049B029A39003000FFF773FF431C00D1DE
:4044400086E06A69049B944663446B612378002B7ED00122002352426A6002A95432521801342B60EB60AB601370AB6521780522414800F0D1FA002808D03F4B2A68C01A21
:404480000123834013432B600134EFE72B68DA0604D55322202102A8121811701A0704D553222B2102A81218117022782A2A00D17CE7099B00200A2105E05242EA600222CA
:4044C00013432B607AE72278303A092A04D84B4301349B180120F6E7002800D16FE709936DE763782A2B0AD1059B02341A1D1B680592002B01DA01235B42079363E70023B4
:404500000A201A0001346B6021783039092904D84243013452180123F6E7002B00D152E7079250E705AB00933A00144B2900300000E000BF07E005AB00933A000F4B290042
:40454000300000F08BF80390039B013300D05EE7BB895B0600D526E70B981FB0F0BDC0466C6F01008C6F0100AC6F0100D26F0100D66F010000000000CC6F01002343000054
:40458000F7B5170001938A680B6900900C00934200DA130022003B6043321278002A01D001333B6023689B0602D53B6802333B60062523681D401ED0230043331B785A1E3F
:4045C0009341226892061CD53020E1184331087021005A1C45310978A2184332023311700FE022000123193201990098089EB047431C0ED00135E3683A689B1A9D42F0DB1E
:40460000DAE72200019943320098089DA847431C02D10120404220E006232068E1683A6803400025042B03D18D1AEB43DB171D40A3682269934201DD9B1AED180027BD4233
:404640000AD0220001231A3201990098089EB047431CDED00137F2E70020FEBDF0B58BB006920A0043320793059004920A7E0C00109B6E2A00D1ABE011D8632A22D009D8CE
:40468000002A00D1B5E0582A00D0C5E045310A70814A4FE0642A1DD0692A1BD0BCE0732A00D1AAE009D86F2A29D0702A00D0B3E0202209680A43226037E0752A1FD0782AC3
:4046C00033D0A9E00E001A684236111D196013683370A4E021681A68080606D4490604D5111D19600023D55E02E0111D19601568002D3BDA2D23049A6D42137036E02168BE
:404700001A68080606D4490604D51568111D1960ADB202E0111D196015685F4B227E039308276F2A1DD00A271BE022007821453211705A4A19680392081D226818600D6894
:40474000100602D4500600D5ADB2D30702D520231A4322601027002D03D1202322689A4322602300002243331A7002E00A274A4B03936368A360002B09DB042221689143A9
:404780002160002D05D1049E002B11D07BE0002D79D0049E28003900FFF786F8039B013E5B5C280033703900FEF7F8FF051EF1D1082F09D12368DB0706D563682269934292
:4047C00002DC3023013E3370049B9B1B23612BE009681A68080607D4490605D5111D19601368A28A1A8004E0111D1960136862691A600023049E236116E01A68111D196022
:40480000166800216268300000F006F9002801D0801B6060636803E0260042363270012323610023049A1370079B09AA00932100069B0598FFF7A4FE431C02D1012040420E
:4048400027E02369320006990598079DA847431CF4D0236800259B070FD4099BE068984217DA180015E022000123193206990598079EB047431CE1D00135E368099A9B1A36
:404880009D42F0DBE9E72600039B42361B7833708EE70BB0F0BDC046DD6F0100EE6F0100002370B5064C050008002360FCF754FB431C03D12368002B00D02B6070BDC0469B
:4048C0005022002070B50C000E25495F00F0B2F8002803DB636D1B18636503E0A289024B1340A38170BDC046FFEFFFFFF8B51F008B8905000C001600DB0505D50E23C95EA5
:404900000022022300F074F8A289054B28001340A38132000E23E15E3B0000F01FF8F8BDFFEFFFFF70B50C000E25495F00F060F8A389421C03D1054A1340A38104E0802237
:4049400052011343A381606570BDC046FFEFFFFF10B50E23C95E00F015F810BD70B50500080011000022064C22601A00FCF7CEF8431C03D12368002B00D02B6070BDC0461C
:4049800050220020002370B5064C05000800236000F064F8431C03D12368002B00D02B6070BDC04650220020002370B5064C050008001100236000F059F8431C03D12368AC
:4049C000002B00D02B6070BD50220020002370B5064C05000800236000F050F8431C03D12368002B00D02B6070BDC0465022002070B50500080011000022064C22601A00B4
:404A000000F044F8431C03D12368002B00D02B6070BDC04650220020C9B28218904204D003788B4202D00130F8E70020704770477047000070B50500080011000022064C60
:404A400022601A0000F02AF8431C03D12368002B00D02B6070BDC0465022002058220120014B40421A6070475022002058220120014B40421A607047502200205822024B60
:404A800000201A607047C0465022002058220120014B40421A6070475022002058220120014B40421A60704750220020134A1088810703D08107890F401A001D1179103004
:404AC000484381B25088820703D08207920F801A001D800040180A494030098980B2CA0701D0503080B2890706D504495422091F09785143081880B2704700004A0D002045
:404B00005011002010B501F063FF10BD10B501F065FF10BD10B501F077FF10BD10B501F07BFF10BD10B500F055FA10BD10B50749044609780220002907D1204601F0BCFF4C
:404B4000002802D120460AF0A1FC10BDE80E002070B504460120002C12D02368002B0FD0616800290CD0074D06222889208118462968FEF7C4FF6968606809780170002039
:404B800070BD000050110020FFB585B0002768460E9D07734F481C460078002802D0082009B0F0BD10990F9801900095029105A807C800F001F90028F2D16946264603AB48
:404BC00084460873002C19D0002115E08A00B75A082F09D990198078002805D0083FB7521878401C187005E0002914D00027B75290198770491CC9B2A942E7D3604600281A
:404C0000CED10F98002809D0109901F091FA002804D00120C4E701208446EFE701F0F4FE2D480021416081600599016021888180022D07D3A1798171A17AC171A1890181CD
:404C4000218A418100211EE0481C19E082008B00A75AE65ABE46BE4211D26F463E80B4461E190296B678BE7001967646E6521719029EBB78B3706646A652019EBE70401C00
:404C8000A842E3D3491CA942DED3134822460C3000906846037B0799069800F015F90028B8D168460B4C007B60700B480C3001F0DBFE0028AED1084907480C3107F086FC05
:404CC0000028A7D107F0A0FC0028A3D10121217066E70000440D002044110020F8B5054633480E460078002802D002242046F8BD002E5BD000242F49002D16D02A89D007F3
:404D00000DD02868002808D003881B3BE12B04D24088FB2801D81B2801D2012409E0900707D56868002804D1F7E70020088108604860002CDAD11F482F8907811C481B2166
:404D4000801D018041800421017119490020891C0870F80705D016480622801D2968FEF7CEFE1449B80703D56A681148127882700F480D46801D0860001F486001F0C2FE13
:404D80000B48801D01F0B0FE28890DF003FD28890DF06AFE03461033FFF788FE1F21C018890140180249308088809FE701249DE7440D002050110020FFB58446384F1C4613
:404DC0000020BB883F78054602460646002F11D100290ED0029999420BD36146002908D0002C06D00A99002906D02E4B0B99994202D2012004B0F0BD002144E0AB001F198C
:404E0000BF78002F3BD0E35A002B38D07B43591889B22B0000F04AF8050410161C253100A7782388BC46FF27233BEB37BB4222D26346032B1FD322E0A388002B1FD0302B5B
:404E400019D31CE02389002B19D0282B13D316E0A289002A13D01346134F233BBB420AD20DE0268A002A0AD033460F4F233BBB4201D2964203D901200EE0002001E000289F
:404E80000AD16D1CEDB2099B9D42B7D31C2463435B1802998B42ACD89642AAD8AAE70000440D002079020000BAFF000030B47446641E2578641CAB4200D21D46635D5B0093
:404EC000E31830BC18470000FFB583B0002469460C801F4606468C80002806D00598002803D004983043800701D0012466E0002FFBD03449049809888842F6D3FEF75EFB7C
:404F0000FEF744FB00F012FC002855D100F07AFD002851D12C49084601F03EF905042D0C4AD12A480499066081800021C18007810C98007AC00704D0684601F07EFD0400C1
:404F400007D10C98007A800703D501A801F07EFD0446BF1DFEB2002C20D13146059800F05DF804001AD10DF08DFD040016D16A461088928808368518144AF1B29088D2886A
:404F8000AEB29319984207D3401B801A80B201F0F3FB050007D000E0FF25012400F05EFA002D04D008E0F8B200F01CF9F6E700F081FA07490120087000F0CAFB204607B043
:404FC000F0BD0000480D0020095100005C110020500D002010B503480078012801D101F06DFA10BD500D002070B5084B0446DA889E8800205518B54206D81D68AA18226091
:40500000DA885118D98070BD032070BD5C11002001480089704700005C110020F0B587B007460D4600208900009006916846FFF7DBFF844600285DD13048009901600021AF
:4050400017E02E4B88001A680629115406D22C4C0419667882185670628805E0C419203CA67A8218567022891B68C018491C4280C9B2A942E5D300242DE0601CC2B20590EE
:4050800025E01E4FA30039689600581840887118039604904E88B04217D938466F46FE80B6464F786E4677710297049F4F800168039F5E18767879184E700168764659188F
:4050C0004E800068029F18184770521CD2B2AA42D7D30598C4B2AC42CFD36046002809D168460699FFF780FF8446002802D1054900980860604607B0F0BD0000540D0020BF
:4051000038700100580D00207047000010B5002809D005494A68002A05D0011F08788000105801F0D7FA10BD540D002010B50446FFF76EFFC0B2801DA0420CD307484068F4
:40514000002808D0A100405801F036FA002801D00470001D10BD002010BD0000540D0020F8B516460D460446FFF752FFC0B2801DA04203D20020C0430090F8BDB2B2E9B2F6
:40518000684601F03FFA0099481C03D0024AA000526811500098F8BD540D0020F8B50746FFF736FF801DC6B20A49002005460C680DE06178002907D06188B94202D32078EF
:4051C000FFF7B4FF002804D1241D6D1CEDB2B542EFD3F8BD540D002010B5002801D0FFF795FF10BD70B506460948002504680BE06178002905D062882078121D0023FFF7BD
:40520000AFFF241D6D1CEDB2B542F1D370BD0000540D0020FFB581B00A9F16000C4620D000F0F2F8054604281BD0002F0CD03846FFF7B4FF20492A0151184860002810D0ED
:405240003A460499FEF75BFC1B4928010E504618778101980570200406D47D20C000444304E0FF2005B0F0BD6404640C00F0BAF80746042807D000F04FFAA0420BD800F077
:405280004BFA201A03E0204600F0AAFA0020F06035720020E6E700F03FFA009000F0B6FA00980121001B009000F0ECF802493A0151180098C860E6E768110020F8B5060133
:4052C00016483418217A042903D0E068002802D017E00020F8BD00F01FFA054600F096FA00F0A0F804280CD001010C480F18F8680021451900F0C6F80020F860284600F017
:405300006FFA6068054D002801D0FFF765FF042020720020A8516081E060DAE768110020FEB500266A46304601232549050169180D7A042D02D0C96800291BD000211154E0
:40534000401CC0B20428F0D300246846005D002830D01B48210108184189476805680291002101604160042241810272C160002E02D015E01354E3E700F054F804280ED0EF
:4053800001010F4808180190C6680021304600F079F801980021C160304600F021FA0126002D07D038460299A847002F02D03846FFF712FF641CE4B2042CC6D3FEBD00000E
:4053C000681100200EB5002005216A460090118150810348694600680EF0B9F90EBD00005C0D0020074A0020010189180B7A042B02D0C968002903D0401CC0B20428F3D37B
:4054000070470000681100200549002002015218127A042A03D0401CC0B20428F6D370476811002030B50A4B04200A4C00210A011219157A042D06D0D268002A03D09A42ED
:4054400001D808461346491CC9B20429EFD330BDFFFF0000681100207047000030B50020074C05460423020111190B72A5504D60401C4D81C0B2CD600428F4D330BD0000E3
:405480006811002030B5094C00231A011219157A042D04D0D568002906D02D18D5605B1CDBB2042BF1D330BD2D1AF7E768110020002070471CB5002469460C701420019008
:4054C0002346054A05480EF047F904480068401C00D1FF2420461CBD315500005C0D00203EB5124A0146FF2000230124126800290DD0012914D0042908D104206946009320
:4055000008814B8110460EF022F980B23EBD6846009304814381694610460EF013F9F4E768460093048143816946EBE75C0D002070B545890468416800890300FFF7B6FC36
:4055400008280509091E22282628002005F000FF1EE0022908D0C8B22A4621460CF086FA2046FFF739FE13E002202A4621460CF07DFA2946204600F00DF809E000200DF08A
:40558000E5FD05E02046FFF7CBFE01E0FEF796F8002070BD014B0022DB681847600D002070B5448905680089022803D0032809D0FF2070BD2246094C0023A4682946012000
:4055C000A04708E0FFF7A6FA241DA2B200232946022006F0AEFE002070BD0000600D002070470000024800214160018041807047600D002070B50C46002186B0164603917A
:40560000012802D0022859D116E003A9012006F0E5FE01281BD1039D324621462846FEF76EFA0095287801900220694608814E816846FFF7B5FF41E0214D002B686809D076
:40564000049004A9022006F0C9FE01281DD0022006B070BD002812D0298840182146FEF74EFA28880024801980B228806988091D884206D12C801348FFF792FF03E00320A5
:40568000E6E788421AD96C6018E004986860E278A378110219430B4A698000231060E3565360032313815181A1788170E178C1706178417021780170042028800020C7E749
:4056C000600D0020A81100203EB515460C46022803D004280CD000203EBD0091019002206946088107484A8100680EF030F807E00CF0BCF9044B0022DB6829462046984760
:4057000001203EBD5C0D0020600D0020014AD16090607047600D0020034801688068081A0A21484300097047B411002010B5FDF735FF482204490548FEF7E1F90349012041
:40574000C870002010BD000054700100B815002010B5FDF713FF10BD70B5134C2368002B08D0207B1149C20705D04008400020738868A08070BD88680B4AA18880B2926823
:40578000814203D90A4D691A091802E0814202D2411A5118A160A080A0689842EAD30DF0F3FF00F013F870BDB4110020C0102E40FFFF000010B508461946FFF7A7FF10BD3F
:4057C000704710B5FFF780FF10BD000003480021016041608160C16070470000B4110020024610B5FF20002A0CD0FFF7EFFF064C0321207B0843207310010A21FEF754F85D
:405800002060002010BD0000B411002000B504480A21806848430209FFF7D8FF104600BDB41100200248007B8007C00F70470000B411002010B54B490868002802DA4A4B8E
:4058400001221A70022290430860484800694549C00B4031096A0246C907C90F0A4259D0012000F0EDFA3F480E216C30FDF790FD3E4820218430FDF78BFD3C4814219C303A
:40588000FDF786FD3948FF21C131A430FDF780FD3648FF212F31B030FDF77AFD33483449BC30FDF775FD31483249AC30FDF770FD30492E48491CB430FDF76AFD2B482E4958
:4058C000B830FDF765FD29482C49CC30FDF760FD26482B490830FDF75BFD24482949A830FDF756FD214828498830FDF751FD1F4826498C30FDF74CFD1C481921C902903008
:40590000FDF746FDFDF754FDFDF764FEC0B2022812D01FE000290BD0002101420AD0114801216030FDF734FD0120FDF71BFE97E70121F2E7FF2010BD15491648FDF728FD3E
:4059400014481549001DFDF723FD124800210830FDF71EFD54200449C043891C0870002010BD000000F02E40700D002000002E40320300002F3F000031020000105200000B
:40598000EC160000FA12000031D000003AE300009956000080012E40F80F000070B50646581C80B245086D00002408E0304600F0C1F81055000A1119A41C4870A4B2AC4285
:4059C000F4D3D80705D0D0182038D15CC47FD454C17770BD30B50A4C002100195B1E07E0541864782502545C2C430480891C89B29942F5DB994201D1515C018030BD0000B5
:405A000000102E4010B5FF2000F01AFA0F49FF2048700E481021801D41800121417001700A490020C91C4870FFF704FF04000AD100F02EF907210648FDF79AFC0448072135
:405A40001830FDF795FC204610BD0000700D0020CC112E4070B5002405465B1E0AE0284600F068F8010A161971702D1D1055A41CADB2A4B29C42F2DB9C4203D1284600F08F
:405A800059F8105570BD000070B500210A4D5B1E0AE0541864782602545C344346193480001D891C80B289B29942F2DB994202D1515C4019018070BD00102E40F0B505995F
:405AC000091FCFB200217E1E0BE0541864782502545C2C43164D45192C80001D891C80B289B2B142F1DBFC0712D01C78515C24020F4A0C4381180C809C785D78001D21022A
:405B000080B2294384182180001D80B2D9780CE059781A7809021143054A84182180001DD9789B78090280B2194380180180F0BD00102E40014940180088704700102E40F3
:405B400010B50B490020487000F0A2F8002000F09DF9002000F08AF907210648FDF708FC044807211830FDF703FC002010BD0000730D0020CC112E4010B50C4800780128C2
:405B80000FD100F091FF00F0DDF8002804D10848016A490849000162054802213030FDF7F7FB02490020C91E087010BD730D002040F02E4010B50B46062812D006DC01284F
:405BC0000CD0032801D1FFF7BBFF10BD0A28FCD00B28FAD105480078107010BDFFF712FF10BD1146184600F06DF910BD760D0020F8B5244DAC6A0127A007234E002816DA66
:405C0000307806280ED1286A384328621F480069F903084381B21D481030FDF7B9FB042000F00EF9174802212830FDF7A1FBE00718D000F07BFF01280FD1002000F0C8FFE3
:405C4000062000F0FDF81049FF20C91E48707078002802D1686B384368630A4801212830FDF786FBE0050BD53078042802D1052000F0E6F80348FF2101312830FDF778FB0A
:405C8000F8BD000040F02E40730D002000002E4010B503212348FDF77BFB0120FDF752FC20483038406A204C80076178800F890001431C480C38FDF76BFB6078002808D0E6
:405CC000401E022181401820FDF7D8FEC000083800E0B82081B21548FDF75AFB1348032109021438FDF754FB10481149B830FDF74FFB612189010F48FDF74AFB0D480321C9
:405D0000001FFDF745FB0C490C48FDF741FB0B480B496038FDF73CFB084801218838FDF737FB10BD70F02E40760D0020D8102E4090890000041E2E40FF0F000058122E4052
:405D400020900000044800684007400F022801D0002070470120704700010B4000B5FFF7F1FF002805D009480168C908C900016000BD0748016A49084900016205480169BB
:405D80000122D2039143016100BD000000010B4040F02E4000002E400849087806280BD148780749002803D1486B400840004863C86A01221043C86270470000730D0020AA
:405DC00040F02E400148007870470000730D002002484078022800D001207047700D002000B50300FFF762F8080D050D0B070507090D012000BD032000BD042000BD022058
:405E000000BDFF2000BD0000074A9168D26889B2064B92B2994204D105498A4201D1012100E000210170704780002E4033D000003FE300000149487070470000730D002022
:405E400010B50446FDF7A2FB072C01D9FF2C01D102480470FDF792FB10BD0000730D00200149487070470000700D002010B5064A012805D01921C9021046FDF789FA10BDC4
:405E80001D21C902F8E7000090002E4010B50A4A141D012808D009491046FDF779FA08492046FDF775FA10BD04491046891CFDF76FFA0349491DF3E788002E4031D0000093
:405EC0003AE3000070B50C460546FDF783FBC0B202280E49287804D0FF2810D04C280CD810E0FF2809D10A4AD0680004800F032801D0087807E09069000A553803E0087825
:405F0000207070BD4F382070087070BD720D002000002E40F0B50122002834D0002932D00424420600D00524792342065B06D21800D0641C034600221EE00C2516466E432D
:405F4000124D00277519AF72104F002ABB51696007D0661EB24209D10D4E86197606760E05E05E06760E8027BE1B00E080269B198919521C2E81D2B2A242DED30348054973
:405F8000006B002288611046F0BD000040140020790200007C0D002018B50020694608700A48006900280ED0132149014018047E684604704F21C900054800F059F8A042D8
:405FC00001D0012018BD002018BD00007C0D0020C4110020074900200C2242435218927A012A05D0401CC0B20628F5D3002070470120704740140020F8B50E000446154667
:4060000009D0194F19497868A04202D94018A04201D38D4201D90120F8BD31462046FDF75FFD00281ED02A4631462046FDF767FDE8B200210C224A43D21913895568EE18EB
:40604000A6420BD90126641B1B1B9672834209DA1469C01A044AC0B220329676491CC9B20629E7D30020F8BD4014002079020000034610B50020024604E09C5C2018521CCE
:40608000C0B292B28A42F8D310BD000070B500F05FF8084C064A216907480D46FDF72FFD05492846FFF736FFFFF776FF207070BD790200007C0D0020C4110020002070476B
:4060C0000020054A002902D0012902D002E0906000E0D060002070477C0D002070B5084C154608460549E26889182A46FDF707FDE0684019E06028B270BD0000C411002038
:406100007C0D00203EB50A226946FFF7E7FF044606480A2200686946FDF7E2FC002802D00020C0433EBD20463EBD0000800D0020002802D0044A914201D2FF207047034929
:406140004A61086100207047790200007C0D0020024800218160C160704700007C0D002070B5074C15460548A26880182A46FFF743FFA0684019A06028B270BDC41100207C
:406180007C0D002010B503490A220968FFF7E8FF10BD0000800D002010B50F4A002313600E4A13600E4B18600E4801600E49012008600E490860000290600E490C48086086
:4061C0000D4914300860FF381538506000F0BCF800F0CAF9002010BDB00D0020980D0020C40D0020C80D0020B40D0020A40D002088150020A80D0020BC0D0020014610B564
:406200000020002910D0094B1A689C685118A14209D25868196080188A0704D08A07920F891A091D196010BD002010BD980D0020F8B50024164E671E321F3D463168136869
:4062400006E01422624310328A58521C1BD0641C9C42F6D36A1C14D02C461422544322460C3288500C214843FFF7C8FF3168002808510AD031680020103408517068401C9F
:4062800070602846F8BD2546E4E73846F8BD0000A80D0020F3B50026F64381B000281BDB1E490968884217D80299002914D01B4F142204463F1D544325463968103548594F
:4062C000401C09D0FDF762F938682F1F4159C359994203DBFDF752F93046FEBD214608310091465801590C20704308180C220299FDF705FC0948761C001D0068C159B142F2
:4063000000D100260549009A091D865008684159491C4151FDF732F90020FEBDA40D0020002803DB07490968884202D90020C043704704491422091D096850431030085823
:4063400070470000A40D0020F0B500200D4A451E0346171F50600FE014260146714314680E1DA3510C461668083433511668083435511468401C635039688842ECD3002083
:40638000F0BD0000A80D0020F3B50026F64381B0002841DB2349096888423DD8029900293AD0204F142204463F1D54432546396810354859401C2FD0FDF7E8F83868415918
:4063C00000292BD0211D009146580C21005971430F46C1190C220298FDF791FB11480021001D0068761C00590C34C0190160416081600C48001D00680159B14200D1002658
:406400000849009A091D865008684159491E4151FDF7B4F80020FEBD3046FEBDFDF7AEF8FAE70000A40D0020FEB504460D4600201E49089E0860471E009001900290002C51
:4064400011D0486885420ED2002A0CD0002E0AD0642E08D808460C3001681C2068430C18207A002801D03846FEBD0120226020721846FFF7DDFE6060401C13D06681A68129
:406480000A4827610C3067610179A94200D205710021684601810A462846029B00F040F82846FEBD00202072DDE70000B00D002038B50124009400F039F838BDFEB500276B
:4064C000164EFF433D4600240EE01C20316860430818017A002906D04068FFF721FF002801D0254603E0641C3079A042EDDA681C12D01C2130684D434419FDF747F869466E
:406500006068FFF741FF0546FDF738F8002DD9D1216868468847D5E7FEBD0000BC0D002038B50024009400F001F838BD1FB500220C49541E0A60002811DB496888420ED892
:4065400008491C220C31096850430818406801A9FFF7A0FE401C02D0002004B010BD2046FBE70000B00D0020F0B50021114A4D1E174611710C3F0B46BD6016E008461C24A9
:4065800060431668041D355114680646235014680836A3551468361DA353044616680A34335318301468491C255078688142E5D30020F0BDBC0D002038B50021009100285F
:4065C00011DB0F49097888420DDA0D4D04010C3529680859002807D0201D0818694600F06FF9002801D0002038BDFCF7CFFF28680F34015D491E0155FCF7C0FF009838BD34
:40660000CC0D0020F7B582B0002502986E1E06602E48D21C024017462D4A2C4610460C380178106805E02301C358002B0FD0641CE4B28C42F7D3711C28D03401211D40182F
:406640000191039900F02AF900281FD101E02646F1E71F48016820460C300F521C480399026820460E30115419480399026820460F3011540398784300F0A0F81449002882
:406680000968085102D00024009011E001251AE00F48016801980818009900F02CF9002801D0012502E00098C0190090641CE4B203988442ECD3002D05D1029806600448CB
:4066C0000179491C0171284605B0F0BDFCFF0000D80D0020F8B50D4600216A468C461180002839DB23490978884235DA214B04010C3319680A59002A2ED020460C300B5A80
:40670000801C0E5C184670438018954224D3854222D2002006E007465F43BF18AF4206D0401CC0B2B042F6D36046002814D0114E271DC8190C366A46294600F006F9002857
:406740000AD168460088012808D030682946C01900F0D1F8002803D00120F8BD0020F8BDFCF714FF30680F34015D491C0155FCF705FFF3E7CC0D0020F8B50F46002400F0EE
:4067800031F8002817D10C4900220B460C334A600EE021011D680E466A501D680C36AA53B61C1D680F31AA551D68641C6A54E4B2BC42EED31A71F8BDCC0D002000280BD09E
:4067C000C01C074A81085068890053884118994203D89368516018187047002070470000CC0D0020F8B5064600200F4D009029700C0121466846FEF7F7FB00280CD129463A
:406800000C3100980860301B001F84B221466846FEF7EAFB002801D0FF20F8BD6C800098A8600020F8BD0000CC0D0020F8B5002827DB19490978884223DA174C05010C343B
:406840002168485900281CD028460C30085A009028460E300E5C401C0E5420682F1DC01900F064F800280CD12068002445590EE0094829460C300068C01900F03CF80028AB
:4068800001D00120F8BD00982D18641CE4B2B442EED30020F8BD0000CC0D002030B50D4604000BD0A800FFF789FF6060002805D000202570C0436080002030BD012030BD0C
:4068C00070B50D46040005D0002D03D00220205E002801DA012070BDFCF758FE0221615E60688900405828606088401E6080FCF745FE002070BD70B50D46040007D0002D91
:4069000005D002212078615E401E814201DB012070BDFCF73BFE6088401C00B26080616880000D50FCF72AFE002070BD10B5040009D0227800216068FDF7EAF80020C0438F
:406940006080002010BD012010BDF0B500231D46002802D00224045F0AE00120F0BD46689F00F6598E4201D1012503E05B1CDBB29C42F4DA15700020F0BD000001480078EC
:4069800070470000E00D00207CB505460024FEF7C1F8A8796946087000A8062229460130FDF7ADF80021684604F098FF0C2806D0072806D01F2806D0122806D006E00224D2
:4069C00004E0042402E0272400E0012420467CBD0148012141727047C016002010B502280BD0032802D0042809D102E000F07EF905E000F029FAFF2801D100F039FAFFF7CF
:406A0000E1F9FFF7EDF910BD10B500F061FAFFF7D9F9FFF7E5F910BD70B504460025FEF779F8002C06D0A079012803D8214602F0DDFD00E00125284670BD014601200029DC
:406A400002D05020088000207047000001460120002905D003485422007850430880002070470000E20D002010B502460D49FE204870032410460DF08DF9002810D10DF096
:406A800031F900280CD105F005FD002808D100F02FFC002804D105F0C7F9002800D10024204610BDE00D002002480021018280210180704700102E4070B500250446002884
:406AC0000ED0A07901280BD8FEF724F8A0790028204602D003F066F903E003F03BF900E00125284670BD0000014610B50120002904D006220248FDF702F8002010BD000095
:406B0000EC0D002001460120002903D0087802490870002070470000E20D002010B5FFF751F9012801D1FFF753F910BD0148007A70470000C016002038B504460120002CAC
:406B400020D0617801291DD800290BD0FF25E535FDF7E0FF0C4828180088C0B22070072803D00EE0FF25CD35F2E70020694608706846FFF749F969460878012801D108208C
:406B80002070002038BD000000102E40014A002192681047E00D002008B500226B461A7026280CD0094A342852680BD0352805D1900703D50021352005F048FD08BD1946EA
:406BC0002620F9E7D007F9D03420F5E7E00D00200149087270470000C0160020F8B504460120002C26D06178012902D92278092A20D8002905D0FF25E5352078092803D06C
:406C000004E0FF25CD35F8E708202070FDF782FF2078114F114E08280DD00020FFF736F970780128207810D00D4969180880FE2070700020F8BD0120FFF728F90720B88142
:406C40000549203188800120F2E7B8810248217820308180EBE70000C0112E40E00D002000102E4070B50E46050001D0002400E00C4C002C11D0E28A500609D5D107C90F62
:406C8000022003F02DF9E08A40218843E08204E0D107C90F012003F023F93146284602F001FE70BD20160020F8B50546002004460D4E009013E022466946284601F002F9D3
:406CC0000098002801D00DF047F8A878214602F0CBFBA878214602F0B9FB641CE4B2308AA042E8D8F8BD0000EC160020F8B54E4CFFF768F8012847D14C480078002843D0ED
:406D000002F058FD00283FD004F08AFA00283BD0474E7078C00703D000F01CFD012833D0307E00287DD17078002500285BD0000706D540488089070B00F02EF9384370D102
:406D40003B484178684604F0C1F821793A4CA2788918C9B2814262D802F02CFD002860D0344860300789324E203602F06DFB6846008802F097FB02F033FC3049098888423B
:406D800003D10120FFF75CF84BE02D49012008702748807B00281DD0002F1BD04036F07E002817D123486030008821494000C031498981420AD26078002807D103F0BEF8BD
:406DC0002049088A03221202104308822078002800D0257002F09CFB0120FFF72BF800F025FC174C15E002F0E5FC002819D0102402F0F6FB214602F0DFFA02F053FB104C68
:406E00000120207002F084FB0020FFF713F800F00DFC20780128B4D1FEF7A0FF25700020F8BDFF20F8BD0000F8150020700D002000160020A0102E40060E0020180E002066
:406E4000F20D0020E0112E4010B50848FF244078002809D102F0AEFC012805D1FEF78CFE0720FEF7EDFF0024204610BD0016002038B5FEF7A7FF012801D0002038BD02F06A
:406E800099FC00280AD0114C6078C00703D000F061FC012802D0207E002801D0FF2038BD617800290FD0684604F010F8022806D96846008802F0F6FA012002F033FB032069
:406EC000FEF7BEFFD9E70020F7E700000016002038B51E4CFEF776FF042813D0052811D0062812D003282AD007280AD100206946087002460120FEF75DFEFEF763FF01284F
:406F0000FBD138BD00F0B2FB38BD02F023FB00F0ADFB02F09FFB8007800F0228F4D10C4841880029F0D05B21095D0029ECD101210170A07D0140022002F0D2FF38BD02F03A
:406F40000DFB0120FEF77CFF38BD000020160020060E0020F8B50646002403F02FF80546304603F045F803460A480021068A0DE001228A401046174628401F40002803D036
:406F8000002F01D1224394B2491CC9B28E42EFD82046F8BDEC16002070B500252C460A4E03E0002C01D0002000E030460079002803D02046FFF7CEFF0543641C2406240E46
:406FC000EFD0284670BD0000201600201CB50020694648706846FFF7AFFD01AA69460A20FEF7E8FD6946042008561CBD70B50D4601F048FB04000BD02079002808D0FDF7B9
:4070000089FDE178A0782A4602F0D2FC002070BD022070BD0148007870470000F81500204030C07E002800D00120704700B500F001F800BD902148430749084A4018603049
:40704000417F491CC9B24177D289914201D300214177C8B27047000000160020EC16002013B501F00FFB04000BD001F0ACFE002807D0214601AA0A310620FEF79BFD0020F8
:407080001CBD02201CBD000010B50C4601F0FAFA00280AD001F097FE002806D0224604490A20FEF787FD002010BD022010BD0000E1150020F3B581B0074601460026029803
:4070C00002F074FF0446002F01D0002500E0154D002D21D0284601F00BFB032C04D13946029802F0BFFF06463846029902F0AEF9032C06D0002C10D00121384601F0FEFB91
:4071000003E03146384603F0ABF9284602F08CF80221284602F0A2F8FEBD3846029902F095F9FEBD2016002010B5044600F066FA002804D103F05EFE002801D00C2010BDDD
:407140002078611C02F036FDFF2801D01F2010BD02F07CFDFF280AD02178621C02F0FEF8044821780068026B601C904710BD072010BD00002C0E002010B503F03BFE002825
:4071800001D00C2010BD02F0F7FC03480068C06A8047002010BD00002C0E002070B50D46044610210CF018FD1021601806460CF013FD334610221946204603F049FE102155
:4071C00030460CF009FD02202870204604F062FD70BD0000F8B504464078217802028006870FE0781143A67809050002090D0643084601F047FA00210546F2B2002812D03C
:40720000002C10D0022F0ED0032F0CD0002A0AD00279092A07D0002A05D0134A5A23527E1B5C9A4207D82889002104F068FC20460CF092FDFF21002914D10C482246006854
